{
	"_format": "hh-sol-artifact-1",
	"contractName": "WorkShare",
	"sourceName": "contracts/WorkShare.sol",
	"abi": [
		{
			"anonymous": false,
			"inputs": [
				{
					"indexed": false,
					"internalType": "uint32",
					"name": "nrOfProjects",
					"type": "uint32"
				},
				{
					"indexed": false,
					"internalType": "string",
					"name": "_requirementsDocumentCID",
					"type": "string"
				},
				{
					"indexed": false,
					"internalType": "uint64",
					"name": "_reward",
					"type": "uint64"
				},
				{
					"indexed": false,
					"internalType": "uint64",
					"name": "_penalty",
					"type": "uint64"
				},
				{
					"indexed": false,
					"internalType": "uint64",
					"name": "_deadline",
					"type": "uint64"
				}
			],
			"name": "CreateProjectEvent",
			"type": "event"
		},
		{
			"anonymous": false,
			"inputs": [
				{
					"indexed": false,
					"internalType": "uint8",
					"name": "version",
					"type": "uint8"
				}
			],
			"name": "Initialized",
			"type": "event"
		},
		{
			"anonymous": false,
			"inputs": [
				{
					"indexed": true,
					"internalType": "address",
					"name": "previousOwner",
					"type": "address"
				},
				{
					"indexed": true,
					"internalType": "address",
					"name": "newOwner",
					"type": "address"
				}
			],
			"name": "OwnershipTransferred",
			"type": "event"
		},
		{
			"inputs": [
				{
					"internalType": "uint32",
					"name": "_nrOfProject",
					"type": "uint32"
				},
				{
					"internalType": "address",
					"name": "_applicant",
					"type": "address"
				}
			],
			"name": "acceptApplication",
			"outputs": [],
			"stateMutability": "nonpayable",
			"type": "function"
		},
		{
			"inputs": [
				{
					"internalType": "uint32",
					"name": "_projectNumber",
					"type": "uint32"
				}
			],
			"name": "applyForProject",
			"outputs": [],
			"stateMutability": "nonpayable",
			"type": "function"
		},
		{
			"inputs": [
				{
					"internalType": "uint32",
					"name": "_projectNumber",
					"type": "uint32"
				},
				{
					"internalType": "address",
					"name": "_newManager",
					"type": "address"
				}
			],
			"name": "changeManagerOfProject",
			"outputs": [],
			"stateMutability": "nonpayable",
			"type": "function"
		},
		{
			"inputs": [],
			"name": "commision",
			"outputs": [
				{
					"internalType": "uint32",
					"name": "",
					"type": "uint32"
				}
			],
			"stateMutability": "view",
			"type": "function"
		},
		{
			"inputs": [
				{
					"internalType": "string",
					"name": "_shortDescription",
					"type": "string"
				},
				{
					"internalType": "string",
					"name": "_requirementsDocumentCID",
					"type": "string"
				},
				{
					"internalType": "string",
					"name": "_nftCID",
					"type": "string"
				},
				{
					"internalType": "uint64",
					"name": "_reward",
					"type": "uint64"
				},
				{
					"internalType": "uint64",
					"name": "_penalty",
					"type": "uint64"
				},
				{
					"internalType": "uint64",
					"name": "_deadline",
					"type": "uint64"
				}
			],
			"name": "createProject",
			"outputs": [],
			"stateMutability": "nonpayable",
			"type": "function"
		},
		{
			"inputs": [
				{
					"internalType": "uint32",
					"name": "_projectNumber",
					"type": "uint32"
				}
			],
			"name": "finalizeProject",
			"outputs": [],
			"stateMutability": "nonpayable",
			"type": "function"
		},
		{
			"inputs": [
				{
					"internalType": "uint32",
					"name": "projectNumber",
					"type": "uint32"
				}
			],
			"name": "getAllApplicants",
			"outputs": [
				{
					"internalType": "address[]",
					"name": "",
					"type": "address[]"
				}
			],
			"stateMutability": "view",
			"type": "function"
		},
		{
			"inputs": [
				{
					"internalType": "address",
					"name": "_address",
					"type": "address"
				}
			],
			"name": "getEmailOfDeveloper",
			"outputs": [
				{
					"internalType": "string",
					"name": "",
					"type": "string"
				}
			],
			"stateMutability": "view",
			"type": "function"
		},
		{
			"inputs": [],
			"name": "getMyBalance",
			"outputs": [
				{
					"internalType": "uint256",
					"name": "",
					"type": "uint256"
				}
			],
			"stateMutability": "view",
			"type": "function"
		},
		{
			"inputs": [],
			"name": "getMyProjectsAdmin",
			"outputs": [
				{
					"components": [
						{
							"internalType": "uint32",
							"name": "id",
							"type": "uint32"
						},
						{
							"internalType": "uint32",
							"name": "nrOfApplicants",
							"type": "uint32"
						},
						{
							"internalType": "uint64",
							"name": "reward",
							"type": "uint64"
						},
						{
							"internalType": "uint64",
							"name": "penalty",
							"type": "uint64"
						},
						{
							"internalType": "uint64",
							"name": "deadline",
							"type": "uint64"
						},
						{
							"internalType": "address payable",
							"name": "manager",
							"type": "address"
						},
						{
							"internalType": "string",
							"name": "shortDescription",
							"type": "string"
						},
						{
							"internalType": "enum WorkShare.State",
							"name": "state",
							"type": "uint8"
						},
						{
							"internalType": "string",
							"name": "requirementsDocumentCID",
							"type": "string"
						},
						{
							"internalType": "string",
							"name": "nftCID",
							"type": "string"
						},
						{
							"internalType": "address[]",
							"name": "applicants",
							"type": "address[]"
						},
						{
							"internalType": "address payable",
							"name": "acceptedDeveloper",
							"type": "address"
						}
					],
					"internalType": "struct WorkShare.Project[]",
					"name": "",
					"type": "tuple[]"
				}
			],
			"stateMutability": "view",
			"type": "function"
		},
		{
			"inputs": [],
			"name": "getMyProjectsDev",
			"outputs": [
				{
					"components": [
						{
							"internalType": "uint32",
							"name": "id",
							"type": "uint32"
						},
						{
							"internalType": "uint32",
							"name": "nrOfApplicants",
							"type": "uint32"
						},
						{
							"internalType": "uint64",
							"name": "reward",
							"type": "uint64"
						},
						{
							"internalType": "uint64",
							"name": "penalty",
							"type": "uint64"
						},
						{
							"internalType": "uint64",
							"name": "deadline",
							"type": "uint64"
						},
						{
							"internalType": "address payable",
							"name": "manager",
							"type": "address"
						},
						{
							"internalType": "string",
							"name": "shortDescription",
							"type": "string"
						},
						{
							"internalType": "enum WorkShare.State",
							"name": "state",
							"type": "uint8"
						},
						{
							"internalType": "string",
							"name": "requirementsDocumentCID",
							"type": "string"
						},
						{
							"internalType": "string",
							"name": "nftCID",
							"type": "string"
						},
						{
							"internalType": "address[]",
							"name": "applicants",
							"type": "address[]"
						},
						{
							"internalType": "address payable",
							"name": "acceptedDeveloper",
							"type": "address"
						}
					],
					"internalType": "struct WorkShare.Project[]",
					"name": "",
					"type": "tuple[]"
				}
			],
			"stateMutability": "view",
			"type": "function"
		},
		{
			"inputs": [],
			"name": "getOpenProjects",
			"outputs": [
				{
					"components": [
						{
							"internalType": "uint32",
							"name": "id",
							"type": "uint32"
						},
						{
							"internalType": "uint32",
							"name": "nrOfApplicants",
							"type": "uint32"
						},
						{
							"internalType": "uint64",
							"name": "reward",
							"type": "uint64"
						},
						{
							"internalType": "uint64",
							"name": "penalty",
							"type": "uint64"
						},
						{
							"internalType": "uint64",
							"name": "deadline",
							"type": "uint64"
						},
						{
							"internalType": "address payable",
							"name": "manager",
							"type": "address"
						},
						{
							"internalType": "string",
							"name": "shortDescription",
							"type": "string"
						},
						{
							"internalType": "enum WorkShare.State",
							"name": "state",
							"type": "uint8"
						},
						{
							"internalType": "string",
							"name": "requirementsDocumentCID",
							"type": "string"
						},
						{
							"internalType": "string",
							"name": "nftCID",
							"type": "string"
						},
						{
							"internalType": "address[]",
							"name": "applicants",
							"type": "address[]"
						},
						{
							"internalType": "address payable",
							"name": "acceptedDeveloper",
							"type": "address"
						}
					],
					"internalType": "struct WorkShare.Project[]",
					"name": "",
					"type": "tuple[]"
				}
			],
			"stateMutability": "view",
			"type": "function"
		},
		{
			"inputs": [
				{
					"internalType": "address",
					"name": "_admin",
					"type": "address"
				}
			],
			"name": "grantAdminRole",
			"outputs": [],
			"stateMutability": "nonpayable",
			"type": "function"
		},
		{
			"inputs": [
				{
					"internalType": "address payable",
					"name": "_token",
					"type": "address"
				},
				{
					"internalType": "uint32",
					"name": "_commision",
					"type": "uint32"
				}
			],
			"name": "initialize",
			"outputs": [],
			"stateMutability": "nonpayable",
			"type": "function"
		},
		{
			"inputs": [],
			"name": "nrOfDevelopers",
			"outputs": [
				{
					"internalType": "uint32",
					"name": "",
					"type": "uint32"
				}
			],
			"stateMutability": "view",
			"type": "function"
		},
		{
			"inputs": [],
			"name": "owner",
			"outputs": [
				{
					"internalType": "address",
					"name": "",
					"type": "address"
				}
			],
			"stateMutability": "view",
			"type": "function"
		},
		{
			"inputs": [
				{
					"internalType": "uint32",
					"name": "_projectNumber",
					"type": "uint32"
				},
				{
					"internalType": "bool",
					"name": "_effort",
					"type": "bool"
				}
			],
			"name": "projectNotCompleted",
			"outputs": [],
			"stateMutability": "nonpayable",
			"type": "function"
		},
		{
			"inputs": [
				{
					"internalType": "uint32",
					"name": "",
					"type": "uint32"
				}
			],
			"name": "projects",
			"outputs": [
				{
					"internalType": "uint32",
					"name": "id",
					"type": "uint32"
				},
				{
					"internalType": "uint32",
					"name": "nrOfApplicants",
					"type": "uint32"
				},
				{
					"internalType": "uint64",
					"name": "reward",
					"type": "uint64"
				},
				{
					"internalType": "uint64",
					"name": "penalty",
					"type": "uint64"
				},
				{
					"internalType": "uint64",
					"name": "deadline",
					"type": "uint64"
				},
				{
					"internalType": "address payable",
					"name": "manager",
					"type": "address"
				},
				{
					"internalType": "string",
					"name": "shortDescription",
					"type": "string"
				},
				{
					"internalType": "enum WorkShare.State",
					"name": "state",
					"type": "uint8"
				},
				{
					"internalType": "string",
					"name": "requirementsDocumentCID",
					"type": "string"
				},
				{
					"internalType": "string",
					"name": "nftCID",
					"type": "string"
				},
				{
					"internalType": "address payable",
					"name": "acceptedDeveloper",
					"type": "address"
				}
			],
			"stateMutability": "view",
			"type": "function"
		},
		{
			"inputs": [
				{
					"internalType": "string",
					"name": "_email",
					"type": "string"
				}
			],
			"name": "register",
			"outputs": [],
			"stateMutability": "nonpayable",
			"type": "function"
		},
		{
			"inputs": [],
			"name": "renounceOwnership",
			"outputs": [],
			"stateMutability": "nonpayable",
			"type": "function"
		},
		{
			"inputs": [
				{
					"internalType": "address",
					"name": "_remove",
					"type": "address"
				}
			],
			"name": "revokeAdminRole",
			"outputs": [],
			"stateMutability": "nonpayable",
			"type": "function"
		},
		{
			"inputs": [],
			"name": "totalCommission",
			"outputs": [
				{
					"internalType": "uint256",
					"name": "",
					"type": "uint256"
				}
			],
			"stateMutability": "view",
			"type": "function"
		},
		{
			"inputs": [
				{
					"internalType": "address",
					"name": "newOwner",
					"type": "address"
				}
			],
			"name": "transferOwnership",
			"outputs": [],
			"stateMutability": "nonpayable",
			"type": "function"
		},
		{
			"inputs": [],
			"name": "withdrawCommision",
			"outputs": [],
			"stateMutability": "nonpayable",
			"type": "function"
		},
		{
			"inputs": [],
			"name": "workShareToken",
			"outputs": [
				{
					"internalType": "contract IERC20",
					"name": "",
					"type": "address"
				}
			],
			"stateMutability": "view",
			"type": "function"
		}
	],
	"bytecode": "0x60806040523480156200001157600080fd5b5062000032620000266200003860201b60201c565b6200004060201b60201c565b62000105565b600033905090565b60008060029054906101000a900473ffffffffffffffffffffffffffffffffffffffff16905081600060026101000a81548173ffffffffffffffffffffffffffffffffffffffff021916908373ffffffffffffffffffffffffffffffffffffffff1602179055508173ffffffffffffffffffffffffffffffffffffffff168173ffffffffffffffffffffffffffffffffffffffff167f8be0079c531659141344cd1fd0a4f28419497f9722a3daafe3b4186f6b6457e060405160405180910390a35050565b615b3a80620001156000396000f3fe608060405234801561001057600080fd5b50600436106101735760003560e01c8063b5261a1b116100de578063d7f9094d11610097578063f078494a11610071578063f078494a146103c6578063f2c298be146103f6578063f2fde38b14610412578063ffd10afe1461042e57610173565b8063d7f9094d14610382578063ecde0c4f1461038c578063ed83d6a8146103aa57610173565b8063b5261a1b146102d6578063b8211c09146102f2578063b95edbf91461030e578063c0320dbc1461032c578063c5e4c9f91461034a578063c634b78e1461036657610173565b80638298ec5c116101305780638298ec5c146102285780638da5cb5b146102465780638f7392601461026457806396dcf88c146102805780639a19c7b01461029c578063adf0cffb146102b857610173565b806318736741146101785780631910f96a146101945780631a6923ef146101b25780634c738909146101e2578063715018a614610200578063718fbe6c1461020a575b600080fd5b610192600480360381019061018d919061425a565b610468565b005b61019c610561565b6040516101a99190614a69565b60405180910390f35b6101cc60048036038101906101c79190614231565b610bba565b6040516101d99190614a47565b60405180910390f35b6101ea610cfd565b6040516101f79190614d83565b60405180910390f35b610208610daf565b005b610212610dc3565b60405161021f9190614a8b565b60405180910390f35b610230610de9565b60405161023d9190614d9e565b60405180910390f35b61024e610dff565b60405161025b919061497a565b60405180910390f35b61027e60048036038101906102799190614231565b610e28565b005b61029a60048036038101906102959190614231565b611326565b005b6102b660048036038101906102b19190614068565b61177a565b005b6102c06117dd565b6040516102cd9190614a69565b60405180910390f35b6102f060048036038101906102eb9190614137565b611f79565b005b61030c60048036038101906103079190614296565b6123f3565b005b6103166129b6565b6040516103239190614d9e565b60405180910390f35b6103346129cc565b6040516103419190614d83565b60405180910390f35b610364600480360381019061035f9190614091565b6129d2565b005b610380600480360381019061037b9190614068565b612c27565b005b61038a612c8a565b005b610394612dd1565b6040516103a19190614a69565b60405180910390f35b6103c460048036038101906103bf919061425a565b6134b0565b005b6103e060048036038101906103db9190614068565b6136c9565b6040516103ed9190614ac1565b60405180910390f35b610410600480360381019061040b91906140f6565b61382d565b005b61042c60048036038101906104279190614068565b61394e565b005b61044860048036038101906104439190614231565b6139d2565b60405161045f9b9a99989796959493929190614e13565b60405180910390f35b610470613c6d565b600460008273ffffffffffffffffffffffffffffffffffffffff1673ffffffffffffffffffffffffffffffffffffffff16815260200190815260200160002060009054906101000a900460ff166104fc576040517f08c379a00000000000000000000000000000000000000000000000000000000081526004016104f390614d43565b60405180910390fd5b80600560008463ffffffff1663ffffffff16815260200190815260200160002060010160006101000a81548173ffffffffffffffffffffffffffffffffffffffff021916908373ffffffffffffffffffffffffffffffffffffffff1602179055505050565b60606000600160189054906101000a900463ffffffff1663ffffffff1667ffffffffffffffff8111156105bd577f4e487b7100000000000000000000000000000000000000000000000000000000600052604160045260246000fd5b6040519080825280602002602001820160405280156105f657816020015b6105e3613ddb565b8152602001906001900390816105db5790505b5090506000805b600160189054906101000a900463ffffffff1663ffffffff168163ffffffff161015610bb1576000600381111561065d577f4e487b7100000000000000000000000000000000000000000000000000000000600052602160045260246000fd5b600560008363ffffffff1663ffffffff16815260200190815260200160002060030160009054906101000a900460ff1660038111156106c5577f4e487b7100000000000000000000000000000000000000000000000000000000600052602160045260246000fd5b1415610ba057600560008263ffffffff1663ffffffff168152602001908152602001600020604051806101800160405290816000820160009054906101000a900463ffffffff1663ffffffff1663ffffffff1681526020016000820160049054906101000a900463ffffffff1663ffffffff1663ffffffff1681526020016000820160089054906101000a900467ffffffffffffffff1667ffffffffffffffff1667ffffffffffffffff1681526020016000820160109054906101000a900467ffffffffffffffff1667ffffffffffffffff1667ffffffffffffffff1681526020016000820160189054906101000a900467ffffffffffffffff1667ffffffffffffffff1667ffffffffffffffff1681526020016001820160009054906101000a900473ffffffffffffffffffffffffffffffffffffffff1673ffffffffffffffffffffffffffffffffffffffff1673ffffffffffffffffffffffffffffffffffffffff16815260200160028201805461083e906152ae565b80601f016020809104026020016040519081016040528092919081815260200182805461086a906152ae565b80156108b75780601f1061088c576101008083540402835291602001916108b7565b820191906000526020600020905b81548152906001019060200180831161089a57829003601f168201915b505050505081526020016003820160009054906101000a900460ff16600381111561090b577f4e487b7100000000000000000000000000000000000000000000000000000000600052602160045260246000fd5b6003811115610943577f4e487b7100000000000000000000000000000000000000000000000000000000600052602160045260246000fd5b8152602001600482018054610957906152ae565b80601f0160208091040260200160405190810160405280929190818152602001828054610983906152ae565b80156109d05780601f106109a5576101008083540402835291602001916109d0565b820191906000526020600020905b8154815290600101906020018083116109b357829003601f168201915b505050505081526020016005820180546109e9906152ae565b80601f0160208091040260200160405190810160405280929190818152602001828054610a15906152ae565b8015610a625780601f10610a3757610100808354040283529160200191610a62565b820191906000526020600020905b815481529060010190602001808311610a4557829003601f168201915b5050505050815260200160068201805480602002602001604051908101604052809291908181526020018280548015610af057602002820191906000526020600020905b8160009054906101000a900473ffffffffffffffffffffffffffffffffffffffff1673ffffffffffffffffffffffffffffffffffffffff1681526020019060010190808311610aa6575b505050505081526020016007820160009054906101000a900473ffffffffffffffffffffffffffffffffffffffff1673ffffffffffffffffffffffffffffffffffffffff1673ffffffffffffffffffffffffffffffffffffffff1681525050838381518110610b88577f4e487b7100000000000000000000000000000000000000000000000000000000600052603260045260246000fd5b602002602001018190525081610b9d90615311565b91505b80610baa9061535a565b90506105fd565b50819250505090565b606060011515600460003373ffffffffffffffffffffffffffffffffffffffff1673ffffffffffffffffffffffffffffffffffffffff16815260200190815260200160002060009054906101000a900460ff16151514610c4f576040517f08c379a0000000000000000000000000000000000000000000000000000000008152600401610c4690614d63565b60405180910390fd5b600560008363ffffffff1663ffffffff168152602001908152602001600020600601805480602002602001604051908101604052809291908181526020018280548015610cf157602002820191906000526020600020905b8160009054906101000a900473ffffffffffffffffffffffffffffffffffffffff1673ffffffffffffffffffffffffffffffffffffffff1681526020019060010190808311610ca7575b50505050509050919050565b6000600160009054906101000a900473ffffffffffffffffffffffffffffffffffffffff1673ffffffffffffffffffffffffffffffffffffffff166370a08231336040518263ffffffff1660e01b8152600401610d5a919061497a565b60206040518083038186803b158015610d7257600080fd5b505afa158015610d86573d6000803e3d6000fd5b505050506040513d601f19601f82011682018060405250810190610daa9190614208565b905090565b610db7613c6d565b610dc16000613ceb565b565b600160009054906101000a900473ffffffffffffffffffffffffffffffffffffffff1681565b600160149054906101000a900463ffffffff1681565b60008060029054906101000a900473ffffffffffffffffffffffffffffffffffffffff16905090565b60011515600460003373ffffffffffffffffffffffffffffffffffffffff1673ffffffffffffffffffffffffffffffffffffffff16815260200190815260200160002060009054906101000a900460ff16151514610ebb576040517f08c379a0000000000000000000000000000000000000000000000000000000008152600401610eb290614d63565b60405180910390fd5b6000600560008363ffffffff1663ffffffff168152602001908152602001600020905060016003811115610f18577f4e487b7100000000000000000000000000000000000000000000000000000000600052602160045260246000fd5b8160030160009054906101000a900460ff166003811115610f62577f4e487b7100000000000000000000000000000000000000000000000000000000600052602160045260246000fd5b14610fa2576040517f08c379a0000000000000000000000000000000000000000000000000000000008152600401610f9990614c03565b60405180910390fd5b8060010160009054906101000a900473ffffffffffffffffffffffffffffffffffffffff1673ffffffffffffffffffffffffffffffffffffffff163373ffffffffffffffffffffffffffffffffffffffff1614611034576040517f08c379a000000000000000000000000000000000000000000000000000000000815260040161102b90614ca3565b60405180910390fd5b60008160000160089054906101000a900467ffffffffffffffff1667ffffffffffffffff169050428260000160189054906101000a900467ffffffffffffffff1667ffffffffffffffff1610156111bc578160000160109054906101000a900467ffffffffffffffff1667ffffffffffffffff16816110b391906150a2565b9050600160009054906101000a900473ffffffffffffffffffffffffffffffffffffffff1673ffffffffffffffffffffffffffffffffffffffff1663a9059cbb338460000160109054906101000a900467ffffffffffffffff166040518363ffffffff1660e01b815260040161112a929190614a1e565b602060405180830381600087803b15801561114457600080fd5b505af1158015611158573d6000803e3d6000fd5b505050506040513d601f19601f8201168201806040525081019061117c91906140cd565b6111bb576040517f08c379a00000000000000000000000000000000000000000000000000000000081526004016111b290614c83565b60405180910390fd5b5b600160009054906101000a900473ffffffffffffffffffffffffffffffffffffffff1673ffffffffffffffffffffffffffffffffffffffff1663a9059cbb8360070160009054906101000a900473ffffffffffffffffffffffffffffffffffffffff16836040518363ffffffff1660e01b815260040161123d929190614995565b602060405180830381600087803b15801561125757600080fd5b505af115801561126b573d6000803e3d6000fd5b505050506040513d601f19601f8201168201806040525081019061128f91906140cd565b6112ce576040517f08c379a00000000000000000000000000000000000000000000000000000000081526004016112c590614d23565b60405180910390fd5b60028260030160006101000a81548160ff0219169083600381111561131c577f4e487b7100000000000000000000000000000000000000000000000000000000600052602160045260246000fd5b0217905550505050565b60006003811115611360577f4e487b7100000000000000000000000000000000000000000000000000000000600052602160045260246000fd5b600560008363ffffffff1663ffffffff16815260200190815260200160002060030160009054906101000a900460ff1660038111156113c8577f4e487b7100000000000000000000000000000000000000000000000000000000600052602160045260246000fd5b14611408576040517f08c379a00000000000000000000000000000000000000000000000000000000081526004016113ff90614b03565b60405180910390fd5b6000600360003373ffffffffffffffffffffffffffffffffffffffff1673ffffffffffffffffffffffffffffffffffffffff1681526020019081526020016000208054611454906152ae565b80601f0160208091040260200160405190810160405280929190818152602001828054611480906152ae565b80156114cd5780601f106114a2576101008083540402835291602001916114cd565b820191906000526020600020905b8154815290600101906020018083116114b057829003601f168201915b50505050509050600081511415611519576040517f08c379a000000000000000000000000000000000000000000000000000000000815260040161151090614d03565b60405180910390fd5b6000600560008463ffffffff1663ffffffff1681526020019081526020016000206006018054806020026020016040519081016040528092919081815260200182805480156115bd57602002820191906000526020600020905b8160009054906101000a900473ffffffffffffffffffffffffffffffffffffffff1673ffffffffffffffffffffffffffffffffffffffff1681526020019060010190808311611573575b5050505050905060005b8151811015611690573373ffffffffffffffffffffffffffffffffffffffff16828281518110611620577f4e487b7100000000000000000000000000000000000000000000000000000000600052603260045260246000fd5b602002602001015173ffffffffffffffffffffffffffffffffffffffff16141561167f576040517f08c379a000000000000000000000000000000000000000000000000000000000815260040161167690614ae3565b60405180910390fd5b8061168990615311565b90506115c7565b50600560008463ffffffff1663ffffffff168152602001908152602001600020600601339080600181540180825580915050600190039060005260206000200160009091909190916101000a81548173ffffffffffffffffffffffffffffffffffffffff021916908373ffffffffffffffffffffffffffffffffffffffff160217905550600560008463ffffffff1663ffffffff168152602001908152602001600020600001600481819054906101000a900463ffffffff16809291906117569061535a565b91906101000a81548163ffffffff021916908363ffffffff16021790555050505050565b611782613c6d565b6000600460008373ffffffffffffffffffffffffffffffffffffffff1673ffffffffffffffffffffffffffffffffffffffff16815260200190815260200160002060006101000a81548160ff02191690831515021790555050565b606060011515600460003373ffffffffffffffffffffffffffffffffffffffff1673ffffffffffffffffffffffffffffffffffffffff16815260200190815260200160002060009054906101000a900460ff16151514611872576040517f08c379a000000000000000000000000000000000000000000000000000000000815260040161186990614d63565b60405180910390fd5b6000606060005b600160189054906101000a900463ffffffff1663ffffffff168163ffffffff161015611937573373ffffffffffffffffffffffffffffffffffffffff16600560008363ffffffff1663ffffffff16815260200190815260200160002060010160009054906101000a900473ffffffffffffffffffffffffffffffffffffffff1673ffffffffffffffffffffffffffffffffffffffff1614156119245782806119209061535a565b9350505b808061192f9061535a565b915050611879565b5060008263ffffffff161115611f71578163ffffffff1667ffffffffffffffff81111561198d577f4e487b7100000000000000000000000000000000000000000000000000000000600052604160045260246000fd5b6040519080825280602002602001820160405280156119c657816020015b6119b3613ddb565b8152602001906001900390816119ab5790505b5090506000805b600160189054906101000a900463ffffffff1663ffffffff168163ffffffff16108015611a0557508363ffffffff168263ffffffff16105b15611f6e573373ffffffffffffffffffffffffffffffffffffffff16600560008363ffffffff1663ffffffff16815260200190815260200160002060010160009054906101000a900473ffffffffffffffffffffffffffffffffffffffff1673ffffffffffffffffffffffffffffffffffffffff161415611f5b57600560008263ffffffff1663ffffffff168152602001908152602001600020604051806101800160405290816000820160009054906101000a900463ffffffff1663ffffffff1663ffffffff1681526020016000820160049054906101000a900463ffffffff1663ffffffff1663ffffffff1681526020016000820160089054906101000a900467ffffffffffffffff1667ffffffffffffffff1667ffffffffffffffff1681526020016000820160109054906101000a900467ffffffffffffffff1667ffffffffffffffff1667ffffffffffffffff1681526020016000820160189054906101000a900467ffffffffffffffff1667ffffffffffffffff1667ffffffffffffffff1681526020016001820160009054906101000a900473ffffffffffffffffffffffffffffffffffffffff1673ffffffffffffffffffffffffffffffffffffffff1673ffffffffffffffffffffffffffffffffffffffff168152602001600282018054611bf3906152ae565b80601f0160208091040260200160405190810160405280929190818152602001828054611c1f906152ae565b8015611c6c5780601f10611c4157610100808354040283529160200191611c6c565b820191906000526020600020905b815481529060010190602001808311611c4f57829003601f168201915b505050505081526020016003820160009054906101000a900460ff166003811115611cc0577f4e487b7100000000000000000000000000000000000000000000000000000000600052602160045260246000fd5b6003811115611cf8577f4e487b7100000000000000000000000000000000000000000000000000000000600052602160045260246000fd5b8152602001600482018054611d0c906152ae565b80601f0160208091040260200160405190810160405280929190818152602001828054611d38906152ae565b8015611d855780601f10611d5a57610100808354040283529160200191611d85565b820191906000526020600020905b815481529060010190602001808311611d6857829003601f168201915b50505050508152602001600582018054611d9e906152ae565b80601f0160208091040260200160405190810160405280929190818152602001828054611dca906152ae565b8015611e175780601f10611dec57610100808354040283529160200191611e17565b820191906000526020600020905b815481529060010190602001808311611dfa57829003601f168201915b5050505050815260200160068201805480602002602001604051908101604052809291908181526020018280548015611ea557602002820191906000526020600020905b8160009054906101000a900473ffffffffffffffffffffffffffffffffffffffff1673ffffffffffffffffffffffffffffffffffffffff1681526020019060010190808311611e5b575b505050505081526020016007820160009054906101000a900473ffffffffffffffffffffffffffffffffffffffff1673ffffffffffffffffffffffffffffffffffffffff1673ffffffffffffffffffffffffffffffffffffffff1681525050838380611f109061535a565b945063ffffffff1681518110611f4f577f4e487b7100000000000000000000000000000000000000000000000000000000600052603260045260246000fd5b60200260200101819052505b8080611f669061535a565b9150506119cd565b50505b809250505090565b60011515600460003373ffffffffffffffffffffffffffffffffffffffff1673ffffffffffffffffffffffffffffffffffffffff16815260200190815260200160002060009054906101000a900460ff1615151461200c576040517f08c379a000000000000000000000000000000000000000000000000000000000815260040161200390614d63565b60405180910390fd5b600160009054906101000a900473ffffffffffffffffffffffffffffffffffffffff1673ffffffffffffffffffffffffffffffffffffffff166323b872dd3330866040518463ffffffff1660e01b815260040161206b939291906149be565b602060405180830381600087803b15801561208557600080fd5b505af1158015612099573d6000803e3d6000fd5b505050506040513d601f19601f820116820180604052508101906120bd91906140cd565b6120fc576040517f08c379a00000000000000000000000000000000000000000000000000000000081526004016120f390614ce3565b60405180910390fd5b600060056000600160189054906101000a900463ffffffff1663ffffffff1663ffffffff1681526020019081526020016000209050600160189054906101000a900463ffffffff168160000160006101000a81548163ffffffff021916908363ffffffff1602179055506001601881819054906101000a900463ffffffff166121849061535a565b91906101000a81548163ffffffff021916908363ffffffff160217905550848160050190805190602001906121ba929190613eca565b50338160010160006101000a81548173ffffffffffffffffffffffffffffffffffffffff021916908373ffffffffffffffffffffffffffffffffffffffff16021790555086816002019080519060200190612216929190613eca565b5060008160030160006101000a81548160ff02191690836003811115612265577f4e487b7100000000000000000000000000000000000000000000000000000000600052602160045260246000fd5b021790555085816004019080519060200190612282929190613eca565b5060006001601c9054906101000a900463ffffffff1663ffffffff166064866122ab919061502f565b6122b59190615060565b905080856122c3919061510a565b94508067ffffffffffffffff16600260008282546122e19190614fd9565b92505081905550848260000160086101000a81548167ffffffffffffffff021916908367ffffffffffffffff160217905550838260000160106101000a81548167ffffffffffffffff021916908367ffffffffffffffff160217905550828260000160186101000a81548167ffffffffffffffff021916908367ffffffffffffffff16021790555060008260000160046101000a81548163ffffffff021916908363ffffffff1602179055507f057cbe8fb32dc8225325e6dfab00e083f52f3650c1601f362091046653f79f2e60018060189054906101000a900463ffffffff166123cc91906150d6565b888787876040516123e1959493929190614db9565b60405180910390a15050505050505050565b60011515600460003373ffffffffffffffffffffffffffffffffffffffff1673ffffffffffffffffffffffffffffffffffffffff16815260200190815260200160002060009054906101000a900460ff16151514612486576040517f08c379a000000000000000000000000000000000000000000000000000000000815260040161247d90614d63565b60405180910390fd5b6000600560008463ffffffff1663ffffffff1681526020019081526020016000209050600060038111156124e3577f4e487b7100000000000000000000000000000000000000000000000000000000600052602160045260246000fd5b8160030160009054906101000a900460ff16600381111561252d577f4e487b7100000000000000000000000000000000000000000000000000000000600052602160045260246000fd5b14806125ba57506001600381111561256e577f4e487b7100000000000000000000000000000000000000000000000000000000600052602160045260246000fd5b8160030160009054906101000a900460ff1660038111156125b8577f4e487b7100000000000000000000000000000000000000000000000000000000600052602160045260246000fd5b145b6125f9576040517f08c379a00000000000000000000000000000000000000000000000000000000081526004016125f090614b63565b60405180910390fd5b8060010160009054906101000a900473ffffffffffffffffffffffffffffffffffffffff1673ffffffffffffffffffffffffffffffffffffffff163373ffffffffffffffffffffffffffffffffffffffff161461268b576040517f08c379a000000000000000000000000000000000000000000000000000000000815260040161268290614ca3565b60405180910390fd5b428160000160189054906101000a900467ffffffffffffffff1667ffffffffffffffff16106126ef576040517f08c379a00000000000000000000000000000000000000000000000000000000081526004016126e690614c63565b60405180910390fd5b60006001151583151514156128425760058260000160089054906101000a900467ffffffffffffffff16612723919061502f565b67ffffffffffffffff169050600160009054906101000a900473ffffffffffffffffffffffffffffffffffffffff1673ffffffffffffffffffffffffffffffffffffffff1663a9059cbb8360070160009054906101000a900473ffffffffffffffffffffffffffffffffffffffff16836040518363ffffffff1660e01b81526004016127b0929190614995565b602060405180830381600087803b1580156127ca57600080fd5b505af11580156127de573d6000803e3d6000fd5b505050506040513d601f19601f8201168201806040525081019061280291906140cd565b612841576040517f08c379a000000000000000000000000000000000000000000000000000000000815260040161283890614d23565b60405180910390fd5b5b600160009054906101000a900473ffffffffffffffffffffffffffffffffffffffff1673ffffffffffffffffffffffffffffffffffffffff1663a9059cbb33838560000160089054906101000a900467ffffffffffffffff1667ffffffffffffffff166128af91906150a2565b6040518363ffffffff1660e01b81526004016128cc9291906149f5565b602060405180830381600087803b1580156128e657600080fd5b505af11580156128fa573d6000803e3d6000fd5b505050506040513d601f19601f8201168201806040525081019061291e91906140cd565b61295d576040517f08c379a000000000000000000000000000000000000000000000000000000000815260040161295490614b43565b60405180910390fd5b60038260030160006101000a81548160ff021916908360038111156129ab577f4e487b7100000000000000000000000000000000000000000000000000000000600052602160045260246000fd5b021790555050505050565b6001601c9054906101000a900463ffffffff1681565b60025481565b60008060019054906101000a900460ff16159050808015612a035750600160008054906101000a900460ff1660ff16105b80612a305750612a1230613db0565b158015612a2f5750600160008054906101000a900460ff1660ff16145b5b612a6f576040517f08c379a0000000000000000000000000000000000000000000000000000000008152600401612a6690614be3565b60405180910390fd5b60016000806101000a81548160ff021916908360ff1602179055508015612aac576001600060016101000a81548160ff0219169083151502179055505b612ab4613c6d565b82600160006101000a81548173ffffffffffffffffffffffffffffffffffffffff021916908373ffffffffffffffffffffffffffffffffffffffff1602179055506001600460003373ffffffffffffffffffffffffffffffffffffffff1673ffffffffffffffffffffffffffffffffffffffff16815260200190815260200160002060006101000a81548160ff02191690831515021790555060326001601c9054906101000a900463ffffffff1663ffffffff1610612ba8576040517f08c379a0000000000000000000000000000000000000000000000000000000008152600401612b9f90614bc3565b60405180910390fd5b816001601c6101000a81548163ffffffff021916908363ffffffff1602179055508015612c225760008060016101000a81548160ff0219169083151502179055507f7f26b83ff96e1f2b6a682f133852f6798a09c465da95921460cefb38474024986001604051612c199190614aa6565b60405180910390a15b505050565b612c2f613c6d565b6001600460008373ffffffffffffffffffffffffffffffffffffffff1673ffffffffffffffffffffffffffffffffffffffff16815260200190815260200160002060006101000a81548160ff02191690831515021790555050565b612c92613c6d565b600060025411612cd7576040517f08c379a0000000000000000000000000000000000000000000000000000000008152600401612cce90614ba3565b60405180910390fd5b6000600281905550600160009054906101000a900473ffffffffffffffffffffffffffffffffffffffff1673ffffffffffffffffffffffffffffffffffffffff1663a9059cbb336002546040518363ffffffff1660e01b8152600401612d3e9291906149f5565b602060405180830381600087803b158015612d5857600080fd5b505af1158015612d6c573d6000803e3d6000fd5b505050506040513d601f19601f82011682018060405250810190612d9091906140cd565b612dcf576040517f08c379a0000000000000000000000000000000000000000000000000000000008152600401612dc690614c43565b60405180910390fd5b565b60606000805b600160189054906101000a900463ffffffff1663ffffffff168163ffffffff161015612e93573373ffffffffffffffffffffffffffffffffffffffff16600560008363ffffffff1663ffffffff16815260200190815260200160002060070160009054906101000a900473ffffffffffffffffffffffffffffffffffffffff1673ffffffffffffffffffffffffffffffffffffffff161415612e82578180612e7e9061535a565b9250505b80612e8c9061535a565b9050612dd7565b5060008163ffffffff1667ffffffffffffffff811115612edc577f4e487b7100000000000000000000000000000000000000000000000000000000600052604160045260246000fd5b604051908082528060200260200182016040528015612f1557816020015b612f02613ddb565b815260200190600190039081612efa5790505b5090506000805b600160189054906101000a900463ffffffff1663ffffffff168163ffffffff1610156134a6573373ffffffffffffffffffffffffffffffffffffffff16600560008363ffffffff1663ffffffff16815260200190815260200160002060070160009054906101000a900473ffffffffffffffffffffffffffffffffffffffff1673ffffffffffffffffffffffffffffffffffffffff16141561349557600560008263ffffffff1663ffffffff168152602001908152602001600020604051806101800160405290816000820160009054906101000a900463ffffffff1663ffffffff1663ffffffff1681526020016000820160049054906101000a900463ffffffff1663ffffffff1663ffffffff1681526020016000820160089054906101000a900467ffffffffffffffff1667ffffffffffffffff1667ffffffffffffffff1681526020016000820160109054906101000a900467ffffffffffffffff1667ffffffffffffffff1667ffffffffffffffff1681526020016000820160189054906101000a900467ffffffffffffffff1667ffffffffffffffff1667ffffffffffffffff1681526020016001820160009054906101000a900473ffffffffffffffffffffffffffffffffffffffff1673ffffffffffffffffffffffffffffffffffffffff1673ffffffffffffffffffffffffffffffffffffffff16815260200160028201805461312b906152ae565b80601f0160208091040260200160405190810160405280929190818152602001828054613157906152ae565b80156131a45780601f10613179576101008083540402835291602001916131a4565b820191906000526020600020905b81548152906001019060200180831161318757829003601f168201915b505050505081526020016003820160009054906101000a900460ff1660038111156131f8577f4e487b7100000000000000000000000000000000000000000000000000000000600052602160045260246000fd5b6003811115613230577f4e487b7100000000000000000000000000000000000000000000000000000000600052602160045260246000fd5b8152602001600482018054613244906152ae565b80601f0160208091040260200160405190810160405280929190818152602001828054613270906152ae565b80156132bd5780601f10613292576101008083540402835291602001916132bd565b820191906000526020600020905b8154815290600101906020018083116132a057829003601f168201915b505050505081526020016005820180546132d6906152ae565b80601f0160208091040260200160405190810160405280929190818152602001828054613302906152ae565b801561334f5780601f106133245761010080835404028352916020019161334f565b820191906000526020600020905b81548152906001019060200180831161333257829003601f168201915b50505050508152602001600682018054806020026020016040519081016040528092919081815260200182805480156133dd57602002820191906000526020600020905b8160009054906101000a900473ffffffffffffffffffffffffffffffffffffffff1673ffffffffffffffffffffffffffffffffffffffff1681526020019060010190808311613393575b505050505081526020016007820160009054906101000a900473ffffffffffffffffffffffffffffffffffffffff1673ffffffffffffffffffffffffffffffffffffffff1673ffffffffffffffffffffffffffffffffffffffff1681525050838363ffffffff168151811061347b577f4e487b7100000000000000000000000000000000000000000000000000000000600052603260045260246000fd5b602002602001018190525081806134919061535a565b9250505b8061349f9061535a565b9050612f1c565b5081935050505090565b60011515600460003373ffffffffffffffffffffffffffffffffffffffff1673ffffffffffffffffffffffffffffffffffffffff16815260200190815260200160002060009054906101000a900460ff16151514613543576040517f08c379a000000000000000000000000000000000000000000000000000000000815260040161353a90614d63565b60405180910390fd5b600560008363ffffffff1663ffffffff16815260200190815260200160002060010160009054906101000a900473ffffffffffffffffffffffffffffffffffffffff1673ffffffffffffffffffffffffffffffffffffffff163373ffffffffffffffffffffffffffffffffffffffff16146135f3576040517f08c379a00000000000000000000000000000000000000000000000000000000081526004016135ea90614b83565b60405180910390fd5b80600560008463ffffffff1663ffffffff16815260200190815260200160002060070160006101000a81548173ffffffffffffffffffffffffffffffffffffffff021916908373ffffffffffffffffffffffffffffffffffffffff1602179055506001600560008463ffffffff1663ffffffff16815260200190815260200160002060030160006101000a81548160ff021916908360038111156136c0577f4e487b7100000000000000000000000000000000000000000000000000000000600052602160045260246000fd5b02179055505050565b606060011515600460003373ffffffffffffffffffffffffffffffffffffffff1673ffffffffffffffffffffffffffffffffffffffff16815260200190815260200160002060009054906101000a900460ff1615151461375e576040517f08c379a000000000000000000000000000000000000000000000000000000000815260040161375590614d63565b60405180910390fd5b600360008373ffffffffffffffffffffffffffffffffffffffff1673ffffffffffffffffffffffffffffffffffffffff16815260200190815260200160002080546137a8906152ae565b80601f01602080910402602001604051908101604052809291908181526020018280546137d4906152ae565b80156138215780601f106137f657610100808354040283529160200191613821565b820191906000526020600020905b81548152906001019060200180831161380457829003601f168201915b50505050509050919050565b6000600360003373ffffffffffffffffffffffffffffffffffffffff1673ffffffffffffffffffffffffffffffffffffffff1681526020019081526020016000208054613879906152ae565b9050146138bb576040517f08c379a00000000000000000000000000000000000000000000000000000000081526004016138b290614cc3565b60405180910390fd5b80600360003373ffffffffffffffffffffffffffffffffffffffff1673ffffffffffffffffffffffffffffffffffffffff168152602001908152602001600020908051906020019061390e929190613eca565b506001601481819054906101000a900463ffffffff1661392d9061535a565b91906101000a81548163ffffffff021916908363ffffffff16021790555050565b613956613c6d565b600073ffffffffffffffffffffffffffffffffffffffff168173ffffffffffffffffffffffffffffffffffffffff1614156139c6576040517f08c379a00000000000000000000000000000000000000000000000000000000081526004016139bd90614b23565b60405180910390fd5b6139cf81613ceb565b50565b60056020528060005260406000206000915090508060000160009054906101000a900463ffffffff16908060000160049054906101000a900463ffffffff16908060000160089054906101000a900467ffffffffffffffff16908060000160109054906101000a900467ffffffffffffffff16908060000160189054906101000a900467ffffffffffffffff16908060010160009054906101000a900473ffffffffffffffffffffffffffffffffffffffff1690806002018054613a95906152ae565b80601f0160208091040260200160405190810160405280929190818152602001828054613ac1906152ae565b8015613b0e5780601f10613ae357610100808354040283529160200191613b0e565b820191906000526020600020905b815481529060010190602001808311613af157829003601f168201915b5050505050908060030160009054906101000a900460ff1690806004018054613b36906152ae565b80601f0160208091040260200160405190810160405280929190818152602001828054613b62906152ae565b8015613baf5780601f10613b8457610100808354040283529160200191613baf565b820191906000526020600020905b815481529060010190602001808311613b9257829003601f168201915b505050505090806005018054613bc4906152ae565b80601f0160208091040260200160405190810160405280929190818152602001828054613bf0906152ae565b8015613c3d5780601f10613c1257610100808354040283529160200191613c3d565b820191906000526020600020905b815481529060010190602001808311613c2057829003601f168201915b5050505050908060070160009054906101000a900473ffffffffffffffffffffffffffffffffffffffff1690508b565b613c75613dd3565b73ffffffffffffffffffffffffffffffffffffffff16613c93610dff565b73ffffffffffffffffffffffffffffffffffffffff1614613ce9576040517f08c379a0000000000000000000000000000000000000000000000000000000008152600401613ce090614c23565b60405180910390fd5b565b60008060029054906101000a900473ffffffffffffffffffffffffffffffffffffffff16905081600060026101000a81548173ffffffffffffffffffffffffffffffffffffffff021916908373ffffffffffffffffffffffffffffffffffffffff1602179055508173ffffffffffffffffffffffffffffffffffffffff168173ffffffffffffffffffffffffffffffffffffffff167f8be0079c531659141344cd1fd0a4f28419497f9722a3daafe3b4186f6b6457e060405160405180910390a35050565b6000808273ffffffffffffffffffffffffffffffffffffffff163b119050919050565b600033905090565b604051806101800160405280600063ffffffff168152602001600063ffffffff168152602001600067ffffffffffffffff168152602001600067ffffffffffffffff168152602001600067ffffffffffffffff168152602001600073ffffffffffffffffffffffffffffffffffffffff1681526020016060815260200160006003811115613e92577f4e487b7100000000000000000000000000000000000000000000000000000000600052602160045260246000fd5b8152602001606081526020016060815260200160608152602001600073ffffffffffffffffffffffffffffffffffffffff1681525090565b828054613ed6906152ae565b90600052602060002090601f016020900481019282613ef85760008555613f3f565b82601f10613f1157805160ff1916838001178555613f3f565b82800160010185558215613f3f579182015b82811115613f3e578251825591602001919060010190613f23565b5b509050613f4c9190613f50565b5090565b5b80821115613f69576000816000905550600101613f51565b5090565b6000613f80613f7b84614ef8565b614ed3565b905082815260208101848484011115613f9857600080fd5b613fa384828561526c565b509392505050565b600081359050613fba81615a7a565b92915050565b600081359050613fcf81615a91565b92915050565b600081359050613fe481615aa8565b92915050565b600081519050613ff981615aa8565b92915050565b600082601f83011261401057600080fd5b8135614020848260208601613f6d565b91505092915050565b60008151905061403881615abf565b92915050565b60008135905061404d81615ad6565b92915050565b60008135905061406281615aed565b92915050565b60006020828403121561407a57600080fd5b600061408884828501613fab565b91505092915050565b600080604083850312156140a457600080fd5b60006140b285828601613fc0565b92505060206140c38582860161403e565b9150509250929050565b6000602082840312156140df57600080fd5b60006140ed84828501613fea565b91505092915050565b60006020828403121561410857600080fd5b600082013567ffffffffffffffff81111561412257600080fd5b61412e84828501613fff565b91505092915050565b60008060008060008060c0878903121561415057600080fd5b600087013567ffffffffffffffff81111561416a57600080fd5b61417689828a01613fff565b965050602087013567ffffffffffffffff81111561419357600080fd5b61419f89828a01613fff565b955050604087013567ffffffffffffffff8111156141bc57600080fd5b6141c889828a01613fff565b94505060606141d989828a01614053565b93505060806141ea89828a01614053565b92505060a06141fb89828a01614053565b9150509295509295509295565b60006020828403121561421a57600080fd5b600061422884828501614029565b91505092915050565b60006020828403121561424357600080fd5b60006142518482850161403e565b91505092915050565b6000806040838503121561426d57600080fd5b600061427b8582860161403e565b925050602061428c85828601613fab565b9150509250929050565b600080604083850312156142a957600080fd5b60006142b78582860161403e565b92505060206142c885828601613fd5565b9150509250929050565b60006142de838361432b565b60208301905092915050565b60006142f68383614807565b905092915050565b614307816151dc565b82525050565b61431681615150565b82525050565b61432581615150565b82525050565b6143348161513e565b82525050565b6143438161513e565b82525050565b600061435482614f49565b61435e8185614f84565b935061436983614f29565b8060005b8381101561439a57815161438188826142d2565b975061438c83614f6a565b92505060018101905061436d565b5085935050505092915050565b60006143b282614f49565b6143bc8185614f95565b93506143c783614f29565b8060005b838110156143f85781516143df88826142d2565b97506143ea83614f6a565b9250506001810190506143cb565b5085935050505092915050565b600061441082614f54565b61441a8185614fa6565b93508360208202850161442c85614f39565b8060005b85811015614468578484038952815161444985826142ea565b945061445483614f77565b925060208a01995050600181019050614430565b50829750879550505050505092915050565b614483816151ee565b82525050565b61449281615212565b82525050565b6144a181615212565b82525050565b6144b081615224565b82525050565b60006144c182614f5f565b6144cb8185614fb7565b93506144db81856020860161527b565b6144e481615472565b840191505092915050565b60006144fa82614f5f565b6145048185614fc8565b935061451481856020860161527b565b61451d81615472565b840191505092915050565b6000614535602583614fc8565b915061454082615483565b604082019050919050565b6000614558602483614fc8565b9150614563826154d2565b604082019050919050565b600061457b602683614fc8565b915061458682615521565b604082019050919050565b600061459e604083614fc8565b91506145a982615570565b604082019050919050565b60006145c1602783614fc8565b91506145cc826155bf565b604082019050919050565b60006145e4603483614fc8565b91506145ef8261560e565b604082019050919050565b6000614607602783614fc8565b91506146128261565d565b604082019050919050565b600061462a602683614fc8565b9150614635826156ac565b604082019050919050565b600061464d602e83614fc8565b9150614658826156fb565b604082019050919050565b6000614670603083614fc8565b915061467b8261574a565b604082019050919050565b6000614693602083614fc8565b915061469e82615799565b602082019050919050565b60006146b6602983614fc8565b91506146c1826157c2565b604082019050919050565b60006146d9602f83614fc8565b91506146e482615811565b604082019050919050565b60006146fc602683614fc8565b915061470782615860565b604082019050919050565b600061471f602883614fc8565b915061472a826158af565b604082019050919050565b6000614742601a83614fc8565b915061474d826158fe565b602082019050919050565b6000614765603183614fc8565b915061477082615927565b604082019050919050565b6000614788601f83614fc8565b915061479382615976565b602082019050919050565b60006147ab602183614fc8565b91506147b68261599f565b604082019050919050565b60006147ce602a83614fc8565b91506147d9826159ee565b604082019050919050565b60006147f1601883614fc8565b91506147fc82615a3d565b602082019050919050565b600061018083016000830151614820600086018261492f565b506020830151614833602086018261492f565b506040830151614846604086018261495c565b506060830151614859606086018261495c565b50608083015161486c608086018261495c565b5060a083015161487f60a086018261430d565b5060c083015184820360c086015261489782826144b6565b91505060e08301516148ac60e0860182614489565b506101008301518482036101008601526148c682826144b6565b9150506101208301518482036101208601526148e282826144b6565b9150506101408301518482036101408601526148fe8282614349565b91505061016083015161491561016086018261430d565b508091505092915050565b614929816151a1565b82525050565b614938816151ab565b82525050565b614947816151ab565b82525050565b6149568161525a565b82525050565b614965816151bb565b82525050565b614974816151bb565b82525050565b600060208201905061498f600083018461433a565b92915050565b60006040820190506149aa60008301856142fe565b6149b76020830184614920565b9392505050565b60006060820190506149d3600083018661433a565b6149e0602083018561433a565b6149ed604083018461494d565b949350505050565b6000604082019050614a0a600083018561433a565b614a176020830184614920565b9392505050565b6000604082019050614a33600083018561433a565b614a40602083018461494d565b9392505050565b60006020820190508181036000830152614a6181846143a7565b905092915050565b60006020820190508181036000830152614a838184614405565b905092915050565b6000602082019050614aa0600083018461447a565b92915050565b6000602082019050614abb60008301846144a7565b92915050565b60006020820190508181036000830152614adb81846144ef565b905092915050565b60006020820190508181036000830152614afc81614528565b9050919050565b60006020820190508181036000830152614b1c8161454b565b9050919050565b60006020820190508181036000830152614b3c8161456e565b9050919050565b60006020820190508181036000830152614b5c81614591565b9050919050565b60006020820190508181036000830152614b7c816145b4565b9050919050565b60006020820190508181036000830152614b9c816145d7565b9050919050565b60006020820190508181036000830152614bbc816145fa565b9050919050565b60006020820190508181036000830152614bdc8161461d565b9050919050565b60006020820190508181036000830152614bfc81614640565b9050919050565b60006020820190508181036000830152614c1c81614663565b9050919050565b60006020820190508181036000830152614c3c81614686565b9050919050565b60006020820190508181036000830152614c5c816146a9565b9050919050565b60006020820190508181036000830152614c7c816146cc565b9050919050565b60006020820190508181036000830152614c9c816146ef565b9050919050565b60006020820190508181036000830152614cbc81614712565b9050919050565b60006020820190508181036000830152614cdc81614735565b9050919050565b60006020820190508181036000830152614cfc81614758565b9050919050565b60006020820190508181036000830152614d1c8161477b565b9050919050565b60006020820190508181036000830152614d3c8161479e565b9050919050565b60006020820190508181036000830152614d5c816147c1565b9050919050565b60006020820190508181036000830152614d7c816147e4565b9050919050565b6000602082019050614d986000830184614920565b92915050565b6000602082019050614db3600083018461493e565b92915050565b600060a082019050614dce600083018861493e565b8181036020830152614de081876144ef565b9050614def604083018661496b565b614dfc606083018561496b565b614e09608083018461496b565b9695505050505050565b600061016082019050614e29600083018e61493e565b614e36602083018d61493e565b614e43604083018c61496b565b614e50606083018b61496b565b614e5d608083018a61496b565b614e6a60a083018961431c565b81810360c0830152614e7c81886144ef565b9050614e8b60e0830187614498565b818103610100830152614e9e81866144ef565b9050818103610120830152614eb381856144ef565b9050614ec361014083018461431c565b9c9b505050505050505050505050565b6000614edd614eee565b9050614ee982826152e0565b919050565b6000604051905090565b600067ffffffffffffffff821115614f1357614f12615443565b5b614f1c82615472565b9050602081019050919050565b6000819050602082019050919050565b6000819050602082019050919050565b600081519050919050565b600081519050919050565b600081519050919050565b6000602082019050919050565b6000602082019050919050565b600082825260208201905092915050565b600082825260208201905092915050565b600082825260208201905092915050565b600082825260208201905092915050565b600082825260208201905092915050565b6000614fe4826151a1565b9150614fef836151a1565b9250827fffffffffffffffffffffffffffffffffffffffffffffffffffffffffffffffff0382111561502457615023615387565b5b828201905092915050565b600061503a826151bb565b9150615045836151bb565b925082615055576150546153b6565b5b828204905092915050565b600061506b826151bb565b9150615076836151bb565b92508167ffffffffffffffff048311821515161561509757615096615387565b5b828202905092915050565b60006150ad826151a1565b91506150b8836151a1565b9250828210156150cb576150ca615387565b5b828203905092915050565b60006150e1826151ab565b91506150ec836151ab565b9250828210156150ff576150fe615387565b5b828203905092915050565b6000615115826151bb565b9150615120836151bb565b92508282101561513357615132615387565b5b828203905092915050565b600061514982615181565b9050919050565b600061515b82615181565b9050919050565b60008115159050919050565b600081905061517c82615a66565b919050565b600073ffffffffffffffffffffffffffffffffffffffff82169050919050565b6000819050919050565b600063ffffffff82169050919050565b600067ffffffffffffffff82169050919050565b600060ff82169050919050565b60006151e782615236565b9050919050565b60006151f982615200565b9050919050565b600061520b82615181565b9050919050565b600061521d8261516e565b9050919050565b600061522f826151cf565b9050919050565b600061524182615248565b9050919050565b600061525382615181565b9050919050565b6000615265826151bb565b9050919050565b82818337600083830152505050565b60005b8381101561529957808201518184015260208101905061527e565b838111156152a8576000848401525b50505050565b600060028204905060018216806152c657607f821691505b602082108114156152da576152d9615414565b5b50919050565b6152e982615472565b810181811067ffffffffffffffff8211171561530857615307615443565b5b80604052505050565b600061531c826151a1565b91507fffffffffffffffffffffffffffffffffffffffffffffffffffffffffffffffff82141561534f5761534e615387565b5b600182019050919050565b6000615365826151ab565b915063ffffffff82141561537c5761537b615387565b5b600182019050919050565b7f4e487b7100000000000000000000000000000000000000000000000000000000600052601160045260246000fd5b7f4e487b7100000000000000000000000000000000000000000000000000000000600052601260045260246000fd5b7f4e487b7100000000000000000000000000000000000000000000000000000000600052602160045260246000fd5b7f4e487b7100000000000000000000000000000000000000000000000000000000600052602260045260246000fd5b7f4e487b7100000000000000000000000000000000000000000000000000000000600052604160045260246000fd5b6000601f19601f8301169050919050565b7f596f7520616c7265616479206170706c69656420666f7220746869732070726f60008201527f6a6563742e000000000000000000000000000000000000000000000000000000602082015250565b7f596f752063616e206f6e6c79206170706c7920746f206f70656e2070726f6a6560008201527f6374732e00000000000000000000000000000000000000000000000000000000602082015250565b7f4f776e61626c653a206e6577206f776e657220697320746865207a65726f206160008201527f6464726573730000000000000000000000000000000000000000000000000000602082015250565b7f5472616e73666572696e67206261636b2074686520746f6b656e73206f66207460008201527f6865206e6f7420636f6d706c657465642070726f6a656374206661696c65642e602082015250565b7f546869732070726f6a656374206973206e6f7420696e2070726f67726573206e60008201527f6f72206f70656e00000000000000000000000000000000000000000000000000602082015250565b7f596f752063616e206f6e6c7920616363657074206170706c6963616e7473206660008201527f6f7220796f7572206f776e2070726f6a6563742e000000000000000000000000602082015250565b7f4e6f20636f6d6d697373696f6e20617661696c61626c6520666f72207769746860008201527f64726177616c2e00000000000000000000000000000000000000000000000000602082015250565b7f54686520636f6d6d6973696f6e2068617320746f206265206c6573732074686160008201527f6e203530252e0000000000000000000000000000000000000000000000000000602082015250565b7f496e697469616c697a61626c653a20636f6e747261637420697320616c72656160008201527f647920696e697469616c697a6564000000000000000000000000000000000000602082015250565b7f5468652070726f6a656374206d75737420626520696e2070726f67726573732060008201527f746f2062652066696e616c697a65642e00000000000000000000000000000000602082015250565b7f4f776e61626c653a2063616c6c6572206973206e6f7420746865206f776e6572600082015250565b7f546865207472616e73666572206f6620636f6d6d697373696f6e20746f6b656e60008201527f73206661696c65642e0000000000000000000000000000000000000000000000602082015250565b7f54686520646561646c696e6520686173206e6f74207061737365642e2047697660008201527f6520697420736f6d652074696d652e0000000000000000000000000000000000602082015250565b7f546865207472616e73666572206f662070656e616c747920746f6b656e73206660008201527f61696c65642e0000000000000000000000000000000000000000000000000000602082015250565b7f596f752063616e206f6e6c792066696e616c697a6520796f7572206f776e207060008201527f726f6a656374732e000000000000000000000000000000000000000000000000602082015250565b7f596f752061726520616c72656164792072656769737465726564000000000000600082015250565b7f546865207472616e73666572206f662072657761726420746f2074686520636f60008201527f6e747261637420686173206661696c6564000000000000000000000000000000602082015250565b7f596f75206861766520746f206265207265676973746572656420666972737400600082015250565b7f546865207472616e73666572206f662074686520726577617264206661696c6560008201527f6400000000000000000000000000000000000000000000000000000000000000602082015250565b7f5468652061646472657373206d757374206861766520616e2061646d696e207260008201527f6f6c652066697273742e00000000000000000000000000000000000000000000602082015250565b7f4f6e6c792061646d696e732061726520616c6c6f776564210000000000000000600082015250565b60048110615a7757615a766153e5565b5b50565b615a838161513e565b8114615a8e57600080fd5b50565b615a9a81615150565b8114615aa557600080fd5b50565b615ab181615162565b8114615abc57600080fd5b50565b615ac8816151a1565b8114615ad357600080fd5b50565b615adf816151ab565b8114615aea57600080fd5b50565b615af6816151bb565b8114615b0157600080fd5b5056fea2646970667358221220517f581f42bfa35c23d3a8088427c7b56edb5f09419c663d13fe1135ff8cc69e64736f6c63430008020033",
	"linkReferences": {},
	"deployedLinkReferences": {}
}