{
	"_format": "hh-sol-artifact-1",
	"contractName": "WorkShare",
	"sourceName": "contracts/WorkShare.sol",
	"abi": [
		{
			"anonymous": false,
			"inputs": [
				{
					"indexed": false,
					"internalType": "uint32",
					"name": "nrOfProjects",
					"type": "uint32"
				},
				{
					"indexed": false,
					"internalType": "string",
					"name": "_requirementsDocumentCID",
					"type": "string"
				},
				{
					"indexed": false,
					"internalType": "uint64",
					"name": "_reward",
					"type": "uint64"
				},
				{
					"indexed": false,
					"internalType": "uint64",
					"name": "_penalty",
					"type": "uint64"
				},
				{
					"indexed": false,
					"internalType": "uint64",
					"name": "_deadline",
					"type": "uint64"
				}
			],
			"name": "CreateProjectEvent",
			"type": "event"
		},
		{
			"anonymous": false,
			"inputs": [
				{
					"indexed": false,
					"internalType": "uint8",
					"name": "version",
					"type": "uint8"
				}
			],
			"name": "Initialized",
			"type": "event"
		},
		{
			"anonymous": false,
			"inputs": [
				{
					"indexed": true,
					"internalType": "address",
					"name": "previousOwner",
					"type": "address"
				},
				{
					"indexed": true,
					"internalType": "address",
					"name": "newOwner",
					"type": "address"
				}
			],
			"name": "OwnershipTransferred",
			"type": "event"
		},
		{
			"inputs": [
				{
					"internalType": "uint32",
					"name": "_nrOfProject",
					"type": "uint32"
				},
				{
					"internalType": "address",
					"name": "_applicant",
					"type": "address"
				}
			],
			"name": "acceptApplication",
			"outputs": [],
			"stateMutability": "nonpayable",
			"type": "function"
		},
		{
			"inputs": [
				{
					"internalType": "uint32",
					"name": "_projectNumber",
					"type": "uint32"
				}
			],
			"name": "applyForProject",
			"outputs": [],
			"stateMutability": "nonpayable",
			"type": "function"
		},
		{
			"inputs": [
				{
					"internalType": "uint32",
					"name": "_projectNumber",
					"type": "uint32"
				},
				{
					"internalType": "address",
					"name": "_newManager",
					"type": "address"
				}
			],
			"name": "changeManagerOfProject",
			"outputs": [],
			"stateMutability": "nonpayable",
			"type": "function"
		},
		{
			"inputs": [
				{
					"internalType": "string",
					"name": "_requirementsDocumentCID",
					"type": "string"
				},
				{
					"internalType": "uint64",
					"name": "_reward",
					"type": "uint64"
				},
				{
					"internalType": "uint64",
					"name": "_penalty",
					"type": "uint64"
				},
				{
					"internalType": "uint64",
					"name": "_deadline",
					"type": "uint64"
				}
			],
			"name": "createProject",
			"outputs": [],
			"stateMutability": "nonpayable",
			"type": "function"
		},
		{
			"inputs": [
				{
					"internalType": "uint32",
					"name": "_projectNumber",
					"type": "uint32"
				}
			],
			"name": "finalizeProject",
			"outputs": [],
			"stateMutability": "nonpayable",
			"type": "function"
		},
		{
			"inputs": [
				{
					"internalType": "uint32",
					"name": "projectNumber",
					"type": "uint32"
				}
			],
			"name": "getAllApplicants",
			"outputs": [
				{
					"internalType": "address[]",
					"name": "",
					"type": "address[]"
				}
			],
			"stateMutability": "view",
			"type": "function"
		},
		{
			"inputs": [
				{
					"internalType": "string",
					"name": "str",
					"type": "string"
				}
			],
			"name": "getStringLenght",
			"outputs": [
				{
					"internalType": "uint256",
					"name": "",
					"type": "uint256"
				}
			],
			"stateMutability": "pure",
			"type": "function"
		},
		{
			"inputs": [
				{
					"internalType": "address",
					"name": "_admin",
					"type": "address"
				}
			],
			"name": "grantAdminRole",
			"outputs": [],
			"stateMutability": "nonpayable",
			"type": "function"
		},
		{
			"inputs": [
				{
					"internalType": "address payable",
					"name": "_token",
					"type": "address"
				}
			],
			"name": "initialize",
			"outputs": [],
			"stateMutability": "nonpayable",
			"type": "function"
		},
		{
			"inputs": [],
			"name": "nrOfDevelopers",
			"outputs": [
				{
					"internalType": "uint32",
					"name": "",
					"type": "uint32"
				}
			],
			"stateMutability": "view",
			"type": "function"
		},
		{
			"inputs": [],
			"name": "owner",
			"outputs": [
				{
					"internalType": "address",
					"name": "",
					"type": "address"
				}
			],
			"stateMutability": "view",
			"type": "function"
		},
		{
			"inputs": [
				{
					"internalType": "uint32",
					"name": "_projectNumber",
					"type": "uint32"
				},
				{
					"internalType": "bool",
					"name": "_effort",
					"type": "bool"
				}
			],
			"name": "projectNotCompleted",
			"outputs": [],
			"stateMutability": "nonpayable",
			"type": "function"
		},
		{
			"inputs": [
				{
					"internalType": "uint32",
					"name": "",
					"type": "uint32"
				}
			],
			"name": "projects",
			"outputs": [
				{
					"internalType": "address",
					"name": "manager",
					"type": "address"
				},
				{
					"internalType": "string",
					"name": "shortDescription",
					"type": "string"
				},
				{
					"internalType": "string",
					"name": "requirementsDocumentCID",
					"type": "string"
				},
				{
					"internalType": "uint64",
					"name": "reward",
					"type": "uint64"
				},
				{
					"internalType": "uint64",
					"name": "penalty",
					"type": "uint64"
				},
				{
					"internalType": "uint64",
					"name": "deadline",
					"type": "uint64"
				},
				{
					"internalType": "uint32",
					"name": "nrOfApplicants",
					"type": "uint32"
				},
				{
					"internalType": "address payable",
					"name": "acceptedDeveloper",
					"type": "address"
				}
			],
			"stateMutability": "view",
			"type": "function"
		},
		{
			"inputs": [
				{
					"internalType": "string",
					"name": "_email",
					"type": "string"
				}
			],
			"name": "register",
			"outputs": [],
			"stateMutability": "nonpayable",
			"type": "function"
		},
		{
			"inputs": [],
			"name": "renounceOwnership",
			"outputs": [],
			"stateMutability": "nonpayable",
			"type": "function"
		},
		{
			"inputs": [
				{
					"internalType": "address",
					"name": "_remove",
					"type": "address"
				}
			],
			"name": "revokeAdminRole",
			"outputs": [],
			"stateMutability": "nonpayable",
			"type": "function"
		},
		{
			"inputs": [
				{
					"internalType": "address",
					"name": "newOwner",
					"type": "address"
				}
			],
			"name": "transferOwnership",
			"outputs": [],
			"stateMutability": "nonpayable",
			"type": "function"
		},
		{
			"inputs": [],
			"name": "workShareToken",
			"outputs": [
				{
					"internalType": "contract IERC20",
					"name": "",
					"type": "address"
				}
			],
			"stateMutability": "view",
			"type": "function"
		}
	],
	"bytecode": "0x60806040523480156200001157600080fd5b5062000032620000266200003860201b60201c565b6200004060201b60201c565b62000105565b600033905090565b60008060029054906101000a900473ffffffffffffffffffffffffffffffffffffffff16905081600060026101000a81548173ffffffffffffffffffffffffffffffffffffffff021916908373ffffffffffffffffffffffffffffffffffffffff1602179055508173ffffffffffffffffffffffffffffffffffffffff168173ffffffffffffffffffffffffffffffffffffffff167f8be0079c531659141344cd1fd0a4f28419497f9722a3daafe3b4186f6b6457e060405160405180910390a35050565b6131b780620001156000396000f3fe608060405234801561001057600080fd5b50600436106101165760003560e01c80639a19c7b0116100a2578063e59de14d11610071578063e59de14d146102a3578063ed83d6a8146102bf578063f2c298be146102db578063f2fde38b146102f7578063ffd10afe1461031357610116565b80639a19c7b014610233578063b8211c091461024f578063c4d66de81461026b578063c634b78e1461028757610116565b80638298ec5c116100e95780638298ec5c1461018f5780638da5cb5b146101ad5780638f739260146101cb5780639537c4fd146101e757806396dcf88c1461021757610116565b8063187367411461011b5780631a6923ef14610137578063715018a614610167578063718fbe6c14610171575b600080fd5b61013560048036038101906101309190612206565b61034a565b005b610151600480360381019061014c91906121dd565b6104b7565b60405161015e91906126e3565b60405180910390f35b61016f610708565b005b610179610790565b6040516101869190612705565b60405180910390f35b6101976107b6565b6040516101a491906128f6565b60405180910390f35b6101b56107cc565b6040516101c2919061258a565b60405180910390f35b6101e560048036038101906101e091906121dd565b6107f5565b005b61020160048036038101906101fc9190612121565b610bfa565b60405161020e91906128db565b60405180910390f35b610231600480360381019061022c91906121dd565b610c0a565b005b61024d600480360381019061024891906120a6565b610e02565b005b61026960048036038101906102649190612242565b610ed9565b005b610285600480360381019061028091906120cf565b611317565b005b6102a1600480360381019061029c91906120a6565b6114e7565b005b6102bd60048036038101906102b89190612162565b6115be565b005b6102d960048036038101906102d49190612206565b611916565b005b6102f560048036038101906102f09190612121565b611abe565b005b610311600480360381019061030c91906120a6565b611b51565b005b61032d600480360381019061032891906121dd565b611c49565b604051610341989796959493929190612605565b60405180910390f35b610352611e2d565b73ffffffffffffffffffffffffffffffffffffffff166103706107cc565b73ffffffffffffffffffffffffffffffffffffffff16146103c6576040517f08c379a00000000000000000000000000000000000000000000000000000000081526004016103bd906127db565b60405180910390fd5b600360008273ffffffffffffffffffffffffffffffffffffffff1673ffffffffffffffffffffffffffffffffffffffff16815260200190815260200160002060009054906101000a900460ff16610452576040517f08c379a0000000000000000000000000000000000000000000000000000000008152600401610449906128bb565b60405180910390fd5b80600460008463ffffffff1663ffffffff16815260200190815260200160002060000160006101000a81548173ffffffffffffffffffffffffffffffffffffffff021916908373ffffffffffffffffffffffffffffffffffffffff1602179055505050565b606060011515600360003373ffffffffffffffffffffffffffffffffffffffff1673ffffffffffffffffffffffffffffffffffffffff16815260200190815260200160002060009054906101000a900460ff1615151461054c576040517f08c379a00000000000000000000000000000000000000000000000000000000081526004016105439061277b565b60405180910390fd5b6000600460008463ffffffff1663ffffffff16815260200190815260200160002060030160189054906101000a900463ffffffff16905060008163ffffffff1667ffffffffffffffff8111156105cb577f4e487b7100000000000000000000000000000000000000000000000000000000600052604160045260246000fd5b6040519080825280602002602001820160405280156105f95781602001602082028036833780820191505090505b50905060005b8263ffffffff168163ffffffff1610156106fd57600460008663ffffffff1663ffffffff16815260200190815260200160002060040160008263ffffffff1663ffffffff16815260200190815260200160002060009054906101000a900473ffffffffffffffffffffffffffffffffffffffff16828263ffffffff16815181106106b2577f4e487b7100000000000000000000000000000000000000000000000000000000600052603260045260246000fd5b602002602001019073ffffffffffffffffffffffffffffffffffffffff16908173ffffffffffffffffffffffffffffffffffffffff1681525050806106f690612c5d565b90506105ff565b508092505050919050565b610710611e2d565b73ffffffffffffffffffffffffffffffffffffffff1661072e6107cc565b73ffffffffffffffffffffffffffffffffffffffff1614610784576040517f08c379a000000000000000000000000000000000000000000000000000000000815260040161077b906127db565b60405180910390fd5b61078e6000611e35565b565b600160009054906101000a900473ffffffffffffffffffffffffffffffffffffffff1681565b600160149054906101000a900463ffffffff1681565b60008060029054906101000a900473ffffffffffffffffffffffffffffffffffffffff16905090565b60011515600360003373ffffffffffffffffffffffffffffffffffffffff1673ffffffffffffffffffffffffffffffffffffffff16815260200190815260200160002060009054906101000a900460ff16151514610888576040517f08c379a000000000000000000000000000000000000000000000000000000000815260040161087f9061277b565b60405180910390fd5b600460008263ffffffff1663ffffffff16815260200190815260200160002060000160009054906101000a900473ffffffffffffffffffffffffffffffffffffffff1673ffffffffffffffffffffffffffffffffffffffff163373ffffffffffffffffffffffffffffffffffffffff1614610938576040517f08c379a000000000000000000000000000000000000000000000000000000000815260040161092f9061281b565b60405180910390fd5b6000600460008363ffffffff1663ffffffff168152602001908152602001600020905060008160030160009054906101000a900467ffffffffffffffff1667ffffffffffffffff169050428260030160109054906101000a900467ffffffffffffffff1667ffffffffffffffff161015610ae3578160030160089054906101000a900467ffffffffffffffff1667ffffffffffffffff16816109da9190612a47565b9050600160009054906101000a900473ffffffffffffffffffffffffffffffffffffffff1673ffffffffffffffffffffffffffffffffffffffff1663a9059cbb338460030160089054906101000a900467ffffffffffffffff166040518363ffffffff1660e01b8152600401610a519291906126ba565b602060405180830381600087803b158015610a6b57600080fd5b505af1158015610a7f573d6000803e3d6000fd5b505050506040513d601f19601f82011682018060405250810190610aa391906120f8565b610ae2576040517f08c379a0000000000000000000000000000000000000000000000000000000008152600401610ad9906127fb565b60405180910390fd5b5b600160009054906101000a900473ffffffffffffffffffffffffffffffffffffffff1673ffffffffffffffffffffffffffffffffffffffff1663a9059cbb8360050160009054906101000a900473ffffffffffffffffffffffffffffffffffffffff16836040518363ffffffff1660e01b8152600401610b649291906125a5565b602060405180830381600087803b158015610b7e57600080fd5b505af1158015610b92573d6000803e3d6000fd5b505050506040513d601f19601f82011682018060405250810190610bb691906120f8565b610bf5576040517f08c379a0000000000000000000000000000000000000000000000000000000008152600401610bec9061287b565b60405180910390fd5b505050565b6000808290508051915050919050565b6000600260003373ffffffffffffffffffffffffffffffffffffffff1673ffffffffffffffffffffffffffffffffffffffff1681526020019081526020016000208054610c5690612bfa565b80601f0160208091040260200160405190810160405280929190818152602001828054610c8290612bfa565b8015610ccf5780601f10610ca457610100808354040283529160200191610ccf565b820191906000526020600020905b815481529060010190602001808311610cb257829003601f168201915b50505050509050600081511415610d1b576040517f08c379a0000000000000000000000000000000000000000000000000000000008152600401610d129061285b565b60405180910390fd5b6000600460008463ffffffff1663ffffffff168152602001908152602001600020600301601881819054906101000a900463ffffffff1680929190610d5f90612c5d565b91906101000a81548163ffffffff021916908363ffffffff160217905550905033600460008563ffffffff1663ffffffff16815260200190815260200160002060040160008363ffffffff1663ffffffff16815260200190815260200160002060006101000a81548173ffffffffffffffffffffffffffffffffffffffff021916908373ffffffffffffffffffffffffffffffffffffffff160217905550505050565b610e0a611e2d565b73ffffffffffffffffffffffffffffffffffffffff16610e286107cc565b73ffffffffffffffffffffffffffffffffffffffff1614610e7e576040517f08c379a0000000000000000000000000000000000000000000000000000000008152600401610e75906127db565b60405180910390fd5b6000600360008373ffffffffffffffffffffffffffffffffffffffff1673ffffffffffffffffffffffffffffffffffffffff16815260200190815260200160002060006101000a81548160ff02191690831515021790555050565b60011515600360003373ffffffffffffffffffffffffffffffffffffffff1673ffffffffffffffffffffffffffffffffffffffff16815260200190815260200160002060009054906101000a900460ff16151514610f6c576040517f08c379a0000000000000000000000000000000000000000000000000000000008152600401610f639061277b565b60405180910390fd5b600460008363ffffffff1663ffffffff16815260200190815260200160002060000160009054906101000a900473ffffffffffffffffffffffffffffffffffffffff1673ffffffffffffffffffffffffffffffffffffffff163373ffffffffffffffffffffffffffffffffffffffff161461101c576040517f08c379a00000000000000000000000000000000000000000000000000000000081526004016110139061281b565b60405180910390fd5b6000600460008463ffffffff1663ffffffff1681526020019081526020016000209050428160030160109054906101000a900467ffffffffffffffff1667ffffffffffffffff16116110a3576040517f08c379a000000000000000000000000000000000000000000000000000000000815260040161109a9061289b565b60405180910390fd5b60006001151583151514156111f65760058260030160009054906101000a900467ffffffffffffffff166110d79190612a16565b67ffffffffffffffff169050600160009054906101000a900473ffffffffffffffffffffffffffffffffffffffff1673ffffffffffffffffffffffffffffffffffffffff1663a9059cbb8360050160009054906101000a900473ffffffffffffffffffffffffffffffffffffffff16836040518363ffffffff1660e01b81526004016111649291906125a5565b602060405180830381600087803b15801561117e57600080fd5b505af1158015611192573d6000803e3d6000fd5b505050506040513d601f19601f820116820180604052508101906111b691906120f8565b6111f5576040517f08c379a00000000000000000000000000000000000000000000000000000000081526004016111ec9061287b565b60405180910390fd5b5b600160009054906101000a900473ffffffffffffffffffffffffffffffffffffffff1673ffffffffffffffffffffffffffffffffffffffff1663a9059cbb33838560030160009054906101000a900467ffffffffffffffff1667ffffffffffffffff166112639190612a47565b6040518363ffffffff1660e01b8152600401611280929190612691565b602060405180830381600087803b15801561129a57600080fd5b505af11580156112ae573d6000803e3d6000fd5b505050506040513d601f19601f820116820180604052508101906112d291906120f8565b611311576040517f08c379a00000000000000000000000000000000000000000000000000000000081526004016113089061275b565b60405180910390fd5b50505050565b60008060019054906101000a900460ff161590508080156113485750600160008054906101000a900460ff1660ff16105b80611375575061135730611efa565b1580156113745750600160008054906101000a900460ff1660ff16145b5b6113b4576040517f08c379a00000000000000000000000000000000000000000000000000000000081526004016113ab906127bb565b60405180910390fd5b60016000806101000a81548160ff021916908360ff16021790555080156113f1576001600060016101000a81548160ff0219169083151502179055505b81600160006101000a81548173ffffffffffffffffffffffffffffffffffffffff021916908373ffffffffffffffffffffffffffffffffffffffff1602179055506001600360003373ffffffffffffffffffffffffffffffffffffffff1673ffffffffffffffffffffffffffffffffffffffff16815260200190815260200160002060006101000a81548160ff02191690831515021790555080156114e35760008060016101000a81548160ff0219169083151502179055507f7f26b83ff96e1f2b6a682f133852f6798a09c465da95921460cefb384740249860016040516114da9190612720565b60405180910390a15b5050565b6114ef611e2d565b73ffffffffffffffffffffffffffffffffffffffff1661150d6107cc565b73ffffffffffffffffffffffffffffffffffffffff1614611563576040517f08c379a000000000000000000000000000000000000000000000000000000000815260040161155a906127db565b60405180910390fd5b6001600360008373ffffffffffffffffffffffffffffffffffffffff1673ffffffffffffffffffffffffffffffffffffffff16815260200190815260200160002060006101000a81548160ff02191690831515021790555050565b60011515600360003373ffffffffffffffffffffffffffffffffffffffff1673ffffffffffffffffffffffffffffffffffffffff16815260200190815260200160002060009054906101000a900460ff16151514611651576040517f08c379a00000000000000000000000000000000000000000000000000000000081526004016116489061277b565b60405180910390fd5b600160009054906101000a900473ffffffffffffffffffffffffffffffffffffffff1673ffffffffffffffffffffffffffffffffffffffff166323b872dd3330866040518463ffffffff1660e01b81526004016116b0939291906125ce565b602060405180830381600087803b1580156116ca57600080fd5b505af11580156116de573d6000803e3d6000fd5b505050506040513d601f19601f8201168201806040525081019061170291906120f8565b611741576040517f08c379a00000000000000000000000000000000000000000000000000000000081526004016117389061283b565b60405180910390fd5b600060046000600160189054906101000a900463ffffffff1663ffffffff1663ffffffff16815260200190815260200160002090506001601881819054906101000a900463ffffffff1661179490612c5d565b91906101000a81548163ffffffff021916908363ffffffff160217905550338160000160006101000a81548173ffffffffffffffffffffffffffffffffffffffff021916908373ffffffffffffffffffffffffffffffffffffffff1602179055508481600201908051906020019061180d929190611f1d565b50838160030160006101000a81548167ffffffffffffffff021916908367ffffffffffffffff160217905550828160030160086101000a81548167ffffffffffffffff021916908367ffffffffffffffff160217905550818160030160106101000a81548167ffffffffffffffff021916908367ffffffffffffffff16021790555060008160030160186101000a81548163ffffffff021916908363ffffffff1602179055507f057cbe8fb32dc8225325e6dfab00e083f52f3650c1601f362091046653f79f2e60018060189054906101000a900463ffffffff166118f29190612a7b565b86868686604051611907959493929190612911565b60405180910390a15050505050565b60011515600360003373ffffffffffffffffffffffffffffffffffffffff1673ffffffffffffffffffffffffffffffffffffffff16815260200190815260200160002060009054906101000a900460ff161515146119a9576040517f08c379a00000000000000000000000000000000000000000000000000000000081526004016119a09061277b565b60405180910390fd5b600460008363ffffffff1663ffffffff16815260200190815260200160002060000160009054906101000a900473ffffffffffffffffffffffffffffffffffffffff1673ffffffffffffffffffffffffffffffffffffffff163373ffffffffffffffffffffffffffffffffffffffff1614611a59576040517f08c379a0000000000000000000000000000000000000000000000000000000008152600401611a509061279b565b60405180910390fd5b80600460008463ffffffff1663ffffffff16815260200190815260200160002060050160006101000a81548173ffffffffffffffffffffffffffffffffffffffff021916908373ffffffffffffffffffffffffffffffffffffffff1602179055505050565b80600260003373ffffffffffffffffffffffffffffffffffffffff1673ffffffffffffffffffffffffffffffffffffffff1681526020019081526020016000209080519060200190611b11929190611f1d565b506001601481819054906101000a900463ffffffff16611b3090612c5d565b91906101000a81548163ffffffff021916908363ffffffff16021790555050565b611b59611e2d565b73ffffffffffffffffffffffffffffffffffffffff16611b776107cc565b73ffffffffffffffffffffffffffffffffffffffff1614611bcd576040517f08c379a0000000000000000000000000000000000000000000000000000000008152600401611bc4906127db565b60405180910390fd5b600073ffffffffffffffffffffffffffffffffffffffff168173ffffffffffffffffffffffffffffffffffffffff161415611c3d576040517f08c379a0000000000000000000000000000000000000000000000000000000008152600401611c349061273b565b60405180910390fd5b611c4681611e35565b50565b60046020528060005260406000206000915090508060000160009054906101000a900473ffffffffffffffffffffffffffffffffffffffff1690806001018054611c9290612bfa565b80601f0160208091040260200160405190810160405280929190818152602001828054611cbe90612bfa565b8015611d0b5780601f10611ce057610100808354040283529160200191611d0b565b820191906000526020600020905b815481529060010190602001808311611cee57829003601f168201915b505050505090806002018054611d2090612bfa565b80601f0160208091040260200160405190810160405280929190818152602001828054611d4c90612bfa565b8015611d995780601f10611d6e57610100808354040283529160200191611d99565b820191906000526020600020905b815481529060010190602001808311611d7c57829003601f168201915b5050505050908060030160009054906101000a900467ffffffffffffffff16908060030160089054906101000a900467ffffffffffffffff16908060030160109054906101000a900467ffffffffffffffff16908060030160189054906101000a900463ffffffff16908060050160009054906101000a900473ffffffffffffffffffffffffffffffffffffffff16905088565b600033905090565b60008060029054906101000a900473ffffffffffffffffffffffffffffffffffffffff16905081600060026101000a81548173ffffffffffffffffffffffffffffffffffffffff021916908373ffffffffffffffffffffffffffffffffffffffff1602179055508173ffffffffffffffffffffffffffffffffffffffff168173ffffffffffffffffffffffffffffffffffffffff167f8be0079c531659141344cd1fd0a4f28419497f9722a3daafe3b4186f6b6457e060405160405180910390a35050565b6000808273ffffffffffffffffffffffffffffffffffffffff163b119050919050565b828054611f2990612bfa565b90600052602060002090601f016020900481019282611f4b5760008555611f92565b82601f10611f6457805160ff1916838001178555611f92565b82800160010185558215611f92579182015b82811115611f91578251825591602001919060010190611f76565b5b509050611f9f9190611fa3565b5090565b5b80821115611fbc576000816000905550600101611fa4565b5090565b6000611fd3611fce84612990565b61296b565b905082815260208101848484011115611feb57600080fd5b611ff6848285612bb8565b509392505050565b60008135905061200d8161310e565b92915050565b60008135905061202281613125565b92915050565b6000813590506120378161313c565b92915050565b60008151905061204c8161313c565b92915050565b600082601f83011261206357600080fd5b8135612073848260208601611fc0565b91505092915050565b60008135905061208b81613153565b92915050565b6000813590506120a08161316a565b92915050565b6000602082840312156120b857600080fd5b60006120c684828501611ffe565b91505092915050565b6000602082840312156120e157600080fd5b60006120ef84828501612013565b91505092915050565b60006020828403121561210a57600080fd5b60006121188482850161203d565b91505092915050565b60006020828403121561213357600080fd5b600082013567ffffffffffffffff81111561214d57600080fd5b61215984828501612052565b91505092915050565b6000806000806080858703121561217857600080fd5b600085013567ffffffffffffffff81111561219257600080fd5b61219e87828801612052565b94505060206121af87828801612091565b93505060406121c087828801612091565b92505060606121d187828801612091565b91505092959194509250565b6000602082840312156121ef57600080fd5b60006121fd8482850161207c565b91505092915050565b6000806040838503121561221957600080fd5b60006122278582860161207c565b925050602061223885828601611ffe565b9150509250929050565b6000806040838503121561225557600080fd5b60006122638582860161207c565b925050602061227485828601612028565b9150509250929050565b600061228a83836122b4565b60208301905092915050565b61229f81612b3a565b82525050565b6122ae81612ac1565b82525050565b6122bd81612aaf565b82525050565b6122cc81612aaf565b82525050565b60006122dd826129d1565b6122e781856129f4565b93506122f2836129c1565b8060005b8381101561232357815161230a888261227e565b9750612315836129e7565b9250506001810190506122f6565b5085935050505092915050565b61233981612b4c565b82525050565b61234881612b70565b82525050565b6000612359826129dc565b6123638185612a05565b9350612373818560208601612bc7565b61237c81612d46565b840191505092915050565b6000612394602683612a05565b915061239f82612d57565b604082019050919050565b60006123b7604083612a05565b91506123c282612da6565b604082019050919050565b60006123da602383612a05565b91506123e582612df5565b604082019050919050565b60006123fd603483612a05565b915061240882612e44565b604082019050919050565b6000612420602e83612a05565b915061242b82612e93565b604082019050919050565b6000612443602083612a05565b915061244e82612ee2565b602082019050919050565b6000612466602683612a05565b915061247182612f0b565b604082019050919050565b6000612489602883612a05565b915061249482612f5a565b604082019050919050565b60006124ac603183612a05565b91506124b782612fa9565b604082019050919050565b60006124cf601f83612a05565b91506124da82612ff8565b602082019050919050565b60006124f2602183612a05565b91506124fd82613021565b604082019050919050565b6000612515602e83612a05565b915061252082613070565b604082019050919050565b6000612538602383612a05565b9150612543826130bf565b604082019050919050565b61255781612aff565b82525050565b61256681612b09565b82525050565b61257581612ba6565b82525050565b61258481612b19565b82525050565b600060208201905061259f60008301846122c3565b92915050565b60006040820190506125ba6000830185612296565b6125c7602083018461254e565b9392505050565b60006060820190506125e360008301866122c3565b6125f060208301856122c3565b6125fd604083018461256c565b949350505050565b60006101008201905061261b600083018b6122c3565b818103602083015261262d818a61234e565b90508181036040830152612641818961234e565b9050612650606083018861257b565b61265d608083018761257b565b61266a60a083018661257b565b61267760c083018561255d565b61268460e08301846122a5565b9998505050505050505050565b60006040820190506126a660008301856122c3565b6126b3602083018461254e565b9392505050565b60006040820190506126cf60008301856122c3565b6126dc602083018461256c565b9392505050565b600060208201905081810360008301526126fd81846122d2565b905092915050565b600060208201905061271a6000830184612330565b92915050565b6000602082019050612735600083018461233f565b92915050565b6000602082019050818103600083015261275481612387565b9050919050565b60006020820190508181036000830152612774816123aa565b9050919050565b60006020820190508181036000830152612794816123cd565b9050919050565b600060208201905081810360008301526127b4816123f0565b9050919050565b600060208201905081810360008301526127d481612413565b9050919050565b600060208201905081810360008301526127f481612436565b9050919050565b6000602082019050818103600083015261281481612459565b9050919050565b600060208201905081810360008301526128348161247c565b9050919050565b600060208201905081810360008301526128548161249f565b9050919050565b60006020820190508181036000830152612874816124c2565b9050919050565b60006020820190508181036000830152612894816124e5565b9050919050565b600060208201905081810360008301526128b481612508565b9050919050565b600060208201905081810360008301526128d48161252b565b9050919050565b60006020820190506128f0600083018461254e565b92915050565b600060208201905061290b600083018461255d565b92915050565b600060a082019050612926600083018861255d565b8181036020830152612938818761234e565b9050612947604083018661257b565b612954606083018561257b565b612961608083018461257b565b9695505050505050565b6000612975612986565b90506129818282612c2c565b919050565b6000604051905090565b600067ffffffffffffffff8211156129ab576129aa612d17565b5b6129b482612d46565b9050602081019050919050565b6000819050602082019050919050565b600081519050919050565b600081519050919050565b6000602082019050919050565b600082825260208201905092915050565b600082825260208201905092915050565b6000612a2182612b19565b9150612a2c83612b19565b925082612a3c57612a3b612cb9565b5b828204905092915050565b6000612a5282612aff565b9150612a5d83612aff565b925082821015612a7057612a6f612c8a565b5b828203905092915050565b6000612a8682612b09565b9150612a9183612b09565b925082821015612aa457612aa3612c8a565b5b828203905092915050565b6000612aba82612adf565b9050919050565b6000612acc82612adf565b9050919050565b60008115159050919050565b600073ffffffffffffffffffffffffffffffffffffffff82169050919050565b6000819050919050565b600063ffffffff82169050919050565b600067ffffffffffffffff82169050919050565b600060ff82169050919050565b6000612b4582612b82565b9050919050565b6000612b5782612b5e565b9050919050565b6000612b6982612adf565b9050919050565b6000612b7b82612b2d565b9050919050565b6000612b8d82612b94565b9050919050565b6000612b9f82612adf565b9050919050565b6000612bb182612b19565b9050919050565b82818337600083830152505050565b60005b83811015612be5578082015181840152602081019050612bca565b83811115612bf4576000848401525b50505050565b60006002820490506001821680612c1257607f821691505b60208210811415612c2657612c25612ce8565b5b50919050565b612c3582612d46565b810181811067ffffffffffffffff82111715612c5457612c53612d17565b5b80604052505050565b6000612c6882612b09565b915063ffffffff821415612c7f57612c7e612c8a565b5b600182019050919050565b7f4e487b7100000000000000000000000000000000000000000000000000000000600052601160045260246000fd5b7f4e487b7100000000000000000000000000000000000000000000000000000000600052601260045260246000fd5b7f4e487b7100000000000000000000000000000000000000000000000000000000600052602260045260246000fd5b7f4e487b7100000000000000000000000000000000000000000000000000000000600052604160045260246000fd5b6000601f19601f8301169050919050565b7f4f776e61626c653a206e6577206f776e657220697320746865207a65726f206160008201527f6464726573730000000000000000000000000000000000000000000000000000602082015250565b7f5472616e73666572696e67206261636b2074686520746f6b656e73206f66207460008201527f6865206e6f7420636f6d706c657465642070726f6a656374206661696c65642e602082015250565b7f4f6e6c792061646d696e732061726520616c6c6f77656420746f20646f20746860008201527f6973210000000000000000000000000000000000000000000000000000000000602082015250565b7f596f752063616e206f6e6c7920616363657074206170706c6963616e7473206660008201527f6f7220796f7572206f776e2070726f6a6563742e000000000000000000000000602082015250565b7f496e697469616c697a61626c653a20636f6e747261637420697320616c72656160008201527f647920696e697469616c697a6564000000000000000000000000000000000000602082015250565b7f4f776e61626c653a2063616c6c6572206973206e6f7420746865206f776e6572600082015250565b7f546865207472616e73666572206f662070656e616c747920746f6b656e73206660008201527f61696c65642e0000000000000000000000000000000000000000000000000000602082015250565b7f596f752063616e206f6e6c792066696e616c697a6520796f7572206f776e207060008201527f726f6a656374732e000000000000000000000000000000000000000000000000602082015250565b7f546865207472616e73666572206f662072657761726420746f2074686520636f60008201527f6e747261637420686173206661696c6564000000000000000000000000000000602082015250565b7f596f75206861766520746f206265207265676973746572656420666972737400600082015250565b7f546865207472616e73666572206f662074686520726577617264206661696c6560008201527f6400000000000000000000000000000000000000000000000000000000000000602082015250565b7f54686520646561646c696e6520686173206e6f74207061737365642e2047697660008201527f6520697420736f6d652074696d65000000000000000000000000000000000000602082015250565b7f5468652061646472657373206d75737420626520616e2061646d696e2066697260008201527f73742e0000000000000000000000000000000000000000000000000000000000602082015250565b61311781612aaf565b811461312257600080fd5b50565b61312e81612ac1565b811461313957600080fd5b50565b61314581612ad3565b811461315057600080fd5b50565b61315c81612b09565b811461316757600080fd5b50565b61317381612b19565b811461317e57600080fd5b5056fea2646970667358221220113203fc7cfdefc1288eacc5be4641e15e13f0acaa290f8cfb2032ba169ac40e64736f6c63430008020033",
	"linkReferences": {},
	"deployedLinkReferences": {}
}