{
	"_format": "hh-sol-artifact-1",
	"contractName": "WorkShare",
	"sourceName": "contracts/WorkShare.sol",
	"abi": [
		{
			"anonymous": false,
			"inputs": [
				{
					"indexed": false,
					"internalType": "uint32",
					"name": "nrOfProjects",
					"type": "uint32"
				},
				{
					"indexed": false,
					"internalType": "string",
					"name": "_requirementsDocumentCID",
					"type": "string"
				},
				{
					"indexed": false,
					"internalType": "uint64",
					"name": "_reward",
					"type": "uint64"
				},
				{
					"indexed": false,
					"internalType": "uint64",
					"name": "_penalty",
					"type": "uint64"
				},
				{
					"indexed": false,
					"internalType": "uint64",
					"name": "_deadline",
					"type": "uint64"
				}
			],
			"name": "CreateProjectEvent",
			"type": "event"
		},
		{
			"anonymous": false,
			"inputs": [
				{
					"indexed": false,
					"internalType": "uint8",
					"name": "version",
					"type": "uint8"
				}
			],
			"name": "Initialized",
			"type": "event"
		},
		{
			"anonymous": false,
			"inputs": [
				{
					"indexed": true,
					"internalType": "address",
					"name": "previousOwner",
					"type": "address"
				},
				{
					"indexed": true,
					"internalType": "address",
					"name": "newOwner",
					"type": "address"
				}
			],
			"name": "OwnershipTransferred",
			"type": "event"
		},
		{
			"inputs": [
				{
					"internalType": "uint32",
					"name": "_nrOfProject",
					"type": "uint32"
				},
				{
					"internalType": "address",
					"name": "_applicant",
					"type": "address"
				}
			],
			"name": "acceptApplication",
			"outputs": [],
			"stateMutability": "nonpayable",
			"type": "function"
		},
		{
			"inputs": [
				{
					"internalType": "uint32",
					"name": "_projectNumber",
					"type": "uint32"
				}
			],
			"name": "applyForProject",
			"outputs": [],
			"stateMutability": "nonpayable",
			"type": "function"
		},
		{
			"inputs": [
				{
					"internalType": "uint32",
					"name": "_projectNumber",
					"type": "uint32"
				},
				{
					"internalType": "address",
					"name": "_newManager",
					"type": "address"
				}
			],
			"name": "changeManagerOfProject",
			"outputs": [],
			"stateMutability": "nonpayable",
			"type": "function"
		},
		{
			"inputs": [],
			"name": "commision",
			"outputs": [
				{
					"internalType": "uint32",
					"name": "",
					"type": "uint32"
				}
			],
			"stateMutability": "view",
			"type": "function"
		},
		{
			"inputs": [
				{
					"internalType": "string",
					"name": "_shortDescription",
					"type": "string"
				},
				{
					"internalType": "string",
					"name": "_requirementsDocumentCID",
					"type": "string"
				},
				{
					"internalType": "string",
					"name": "_nftCID",
					"type": "string"
				},
				{
					"internalType": "uint64",
					"name": "_reward",
					"type": "uint64"
				},
				{
					"internalType": "uint64",
					"name": "_penalty",
					"type": "uint64"
				},
				{
					"internalType": "uint64",
					"name": "_deadline",
					"type": "uint64"
				}
			],
			"name": "createProject",
			"outputs": [],
			"stateMutability": "nonpayable",
			"type": "function"
		},
		{
			"inputs": [
				{
					"internalType": "uint32",
					"name": "_projectNumber",
					"type": "uint32"
				}
			],
			"name": "finalizeProject",
			"outputs": [],
			"stateMutability": "nonpayable",
			"type": "function"
		},
		{
			"inputs": [
				{
					"internalType": "uint32",
					"name": "projectNumber",
					"type": "uint32"
				}
			],
			"name": "getAllApplicants",
			"outputs": [
				{
					"internalType": "address[]",
					"name": "",
					"type": "address[]"
				}
			],
			"stateMutability": "view",
			"type": "function"
		},
		{
			"inputs": [
				{
					"internalType": "address",
					"name": "_address",
					"type": "address"
				}
			],
			"name": "getEmailOfDeveloper",
			"outputs": [
				{
					"internalType": "string",
					"name": "",
					"type": "string"
				}
			],
			"stateMutability": "view",
			"type": "function"
		},
		{
			"inputs": [],
			"name": "getMyBalance",
			"outputs": [
				{
					"internalType": "uint256",
					"name": "",
					"type": "uint256"
				}
			],
			"stateMutability": "view",
			"type": "function"
		},
		{
			"inputs": [],
			"name": "getOpenProjects",
			"outputs": [
				{
					"components": [
						{
							"internalType": "uint32",
							"name": "id",
							"type": "uint32"
						},
						{
							"internalType": "uint32",
							"name": "nrOfApplicants",
							"type": "uint32"
						},
						{
							"internalType": "uint64",
							"name": "reward",
							"type": "uint64"
						},
						{
							"internalType": "uint64",
							"name": "penalty",
							"type": "uint64"
						},
						{
							"internalType": "uint64",
							"name": "deadline",
							"type": "uint64"
						},
						{
							"internalType": "address payable",
							"name": "manager",
							"type": "address"
						},
						{
							"internalType": "string",
							"name": "shortDescription",
							"type": "string"
						},
						{
							"internalType": "enum WorkShare.State",
							"name": "state",
							"type": "uint8"
						},
						{
							"internalType": "string",
							"name": "requirementsDocumentCID",
							"type": "string"
						},
						{
							"internalType": "string",
							"name": "nftCID",
							"type": "string"
						},
						{
							"internalType": "address[]",
							"name": "applicants",
							"type": "address[]"
						},
						{
							"internalType": "address payable",
							"name": "acceptedDeveloper",
							"type": "address"
						}
					],
					"internalType": "struct WorkShare.Project[]",
					"name": "",
					"type": "tuple[]"
				}
			],
			"stateMutability": "view",
			"type": "function"
		},
		{
			"inputs": [
				{
					"internalType": "address",
					"name": "_admin",
					"type": "address"
				}
			],
			"name": "grantAdminRole",
			"outputs": [],
			"stateMutability": "nonpayable",
			"type": "function"
		},
		{
			"inputs": [
				{
					"internalType": "address payable",
					"name": "_token",
					"type": "address"
				},
				{
					"internalType": "address",
					"name": "_nft",
					"type": "address"
				},
				{
					"internalType": "uint32",
					"name": "_commision",
					"type": "uint32"
				}
			],
			"name": "initialize",
			"outputs": [],
			"stateMutability": "nonpayable",
			"type": "function"
		},
		{
			"inputs": [
				{
					"internalType": "address",
					"name": "recipient",
					"type": "address"
				},
				{
					"internalType": "string",
					"name": "tokenURI",
					"type": "string"
				}
			],
			"name": "mintNFT",
			"outputs": [
				{
					"internalType": "uint256",
					"name": "",
					"type": "uint256"
				}
			],
			"stateMutability": "nonpayable",
			"type": "function"
		},
		{
			"inputs": [],
			"name": "nrOfDevelopers",
			"outputs": [
				{
					"internalType": "uint32",
					"name": "",
					"type": "uint32"
				}
			],
			"stateMutability": "view",
			"type": "function"
		},
		{
			"inputs": [],
			"name": "owner",
			"outputs": [
				{
					"internalType": "address",
					"name": "",
					"type": "address"
				}
			],
			"stateMutability": "view",
			"type": "function"
		},
		{
			"inputs": [
				{
					"internalType": "uint32",
					"name": "_projectNumber",
					"type": "uint32"
				},
				{
					"internalType": "bool",
					"name": "_effort",
					"type": "bool"
				}
			],
			"name": "projectNotCompleted",
			"outputs": [],
			"stateMutability": "nonpayable",
			"type": "function"
		},
		{
			"inputs": [
				{
					"internalType": "uint32",
					"name": "",
					"type": "uint32"
				}
			],
			"name": "projects",
			"outputs": [
				{
					"internalType": "uint32",
					"name": "id",
					"type": "uint32"
				},
				{
					"internalType": "uint32",
					"name": "nrOfApplicants",
					"type": "uint32"
				},
				{
					"internalType": "uint64",
					"name": "reward",
					"type": "uint64"
				},
				{
					"internalType": "uint64",
					"name": "penalty",
					"type": "uint64"
				},
				{
					"internalType": "uint64",
					"name": "deadline",
					"type": "uint64"
				},
				{
					"internalType": "address payable",
					"name": "manager",
					"type": "address"
				},
				{
					"internalType": "string",
					"name": "shortDescription",
					"type": "string"
				},
				{
					"internalType": "enum WorkShare.State",
					"name": "state",
					"type": "uint8"
				},
				{
					"internalType": "string",
					"name": "requirementsDocumentCID",
					"type": "string"
				},
				{
					"internalType": "string",
					"name": "nftCID",
					"type": "string"
				},
				{
					"internalType": "address payable",
					"name": "acceptedDeveloper",
					"type": "address"
				}
			],
			"stateMutability": "view",
			"type": "function"
		},
		{
			"inputs": [
				{
					"internalType": "string",
					"name": "_email",
					"type": "string"
				}
			],
			"name": "register",
			"outputs": [],
			"stateMutability": "nonpayable",
			"type": "function"
		},
		{
			"inputs": [],
			"name": "renounceOwnership",
			"outputs": [],
			"stateMutability": "nonpayable",
			"type": "function"
		},
		{
			"inputs": [
				{
					"internalType": "address",
					"name": "_remove",
					"type": "address"
				}
			],
			"name": "revokeAdminRole",
			"outputs": [],
			"stateMutability": "nonpayable",
			"type": "function"
		},
		{
			"inputs": [],
			"name": "totalCommission",
			"outputs": [
				{
					"internalType": "uint256",
					"name": "",
					"type": "uint256"
				}
			],
			"stateMutability": "view",
			"type": "function"
		},
		{
			"inputs": [
				{
					"internalType": "address",
					"name": "newOwner",
					"type": "address"
				}
			],
			"name": "transferOwnership",
			"outputs": [],
			"stateMutability": "nonpayable",
			"type": "function"
		},
		{
			"inputs": [],
			"name": "withdrawCommision",
			"outputs": [],
			"stateMutability": "nonpayable",
			"type": "function"
		},
		{
			"inputs": [],
			"name": "workShareToken",
			"outputs": [
				{
					"internalType": "contract IERC20",
					"name": "",
					"type": "address"
				}
			],
			"stateMutability": "view",
			"type": "function"
		}
	],
	"bytecode": "0x60806040523480156200001157600080fd5b5062000032620000266200003860201b60201c565b6200004060201b60201c565b62000105565b600033905090565b60008060029054906101000a900473ffffffffffffffffffffffffffffffffffffffff16905081600060026101000a81548173ffffffffffffffffffffffffffffffffffffffff021916908373ffffffffffffffffffffffffffffffffffffffff1602179055508173ffffffffffffffffffffffffffffffffffffffff168173ffffffffffffffffffffffffffffffffffffffff167f8be0079c531659141344cd1fd0a4f28419497f9722a3daafe3b4186f6b6457e060405160405180910390a35050565b614e0d80620001156000396000f3fe608060405234801561001057600080fd5b50600436106101585760003560e01c8063b5261a1b116100c3578063eacabe141161007c578063eacabe1414610353578063ed83d6a814610383578063f078494a1461039f578063f2c298be146103cf578063f2fde38b146103eb578063ffd10afe1461040757610158565b8063b5261a1b146102b9578063b8211c09146102d5578063b95edbf9146102f1578063c0320dbc1461030f578063c634b78e1461032d578063d7f9094d1461034957610158565b8063718fbe6c11610115578063718fbe6c1461020b5780638298ec5c146102295780638da5cb5b146102475780638f7392601461026557806396dcf88c146102815780639a19c7b01461029d57610158565b8063187367411461015d5780631910f96a146101795780631a6923ef146101975780634c738909146101c75780636ecf2b22146101e5578063715018a614610201575b600080fd5b610177600480360381019061017291906134fd565b610441565b005b61018161053a565b60405161018e9190613d3c565b60405180910390f35b6101b160048036038101906101ac91906134d4565b610ae2565b6040516101be9190613d1a565b60405180910390f35b6101cf610c25565b6040516101dc9190614056565b60405180910390f35b6101ff60048036038101906101fa91906132cd565b610cd7565b005b610209610f6e565b005b610213610f82565b6040516102209190613d5e565b60405180910390f35b610231610fa8565b60405161023e9190614071565b60405180910390f35b61024f610fbe565b60405161025c9190613c1d565b60405180910390f35b61027f600480360381019061027a91906134d4565b610fe7565b005b61029b600480360381019061029691906134d4565b6114e5565b005b6102b760048036038101906102b291906132a4565b611939565b005b6102d360048036038101906102ce91906133da565b61199c565b005b6102ef60048036038101906102ea9190613539565b611e17565b005b6102f96123da565b6040516103069190614071565b60405180910390f35b6103176123f0565b6040516103249190614056565b60405180910390f35b610347600480360381019061034291906132a4565b6123f6565b005b610351612459565b005b61036d6004803603810190610368919061331c565b6125a0565b60405161037a9190614056565b60405180910390f35b61039d600480360381019061039891906134fd565b6126ec565b005b6103b960048036038101906103b491906132a4565b612905565b6040516103c69190613d94565b60405180910390f35b6103e960048036038101906103e49190613399565b612a69565b005b610405600480360381019061040091906132a4565b612b8a565b005b610421600480360381019061041c91906134d4565b612c0e565b6040516104389b9a999897969594939291906140e6565b60405180910390f35b610449612ea9565b600560008273ffffffffffffffffffffffffffffffffffffffff1673ffffffffffffffffffffffffffffffffffffffff16815260200190815260200160002060009054906101000a900460ff166104d5576040517f08c379a00000000000000000000000000000000000000000000000000000000081526004016104cc90614016565b60405180910390fd5b80600660008463ffffffff1663ffffffff16815260200190815260200160002060010160006101000a81548173ffffffffffffffffffffffffffffffffffffffff021916908373ffffffffffffffffffffffffffffffffffffffff1602179055505050565b60606000600260189054906101000a900463ffffffff1663ffffffff1667ffffffffffffffff811115610596577f4e487b7100000000000000000000000000000000000000000000000000000000600052604160045260246000fd5b6040519080825280602002602001820160405280156105cf57816020015b6105bc613017565b8152602001906001900390816105b45790505b50905060005b600260189054906101000a900463ffffffff1663ffffffff168163ffffffff161015610ada57600660008263ffffffff1663ffffffff168152602001908152602001600020604051806101800160405290816000820160009054906101000a900463ffffffff1663ffffffff1663ffffffff1681526020016000820160049054906101000a900463ffffffff1663ffffffff1663ffffffff1681526020016000820160089054906101000a900467ffffffffffffffff1667ffffffffffffffff1667ffffffffffffffff1681526020016000820160109054906101000a900467ffffffffffffffff1667ffffffffffffffff1667ffffffffffffffff1681526020016000820160189054906101000a900467ffffffffffffffff1667ffffffffffffffff1667ffffffffffffffff1681526020016001820160009054906101000a900473ffffffffffffffffffffffffffffffffffffffff1673ffffffffffffffffffffffffffffffffffffffff1673ffffffffffffffffffffffffffffffffffffffff16815260200160028201805461076e90614581565b80601f016020809104026020016040519081016040528092919081815260200182805461079a90614581565b80156107e75780601f106107bc576101008083540402835291602001916107e7565b820191906000526020600020905b8154815290600101906020018083116107ca57829003601f168201915b505050505081526020016003820160009054906101000a900460ff16600381111561083b577f4e487b7100000000000000000000000000000000000000000000000000000000600052602160045260246000fd5b6003811115610873577f4e487b7100000000000000000000000000000000000000000000000000000000600052602160045260246000fd5b815260200160048201805461088790614581565b80601f01602080910402602001604051908101604052809291908181526020018280546108b390614581565b80156109005780601f106108d557610100808354040283529160200191610900565b820191906000526020600020905b8154815290600101906020018083116108e357829003601f168201915b5050505050815260200160058201805461091990614581565b80601f016020809104026020016040519081016040528092919081815260200182805461094590614581565b80156109925780601f1061096757610100808354040283529160200191610992565b820191906000526020600020905b81548152906001019060200180831161097557829003601f168201915b5050505050815260200160068201805480602002602001604051908101604052809291908181526020018280548015610a2057602002820191906000526020600020905b8160009054906101000a900473ffffffffffffffffffffffffffffffffffffffff1673ffffffffffffffffffffffffffffffffffffffff16815260200190600101908083116109d6575b505050505081526020016007820160009054906101000a900473ffffffffffffffffffffffffffffffffffffffff1673ffffffffffffffffffffffffffffffffffffffff1673ffffffffffffffffffffffffffffffffffffffff1681525050828263ffffffff1681518110610abe577f4e487b7100000000000000000000000000000000000000000000000000000000600052603260045260246000fd5b602002602001018190525080610ad39061462d565b90506105d5565b508091505090565b606060011515600560003373ffffffffffffffffffffffffffffffffffffffff1673ffffffffffffffffffffffffffffffffffffffff16815260200190815260200160002060009054906101000a900460ff16151514610b77576040517f08c379a0000000000000000000000000000000000000000000000000000000008152600401610b6e90614036565b60405180910390fd5b600660008363ffffffff1663ffffffff168152602001908152602001600020600601805480602002602001604051908101604052809291908181526020018280548015610c1957602002820191906000526020600020905b8160009054906101000a900473ffffffffffffffffffffffffffffffffffffffff1673ffffffffffffffffffffffffffffffffffffffff1681526020019060010190808311610bcf575b50505050509050919050565b6000600160009054906101000a900473ffffffffffffffffffffffffffffffffffffffff1673ffffffffffffffffffffffffffffffffffffffff166370a08231336040518263ffffffff1660e01b8152600401610c829190613c1d565b60206040518083038186803b158015610c9a57600080fd5b505afa158015610cae573d6000803e3d6000fd5b505050506040513d601f19601f82011682018060405250810190610cd291906134ab565b905090565b60008060019054906101000a900460ff16159050808015610d085750600160008054906101000a900460ff1660ff16105b80610d355750610d1730612f27565b158015610d345750600160008054906101000a900460ff1660ff16145b5b610d74576040517f08c379a0000000000000000000000000000000000000000000000000000000008152600401610d6b90613eb6565b60405180910390fd5b60016000806101000a81548160ff021916908360ff1602179055508015610db1576001600060016101000a81548160ff0219169083151502179055505b610db9612ea9565b83600160006101000a81548173ffffffffffffffffffffffffffffffffffffffff021916908373ffffffffffffffffffffffffffffffffffffffff16021790555082600260006101000a81548173ffffffffffffffffffffffffffffffffffffffff021916908373ffffffffffffffffffffffffffffffffffffffff1602179055506001600560003373ffffffffffffffffffffffffffffffffffffffff1673ffffffffffffffffffffffffffffffffffffffff16815260200190815260200160002060006101000a81548160ff02191690831515021790555060326002601c9054906101000a900463ffffffff1663ffffffff1610610eee576040517f08c379a0000000000000000000000000000000000000000000000000000000008152600401610ee590613e96565b60405180910390fd5b816002601c6101000a81548163ffffffff021916908363ffffffff1602179055508015610f685760008060016101000a81548160ff0219169083151502179055507f7f26b83ff96e1f2b6a682f133852f6798a09c465da95921460cefb38474024986001604051610f5f9190613d79565b60405180910390a15b50505050565b610f76612ea9565b610f806000612f4a565b565b600160009054906101000a900473ffffffffffffffffffffffffffffffffffffffff1681565b600260149054906101000a900463ffffffff1681565b60008060029054906101000a900473ffffffffffffffffffffffffffffffffffffffff16905090565b60011515600560003373ffffffffffffffffffffffffffffffffffffffff1673ffffffffffffffffffffffffffffffffffffffff16815260200190815260200160002060009054906101000a900460ff1615151461107a576040517f08c379a000000000000000000000000000000000000000000000000000000000815260040161107190614036565b60405180910390fd5b6000600660008363ffffffff1663ffffffff1681526020019081526020016000209050600160038111156110d7577f4e487b7100000000000000000000000000000000000000000000000000000000600052602160045260246000fd5b8160030160009054906101000a900460ff166003811115611121577f4e487b7100000000000000000000000000000000000000000000000000000000600052602160045260246000fd5b14611161576040517f08c379a000000000000000000000000000000000000000000000000000000000815260040161115890613ed6565b60405180910390fd5b8060010160009054906101000a900473ffffffffffffffffffffffffffffffffffffffff1673ffffffffffffffffffffffffffffffffffffffff163373ffffffffffffffffffffffffffffffffffffffff16146111f3576040517f08c379a00000000000000000000000000000000000000000000000000000000081526004016111ea90613f76565b60405180910390fd5b60008160000160089054906101000a900467ffffffffffffffff1667ffffffffffffffff169050428260000160189054906101000a900467ffffffffffffffff1667ffffffffffffffff16101561137b578160000160109054906101000a900467ffffffffffffffff1667ffffffffffffffff16816112729190614375565b9050600160009054906101000a900473ffffffffffffffffffffffffffffffffffffffff1673ffffffffffffffffffffffffffffffffffffffff1663a9059cbb338460000160109054906101000a900467ffffffffffffffff166040518363ffffffff1660e01b81526004016112e9929190613cf1565b602060405180830381600087803b15801561130357600080fd5b505af1158015611317573d6000803e3d6000fd5b505050506040513d601f19601f8201168201806040525081019061133b9190613370565b61137a576040517f08c379a000000000000000000000000000000000000000000000000000000000815260040161137190613f56565b60405180910390fd5b5b600160009054906101000a900473ffffffffffffffffffffffffffffffffffffffff1673ffffffffffffffffffffffffffffffffffffffff1663a9059cbb8360070160009054906101000a900473ffffffffffffffffffffffffffffffffffffffff16836040518363ffffffff1660e01b81526004016113fc929190613c38565b602060405180830381600087803b15801561141657600080fd5b505af115801561142a573d6000803e3d6000fd5b505050506040513d601f19601f8201168201806040525081019061144e9190613370565b61148d576040517f08c379a000000000000000000000000000000000000000000000000000000000815260040161148490613ff6565b60405180910390fd5b60028260030160006101000a81548160ff021916908360038111156114db577f4e487b7100000000000000000000000000000000000000000000000000000000600052602160045260246000fd5b0217905550505050565b6000600381111561151f577f4e487b7100000000000000000000000000000000000000000000000000000000600052602160045260246000fd5b600660008363ffffffff1663ffffffff16815260200190815260200160002060030160009054906101000a900460ff166003811115611587577f4e487b7100000000000000000000000000000000000000000000000000000000600052602160045260246000fd5b146115c7576040517f08c379a00000000000000000000000000000000000000000000000000000000081526004016115be90613dd6565b60405180910390fd5b6000600460003373ffffffffffffffffffffffffffffffffffffffff1673ffffffffffffffffffffffffffffffffffffffff168152602001908152602001600020805461161390614581565b80601f016020809104026020016040519081016040528092919081815260200182805461163f90614581565b801561168c5780601f106116615761010080835404028352916020019161168c565b820191906000526020600020905b81548152906001019060200180831161166f57829003601f168201915b505050505090506000815114156116d8576040517f08c379a00000000000000000000000000000000000000000000000000000000081526004016116cf90613fd6565b60405180910390fd5b6000600660008463ffffffff1663ffffffff16815260200190815260200160002060060180548060200260200160405190810160405280929190818152602001828054801561177c57602002820191906000526020600020905b8160009054906101000a900473ffffffffffffffffffffffffffffffffffffffff1673ffffffffffffffffffffffffffffffffffffffff1681526020019060010190808311611732575b5050505050905060005b815181101561184f573373ffffffffffffffffffffffffffffffffffffffff168282815181106117df577f4e487b7100000000000000000000000000000000000000000000000000000000600052603260045260246000fd5b602002602001015173ffffffffffffffffffffffffffffffffffffffff16141561183e576040517f08c379a000000000000000000000000000000000000000000000000000000000815260040161183590613db6565b60405180910390fd5b80611848906145e4565b9050611786565b50600660008463ffffffff1663ffffffff168152602001908152602001600020600601339080600181540180825580915050600190039060005260206000200160009091909190916101000a81548173ffffffffffffffffffffffffffffffffffffffff021916908373ffffffffffffffffffffffffffffffffffffffff160217905550600660008463ffffffff1663ffffffff168152602001908152602001600020600001600481819054906101000a900463ffffffff16809291906119159061462d565b91906101000a81548163ffffffff021916908363ffffffff16021790555050505050565b611941612ea9565b6000600560008373ffffffffffffffffffffffffffffffffffffffff1673ffffffffffffffffffffffffffffffffffffffff16815260200190815260200160002060006101000a81548160ff02191690831515021790555050565b60011515600560003373ffffffffffffffffffffffffffffffffffffffff1673ffffffffffffffffffffffffffffffffffffffff16815260200190815260200160002060009054906101000a900460ff16151514611a2f576040517f08c379a0000000000000000000000000000000000000000000000000000000008152600401611a2690614036565b60405180910390fd5b600160009054906101000a900473ffffffffffffffffffffffffffffffffffffffff1673ffffffffffffffffffffffffffffffffffffffff166323b872dd3330866040518463ffffffff1660e01b8152600401611a8e93929190613c61565b602060405180830381600087803b158015611aa857600080fd5b505af1158015611abc573d6000803e3d6000fd5b505050506040513d601f19601f82011682018060405250810190611ae09190613370565b611b1f576040517f08c379a0000000000000000000000000000000000000000000000000000000008152600401611b1690613fb6565b60405180910390fd5b600060066000600260189054906101000a900463ffffffff1663ffffffff1663ffffffff1681526020019081526020016000209050600260189054906101000a900463ffffffff168160000160006101000a81548163ffffffff021916908363ffffffff1602179055506002601881819054906101000a900463ffffffff16611ba79061462d565b91906101000a81548163ffffffff021916908363ffffffff16021790555084816005019080519060200190611bdd929190613106565b50338160010160006101000a81548173ffffffffffffffffffffffffffffffffffffffff021916908373ffffffffffffffffffffffffffffffffffffffff16021790555086816002019080519060200190611c39929190613106565b5060008160030160006101000a81548160ff02191690836003811115611c88577f4e487b7100000000000000000000000000000000000000000000000000000000600052602160045260246000fd5b021790555085816004019080519060200190611ca5929190613106565b5060006002601c9054906101000a900463ffffffff1663ffffffff16606486611cce9190614302565b611cd89190614333565b90508085611ce691906143dd565b94508067ffffffffffffffff1660036000828254611d0491906142ac565b92505081905550848260000160086101000a81548167ffffffffffffffff021916908367ffffffffffffffff160217905550838260000160106101000a81548167ffffffffffffffff021916908367ffffffffffffffff160217905550828260000160186101000a81548167ffffffffffffffff021916908367ffffffffffffffff16021790555060008260000160046101000a81548163ffffffff021916908363ffffffff1602179055507f057cbe8fb32dc8225325e6dfab00e083f52f3650c1601f362091046653f79f2e6001600260189054906101000a900463ffffffff16611df091906143a9565b88878787604051611e0595949392919061408c565b60405180910390a15050505050505050565b60011515600560003373ffffffffffffffffffffffffffffffffffffffff1673ffffffffffffffffffffffffffffffffffffffff16815260200190815260200160002060009054906101000a900460ff16151514611eaa576040517f08c379a0000000000000000000000000000000000000000000000000000000008152600401611ea190614036565b60405180910390fd5b6000600660008463ffffffff1663ffffffff168152602001908152602001600020905060006003811115611f07577f4e487b7100000000000000000000000000000000000000000000000000000000600052602160045260246000fd5b8160030160009054906101000a900460ff166003811115611f51577f4e487b7100000000000000000000000000000000000000000000000000000000600052602160045260246000fd5b1480611fde575060016003811115611f92577f4e487b7100000000000000000000000000000000000000000000000000000000600052602160045260246000fd5b8160030160009054906101000a900460ff166003811115611fdc577f4e487b7100000000000000000000000000000000000000000000000000000000600052602160045260246000fd5b145b61201d576040517f08c379a000000000000000000000000000000000000000000000000000000000815260040161201490613e36565b60405180910390fd5b8060010160009054906101000a900473ffffffffffffffffffffffffffffffffffffffff1673ffffffffffffffffffffffffffffffffffffffff163373ffffffffffffffffffffffffffffffffffffffff16146120af576040517f08c379a00000000000000000000000000000000000000000000000000000000081526004016120a690613f76565b60405180910390fd5b428160000160189054906101000a900467ffffffffffffffff1667ffffffffffffffff1610612113576040517f08c379a000000000000000000000000000000000000000000000000000000000815260040161210a90613f36565b60405180910390fd5b60006001151583151514156122665760058260000160089054906101000a900467ffffffffffffffff166121479190614302565b67ffffffffffffffff169050600160009054906101000a900473ffffffffffffffffffffffffffffffffffffffff1673ffffffffffffffffffffffffffffffffffffffff1663a9059cbb8360070160009054906101000a900473ffffffffffffffffffffffffffffffffffffffff16836040518363ffffffff1660e01b81526004016121d4929190613c38565b602060405180830381600087803b1580156121ee57600080fd5b505af1158015612202573d6000803e3d6000fd5b505050506040513d601f19601f820116820180604052508101906122269190613370565b612265576040517f08c379a000000000000000000000000000000000000000000000000000000000815260040161225c90613ff6565b60405180910390fd5b5b600160009054906101000a900473ffffffffffffffffffffffffffffffffffffffff1673ffffffffffffffffffffffffffffffffffffffff1663a9059cbb33838560000160089054906101000a900467ffffffffffffffff1667ffffffffffffffff166122d39190614375565b6040518363ffffffff1660e01b81526004016122f0929190613cc8565b602060405180830381600087803b15801561230a57600080fd5b505af115801561231e573d6000803e3d6000fd5b505050506040513d601f19601f820116820180604052508101906123429190613370565b612381576040517f08c379a000000000000000000000000000000000000000000000000000000000815260040161237890613e16565b60405180910390fd5b60038260030160006101000a81548160ff021916908360038111156123cf577f4e487b7100000000000000000000000000000000000000000000000000000000600052602160045260246000fd5b021790555050505050565b6002601c9054906101000a900463ffffffff1681565b60035481565b6123fe612ea9565b6001600560008373ffffffffffffffffffffffffffffffffffffffff1673ffffffffffffffffffffffffffffffffffffffff16815260200190815260200160002060006101000a81548160ff02191690831515021790555050565b612461612ea9565b6000600354116124a6576040517f08c379a000000000000000000000000000000000000000000000000000000000815260040161249d90613e76565b60405180910390fd5b6000600381905550600160009054906101000a900473ffffffffffffffffffffffffffffffffffffffff1673ffffffffffffffffffffffffffffffffffffffff1663a9059cbb336003546040518363ffffffff1660e01b815260040161250d929190613cc8565b602060405180830381600087803b15801561252757600080fd5b505af115801561253b573d6000803e3d6000fd5b505050506040513d601f19601f8201168201806040525081019061255f9190613370565b61259e576040517f08c379a000000000000000000000000000000000000000000000000000000000815260040161259590613f16565b60405180910390fd5b565b600060011515600560003373ffffffffffffffffffffffffffffffffffffffff1673ffffffffffffffffffffffffffffffffffffffff16815260200190815260200160002060009054906101000a900460ff16151514612635576040517f08c379a000000000000000000000000000000000000000000000000000000000815260040161262c90614036565b60405180910390fd5b600260009054906101000a900473ffffffffffffffffffffffffffffffffffffffff1673ffffffffffffffffffffffffffffffffffffffff1663eacabe1484846040518363ffffffff1660e01b8152600401612692929190613c98565b602060405180830381600087803b1580156126ac57600080fd5b505af11580156126c0573d6000803e3d6000fd5b505050506040513d601f19601f820116820180604052508101906126e491906134ab565b905092915050565b60011515600560003373ffffffffffffffffffffffffffffffffffffffff1673ffffffffffffffffffffffffffffffffffffffff16815260200190815260200160002060009054906101000a900460ff1615151461277f576040517f08c379a000000000000000000000000000000000000000000000000000000000815260040161277690614036565b60405180910390fd5b600660008363ffffffff1663ffffffff16815260200190815260200160002060010160009054906101000a900473ffffffffffffffffffffffffffffffffffffffff1673ffffffffffffffffffffffffffffffffffffffff163373ffffffffffffffffffffffffffffffffffffffff161461282f576040517f08c379a000000000000000000000000000000000000000000000000000000000815260040161282690613e56565b60405180910390fd5b80600660008463ffffffff1663ffffffff16815260200190815260200160002060070160006101000a81548173ffffffffffffffffffffffffffffffffffffffff021916908373ffffffffffffffffffffffffffffffffffffffff1602179055506001600660008463ffffffff1663ffffffff16815260200190815260200160002060030160006101000a81548160ff021916908360038111156128fc577f4e487b7100000000000000000000000000000000000000000000000000000000600052602160045260246000fd5b02179055505050565b606060011515600560003373ffffffffffffffffffffffffffffffffffffffff1673ffffffffffffffffffffffffffffffffffffffff16815260200190815260200160002060009054906101000a900460ff1615151461299a576040517f08c379a000000000000000000000000000000000000000000000000000000000815260040161299190614036565b60405180910390fd5b600460008373ffffffffffffffffffffffffffffffffffffffff1673ffffffffffffffffffffffffffffffffffffffff16815260200190815260200160002080546129e490614581565b80601f0160208091040260200160405190810160405280929190818152602001828054612a1090614581565b8015612a5d5780601f10612a3257610100808354040283529160200191612a5d565b820191906000526020600020905b815481529060010190602001808311612a4057829003601f168201915b50505050509050919050565b6000600460003373ffffffffffffffffffffffffffffffffffffffff1673ffffffffffffffffffffffffffffffffffffffff1681526020019081526020016000208054612ab590614581565b905014612af7576040517f08c379a0000000000000000000000000000000000000000000000000000000008152600401612aee90613f96565b60405180910390fd5b80600460003373ffffffffffffffffffffffffffffffffffffffff1673ffffffffffffffffffffffffffffffffffffffff1681526020019081526020016000209080519060200190612b4a929190613106565b506002601481819054906101000a900463ffffffff16612b699061462d565b91906101000a81548163ffffffff021916908363ffffffff16021790555050565b612b92612ea9565b600073ffffffffffffffffffffffffffffffffffffffff168173ffffffffffffffffffffffffffffffffffffffff161415612c02576040517f08c379a0000000000000000000000000000000000000000000000000000000008152600401612bf990613df6565b60405180910390fd5b612c0b81612f4a565b50565b60066020528060005260406000206000915090508060000160009054906101000a900463ffffffff16908060000160049054906101000a900463ffffffff16908060000160089054906101000a900467ffffffffffffffff16908060000160109054906101000a900467ffffffffffffffff16908060000160189054906101000a900467ffffffffffffffff16908060010160009054906101000a900473ffffffffffffffffffffffffffffffffffffffff1690806002018054612cd190614581565b80601f0160208091040260200160405190810160405280929190818152602001828054612cfd90614581565b8015612d4a5780601f10612d1f57610100808354040283529160200191612d4a565b820191906000526020600020905b815481529060010190602001808311612d2d57829003601f168201915b5050505050908060030160009054906101000a900460ff1690806004018054612d7290614581565b80601f0160208091040260200160405190810160405280929190818152602001828054612d9e90614581565b8015612deb5780601f10612dc057610100808354040283529160200191612deb565b820191906000526020600020905b815481529060010190602001808311612dce57829003601f168201915b505050505090806005018054612e0090614581565b80601f0160208091040260200160405190810160405280929190818152602001828054612e2c90614581565b8015612e795780601f10612e4e57610100808354040283529160200191612e79565b820191906000526020600020905b815481529060010190602001808311612e5c57829003601f168201915b5050505050908060070160009054906101000a900473ffffffffffffffffffffffffffffffffffffffff1690508b565b612eb161300f565b73ffffffffffffffffffffffffffffffffffffffff16612ecf610fbe565b73ffffffffffffffffffffffffffffffffffffffff1614612f25576040517f08c379a0000000000000000000000000000000000000000000000000000000008152600401612f1c90613ef6565b60405180910390fd5b565b6000808273ffffffffffffffffffffffffffffffffffffffff163b119050919050565b60008060029054906101000a900473ffffffffffffffffffffffffffffffffffffffff16905081600060026101000a81548173ffffffffffffffffffffffffffffffffffffffff021916908373ffffffffffffffffffffffffffffffffffffffff1602179055508173ffffffffffffffffffffffffffffffffffffffff168173ffffffffffffffffffffffffffffffffffffffff167f8be0079c531659141344cd1fd0a4f28419497f9722a3daafe3b4186f6b6457e060405160405180910390a35050565b600033905090565b604051806101800160405280600063ffffffff168152602001600063ffffffff168152602001600067ffffffffffffffff168152602001600067ffffffffffffffff168152602001600067ffffffffffffffff168152602001600073ffffffffffffffffffffffffffffffffffffffff16815260200160608152602001600060038111156130ce577f4e487b7100000000000000000000000000000000000000000000000000000000600052602160045260246000fd5b8152602001606081526020016060815260200160608152602001600073ffffffffffffffffffffffffffffffffffffffff1681525090565b82805461311290614581565b90600052602060002090601f016020900481019282613134576000855561317b565b82601f1061314d57805160ff191683800117855561317b565b8280016001018555821561317b579182015b8281111561317a57825182559160200191906001019061315f565b5b509050613188919061318c565b5090565b5b808211156131a557600081600090555060010161318d565b5090565b60006131bc6131b7846141cb565b6141a6565b9050828152602081018484840111156131d457600080fd5b6131df84828561453f565b509392505050565b6000813590506131f681614d4d565b92915050565b60008135905061320b81614d64565b92915050565b60008135905061322081614d7b565b92915050565b60008151905061323581614d7b565b92915050565b600082601f83011261324c57600080fd5b813561325c8482602086016131a9565b91505092915050565b60008151905061327481614d92565b92915050565b60008135905061328981614da9565b92915050565b60008135905061329e81614dc0565b92915050565b6000602082840312156132b657600080fd5b60006132c4848285016131e7565b91505092915050565b6000806000606084860312156132e257600080fd5b60006132f0868287016131fc565b9350506020613301868287016131e7565b92505060406133128682870161327a565b9150509250925092565b6000806040838503121561332f57600080fd5b600061333d858286016131e7565b925050602083013567ffffffffffffffff81111561335a57600080fd5b6133668582860161323b565b9150509250929050565b60006020828403121561338257600080fd5b600061339084828501613226565b91505092915050565b6000602082840312156133ab57600080fd5b600082013567ffffffffffffffff8111156133c557600080fd5b6133d18482850161323b565b91505092915050565b60008060008060008060c087890312156133f357600080fd5b600087013567ffffffffffffffff81111561340d57600080fd5b61341989828a0161323b565b965050602087013567ffffffffffffffff81111561343657600080fd5b61344289828a0161323b565b955050604087013567ffffffffffffffff81111561345f57600080fd5b61346b89828a0161323b565b945050606061347c89828a0161328f565b935050608061348d89828a0161328f565b92505060a061349e89828a0161328f565b9150509295509295509295565b6000602082840312156134bd57600080fd5b60006134cb84828501613265565b91505092915050565b6000602082840312156134e657600080fd5b60006134f48482850161327a565b91505092915050565b6000806040838503121561351057600080fd5b600061351e8582860161327a565b925050602061352f858286016131e7565b9150509250929050565b6000806040838503121561354c57600080fd5b600061355a8582860161327a565b925050602061356b85828601613211565b9150509250929050565b600061358183836135ce565b60208301905092915050565b60006135998383613aaa565b905092915050565b6135aa816144af565b82525050565b6135b981614423565b82525050565b6135c881614423565b82525050565b6135d781614411565b82525050565b6135e681614411565b82525050565b60006135f78261421c565b6136018185614257565b935061360c836141fc565b8060005b8381101561363d5781516136248882613575565b975061362f8361423d565b925050600181019050613610565b5085935050505092915050565b60006136558261421c565b61365f8185614268565b935061366a836141fc565b8060005b8381101561369b5781516136828882613575565b975061368d8361423d565b92505060018101905061366e565b5085935050505092915050565b60006136b382614227565b6136bd8185614279565b9350836020820285016136cf8561420c565b8060005b8581101561370b57848403895281516136ec858261358d565b94506136f78361424a565b925060208a019950506001810190506136d3565b50829750879550505050505092915050565b613726816144c1565b82525050565b613735816144e5565b82525050565b613744816144e5565b82525050565b613753816144f7565b82525050565b600061376482614232565b61376e818561428a565b935061377e81856020860161454e565b61378781614745565b840191505092915050565b600061379d82614232565b6137a7818561429b565b93506137b781856020860161454e565b6137c081614745565b840191505092915050565b60006137d860258361429b565b91506137e382614756565b604082019050919050565b60006137fb60248361429b565b9150613806826147a5565b604082019050919050565b600061381e60268361429b565b9150613829826147f4565b604082019050919050565b600061384160408361429b565b915061384c82614843565b604082019050919050565b600061386460278361429b565b915061386f82614892565b604082019050919050565b600061388760348361429b565b9150613892826148e1565b604082019050919050565b60006138aa60278361429b565b91506138b582614930565b604082019050919050565b60006138cd60268361429b565b91506138d88261497f565b604082019050919050565b60006138f0602e8361429b565b91506138fb826149ce565b604082019050919050565b600061391360308361429b565b915061391e82614a1d565b604082019050919050565b600061393660208361429b565b915061394182614a6c565b602082019050919050565b600061395960298361429b565b915061396482614a95565b604082019050919050565b600061397c602f8361429b565b915061398782614ae4565b604082019050919050565b600061399f60268361429b565b91506139aa82614b33565b604082019050919050565b60006139c260288361429b565b91506139cd82614b82565b604082019050919050565b60006139e5601a8361429b565b91506139f082614bd1565b602082019050919050565b6000613a0860318361429b565b9150613a1382614bfa565b604082019050919050565b6000613a2b601f8361429b565b9150613a3682614c49565b602082019050919050565b6000613a4e60218361429b565b9150613a5982614c72565b604082019050919050565b6000613a71602a8361429b565b9150613a7c82614cc1565b604082019050919050565b6000613a9460188361429b565b9150613a9f82614d10565b602082019050919050565b600061018083016000830151613ac36000860182613bd2565b506020830151613ad66020860182613bd2565b506040830151613ae96040860182613bff565b506060830151613afc6060860182613bff565b506080830151613b0f6080860182613bff565b5060a0830151613b2260a08601826135b0565b5060c083015184820360c0860152613b3a8282613759565b91505060e0830151613b4f60e086018261372c565b50610100830151848203610100860152613b698282613759565b915050610120830151848203610120860152613b858282613759565b915050610140830151848203610140860152613ba182826135ec565b915050610160830151613bb86101608601826135b0565b508091505092915050565b613bcc81614474565b82525050565b613bdb8161447e565b82525050565b613bea8161447e565b82525050565b613bf98161452d565b82525050565b613c088161448e565b82525050565b613c178161448e565b82525050565b6000602082019050613c3260008301846135dd565b92915050565b6000604082019050613c4d60008301856135a1565b613c5a6020830184613bc3565b9392505050565b6000606082019050613c7660008301866135dd565b613c8360208301856135dd565b613c906040830184613bf0565b949350505050565b6000604082019050613cad60008301856135dd565b8181036020830152613cbf8184613792565b90509392505050565b6000604082019050613cdd60008301856135dd565b613cea6020830184613bc3565b9392505050565b6000604082019050613d0660008301856135dd565b613d136020830184613bf0565b9392505050565b60006020820190508181036000830152613d34818461364a565b905092915050565b60006020820190508181036000830152613d5681846136a8565b905092915050565b6000602082019050613d73600083018461371d565b92915050565b6000602082019050613d8e600083018461374a565b92915050565b60006020820190508181036000830152613dae8184613792565b905092915050565b60006020820190508181036000830152613dcf816137cb565b9050919050565b60006020820190508181036000830152613def816137ee565b9050919050565b60006020820190508181036000830152613e0f81613811565b9050919050565b60006020820190508181036000830152613e2f81613834565b9050919050565b60006020820190508181036000830152613e4f81613857565b9050919050565b60006020820190508181036000830152613e6f8161387a565b9050919050565b60006020820190508181036000830152613e8f8161389d565b9050919050565b60006020820190508181036000830152613eaf816138c0565b9050919050565b60006020820190508181036000830152613ecf816138e3565b9050919050565b60006020820190508181036000830152613eef81613906565b9050919050565b60006020820190508181036000830152613f0f81613929565b9050919050565b60006020820190508181036000830152613f2f8161394c565b9050919050565b60006020820190508181036000830152613f4f8161396f565b9050919050565b60006020820190508181036000830152613f6f81613992565b9050919050565b60006020820190508181036000830152613f8f816139b5565b9050919050565b60006020820190508181036000830152613faf816139d8565b9050919050565b60006020820190508181036000830152613fcf816139fb565b9050919050565b60006020820190508181036000830152613fef81613a1e565b9050919050565b6000602082019050818103600083015261400f81613a41565b9050919050565b6000602082019050818103600083015261402f81613a64565b9050919050565b6000602082019050818103600083015261404f81613a87565b9050919050565b600060208201905061406b6000830184613bc3565b92915050565b60006020820190506140866000830184613be1565b92915050565b600060a0820190506140a16000830188613be1565b81810360208301526140b38187613792565b90506140c26040830186613c0e565b6140cf6060830185613c0e565b6140dc6080830184613c0e565b9695505050505050565b6000610160820190506140fc600083018e613be1565b614109602083018d613be1565b614116604083018c613c0e565b614123606083018b613c0e565b614130608083018a613c0e565b61413d60a08301896135bf565b81810360c083015261414f8188613792565b905061415e60e083018761373b565b8181036101008301526141718186613792565b90508181036101208301526141868185613792565b90506141966101408301846135bf565b9c9b505050505050505050505050565b60006141b06141c1565b90506141bc82826145b3565b919050565b6000604051905090565b600067ffffffffffffffff8211156141e6576141e5614716565b5b6141ef82614745565b9050602081019050919050565b6000819050602082019050919050565b6000819050602082019050919050565b600081519050919050565b600081519050919050565b600081519050919050565b6000602082019050919050565b6000602082019050919050565b600082825260208201905092915050565b600082825260208201905092915050565b600082825260208201905092915050565b600082825260208201905092915050565b600082825260208201905092915050565b60006142b782614474565b91506142c283614474565b9250827fffffffffffffffffffffffffffffffffffffffffffffffffffffffffffffffff038211156142f7576142f661465a565b5b828201905092915050565b600061430d8261448e565b91506143188361448e565b92508261432857614327614689565b5b828204905092915050565b600061433e8261448e565b91506143498361448e565b92508167ffffffffffffffff048311821515161561436a5761436961465a565b5b828202905092915050565b600061438082614474565b915061438b83614474565b92508282101561439e5761439d61465a565b5b828203905092915050565b60006143b48261447e565b91506143bf8361447e565b9250828210156143d2576143d161465a565b5b828203905092915050565b60006143e88261448e565b91506143f38361448e565b9250828210156144065761440561465a565b5b828203905092915050565b600061441c82614454565b9050919050565b600061442e82614454565b9050919050565b60008115159050919050565b600081905061444f82614d39565b919050565b600073ffffffffffffffffffffffffffffffffffffffff82169050919050565b6000819050919050565b600063ffffffff82169050919050565b600067ffffffffffffffff82169050919050565b600060ff82169050919050565b60006144ba82614509565b9050919050565b60006144cc826144d3565b9050919050565b60006144de82614454565b9050919050565b60006144f082614441565b9050919050565b6000614502826144a2565b9050919050565b60006145148261451b565b9050919050565b600061452682614454565b9050919050565b60006145388261448e565b9050919050565b82818337600083830152505050565b60005b8381101561456c578082015181840152602081019050614551565b8381111561457b576000848401525b50505050565b6000600282049050600182168061459957607f821691505b602082108114156145ad576145ac6146e7565b5b50919050565b6145bc82614745565b810181811067ffffffffffffffff821117156145db576145da614716565b5b80604052505050565b60006145ef82614474565b91507fffffffffffffffffffffffffffffffffffffffffffffffffffffffffffffffff8214156146225761462161465a565b5b600182019050919050565b60006146388261447e565b915063ffffffff82141561464f5761464e61465a565b5b600182019050919050565b7f4e487b7100000000000000000000000000000000000000000000000000000000600052601160045260246000fd5b7f4e487b7100000000000000000000000000000000000000000000000000000000600052601260045260246000fd5b7f4e487b7100000000000000000000000000000000000000000000000000000000600052602160045260246000fd5b7f4e487b7100000000000000000000000000000000000000000000000000000000600052602260045260246000fd5b7f4e487b7100000000000000000000000000000000000000000000000000000000600052604160045260246000fd5b6000601f19601f8301169050919050565b7f596f7520616c7265616479206170706c69656420666f7220746869732070726f60008201527f6a6563742e000000000000000000000000000000000000000000000000000000602082015250565b7f596f752063616e206f6e6c79206170706c7920746f206f70656e2070726f6a6560008201527f6374732e00000000000000000000000000000000000000000000000000000000602082015250565b7f4f776e61626c653a206e6577206f776e657220697320746865207a65726f206160008201527f6464726573730000000000000000000000000000000000000000000000000000602082015250565b7f5472616e73666572696e67206261636b2074686520746f6b656e73206f66207460008201527f6865206e6f7420636f6d706c657465642070726f6a656374206661696c65642e602082015250565b7f546869732070726f6a656374206973206e6f7420696e2070726f67726573206e60008201527f6f72206f70656e00000000000000000000000000000000000000000000000000602082015250565b7f596f752063616e206f6e6c7920616363657074206170706c6963616e7473206660008201527f6f7220796f7572206f776e2070726f6a6563742e000000000000000000000000602082015250565b7f4e6f20636f6d6d697373696f6e20617661696c61626c6520666f72207769746860008201527f64726177616c2e00000000000000000000000000000000000000000000000000602082015250565b7f54686520636f6d6d6973696f6e2068617320746f206265206c6573732074686160008201527f6e203530252e0000000000000000000000000000000000000000000000000000602082015250565b7f496e697469616c697a61626c653a20636f6e747261637420697320616c72656160008201527f647920696e697469616c697a6564000000000000000000000000000000000000602082015250565b7f5468652070726f6a656374206d75737420626520696e2070726f67726573732060008201527f746f2062652066696e616c697a65642e00000000000000000000000000000000602082015250565b7f4f776e61626c653a2063616c6c6572206973206e6f7420746865206f776e6572600082015250565b7f546865207472616e73666572206f6620636f6d6d697373696f6e20746f6b656e60008201527f73206661696c65642e0000000000000000000000000000000000000000000000602082015250565b7f54686520646561646c696e6520686173206e6f74207061737365642e2047697660008201527f6520697420736f6d652074696d652e0000000000000000000000000000000000602082015250565b7f546865207472616e73666572206f662070656e616c747920746f6b656e73206660008201527f61696c65642e0000000000000000000000000000000000000000000000000000602082015250565b7f596f752063616e206f6e6c792066696e616c697a6520796f7572206f776e207060008201527f726f6a656374732e000000000000000000000000000000000000000000000000602082015250565b7f596f752061726520616c72656164792072656769737465726564000000000000600082015250565b7f546865207472616e73666572206f662072657761726420746f2074686520636f60008201527f6e747261637420686173206661696c6564000000000000000000000000000000602082015250565b7f596f75206861766520746f206265207265676973746572656420666972737400600082015250565b7f546865207472616e73666572206f662074686520726577617264206661696c6560008201527f6400000000000000000000000000000000000000000000000000000000000000602082015250565b7f5468652061646472657373206d757374206861766520616e2061646d696e207260008201527f6f6c652066697273742e00000000000000000000000000000000000000000000602082015250565b7f4f6e6c792061646d696e732061726520616c6c6f776564210000000000000000600082015250565b60048110614d4a57614d496146b8565b5b50565b614d5681614411565b8114614d6157600080fd5b50565b614d6d81614423565b8114614d7857600080fd5b50565b614d8481614435565b8114614d8f57600080fd5b50565b614d9b81614474565b8114614da657600080fd5b50565b614db28161447e565b8114614dbd57600080fd5b50565b614dc98161448e565b8114614dd457600080fd5b5056fea264697066735822122072a73d20a397e4f9867d3cbf7de7b1151d6cd473cd17eb901393e12f647d526b64736f6c63430008020033",
	"linkReferences": {},
	"deployedLinkReferences": {}
}