{
	"_format": "hh-sol-artifact-1",
	"contractName": "WorkShare",
	"sourceName": "contracts/WorkShare.sol",
	"abi": [
		{
			"anonymous": false,
			"inputs": [
				{
					"indexed": false,
					"internalType": "uint32",
					"name": "nrOfProjects",
					"type": "uint32"
				},
				{
					"indexed": false,
					"internalType": "string",
					"name": "_requirementsDocumentCID",
					"type": "string"
				},
				{
					"indexed": false,
					"internalType": "uint64",
					"name": "_reward",
					"type": "uint64"
				},
				{
					"indexed": false,
					"internalType": "uint64",
					"name": "_penalty",
					"type": "uint64"
				},
				{
					"indexed": false,
					"internalType": "uint64",
					"name": "_deadline",
					"type": "uint64"
				}
			],
			"name": "CreateProjectEvent",
			"type": "event"
		},
		{
			"anonymous": false,
			"inputs": [
				{
					"indexed": false,
					"internalType": "uint8",
					"name": "version",
					"type": "uint8"
				}
			],
			"name": "Initialized",
			"type": "event"
		},
		{
			"anonymous": false,
			"inputs": [
				{
					"indexed": true,
					"internalType": "address",
					"name": "previousOwner",
					"type": "address"
				},
				{
					"indexed": true,
					"internalType": "address",
					"name": "newOwner",
					"type": "address"
				}
			],
			"name": "OwnershipTransferred",
			"type": "event"
		},
		{
			"inputs": [
				{
					"internalType": "uint32",
					"name": "_nrOfProject",
					"type": "uint32"
				},
				{
					"internalType": "address",
					"name": "_applicant",
					"type": "address"
				}
			],
			"name": "acceptApplication",
			"outputs": [],
			"stateMutability": "nonpayable",
			"type": "function"
		},
		{
			"inputs": [
				{
					"internalType": "uint32",
					"name": "_projectNumber",
					"type": "uint32"
				}
			],
			"name": "applyForProject",
			"outputs": [],
			"stateMutability": "nonpayable",
			"type": "function"
		},
		{
			"inputs": [
				{
					"internalType": "uint32",
					"name": "_projectNumber",
					"type": "uint32"
				},
				{
					"internalType": "address",
					"name": "_newManager",
					"type": "address"
				}
			],
			"name": "changeManagerOfProject",
			"outputs": [],
			"stateMutability": "nonpayable",
			"type": "function"
		},
		{
			"inputs": [],
			"name": "commision",
			"outputs": [
				{
					"internalType": "uint32",
					"name": "",
					"type": "uint32"
				}
			],
			"stateMutability": "view",
			"type": "function"
		},
		{
			"inputs": [
				{
					"internalType": "string",
					"name": "_shortDescription",
					"type": "string"
				},
				{
					"internalType": "string",
					"name": "_requirementsDocumentCID",
					"type": "string"
				},
				{
					"internalType": "string",
					"name": "_nftCID",
					"type": "string"
				},
				{
					"internalType": "uint64",
					"name": "_reward",
					"type": "uint64"
				},
				{
					"internalType": "uint64",
					"name": "_penalty",
					"type": "uint64"
				},
				{
					"internalType": "uint64",
					"name": "_deadline",
					"type": "uint64"
				}
			],
			"name": "createProject",
			"outputs": [],
			"stateMutability": "nonpayable",
			"type": "function"
		},
		{
			"inputs": [
				{
					"internalType": "uint32",
					"name": "_projectNumber",
					"type": "uint32"
				}
			],
			"name": "finalizeProject",
			"outputs": [],
			"stateMutability": "nonpayable",
			"type": "function"
		},
		{
			"inputs": [
				{
					"internalType": "uint32",
					"name": "projectNumber",
					"type": "uint32"
				}
			],
			"name": "getAllApplicants",
			"outputs": [
				{
					"internalType": "address[]",
					"name": "",
					"type": "address[]"
				}
			],
			"stateMutability": "view",
			"type": "function"
		},
		{
			"inputs": [
				{
					"internalType": "address",
					"name": "_address",
					"type": "address"
				}
			],
			"name": "getEmailOfDeveloper",
			"outputs": [
				{
					"internalType": "string",
					"name": "",
					"type": "string"
				}
			],
			"stateMutability": "view",
			"type": "function"
		},
		{
			"inputs": [],
			"name": "getMyBalance",
			"outputs": [
				{
					"internalType": "uint256",
					"name": "",
					"type": "uint256"
				}
			],
			"stateMutability": "view",
			"type": "function"
		},
		{
			"inputs": [],
			"name": "getMyProjectsAdmin",
			"outputs": [
				{
					"components": [
						{
							"internalType": "uint32",
							"name": "id",
							"type": "uint32"
						},
						{
							"internalType": "uint32",
							"name": "nrOfApplicants",
							"type": "uint32"
						},
						{
							"internalType": "uint64",
							"name": "reward",
							"type": "uint64"
						},
						{
							"internalType": "uint64",
							"name": "penalty",
							"type": "uint64"
						},
						{
							"internalType": "uint64",
							"name": "deadline",
							"type": "uint64"
						},
						{
							"internalType": "address payable",
							"name": "manager",
							"type": "address"
						},
						{
							"internalType": "string",
							"name": "shortDescription",
							"type": "string"
						},
						{
							"internalType": "enum WorkShare.State",
							"name": "state",
							"type": "uint8"
						},
						{
							"internalType": "string",
							"name": "requirementsDocumentCID",
							"type": "string"
						},
						{
							"internalType": "string",
							"name": "nftCID",
							"type": "string"
						},
						{
							"internalType": "address[]",
							"name": "applicants",
							"type": "address[]"
						},
						{
							"internalType": "address payable",
							"name": "acceptedDeveloper",
							"type": "address"
						}
					],
					"internalType": "struct WorkShare.Project[]",
					"name": "",
					"type": "tuple[]"
				}
			],
			"stateMutability": "view",
			"type": "function"
		},
		{
			"inputs": [],
			"name": "getMyProjectsDev",
			"outputs": [
				{
					"components": [
						{
							"internalType": "uint32",
							"name": "id",
							"type": "uint32"
						},
						{
							"internalType": "uint32",
							"name": "nrOfApplicants",
							"type": "uint32"
						},
						{
							"internalType": "uint64",
							"name": "reward",
							"type": "uint64"
						},
						{
							"internalType": "uint64",
							"name": "penalty",
							"type": "uint64"
						},
						{
							"internalType": "uint64",
							"name": "deadline",
							"type": "uint64"
						},
						{
							"internalType": "address payable",
							"name": "manager",
							"type": "address"
						},
						{
							"internalType": "string",
							"name": "shortDescription",
							"type": "string"
						},
						{
							"internalType": "enum WorkShare.State",
							"name": "state",
							"type": "uint8"
						},
						{
							"internalType": "string",
							"name": "requirementsDocumentCID",
							"type": "string"
						},
						{
							"internalType": "string",
							"name": "nftCID",
							"type": "string"
						},
						{
							"internalType": "address[]",
							"name": "applicants",
							"type": "address[]"
						},
						{
							"internalType": "address payable",
							"name": "acceptedDeveloper",
							"type": "address"
						}
					],
					"internalType": "struct WorkShare.Project[]",
					"name": "",
					"type": "tuple[]"
				}
			],
			"stateMutability": "view",
			"type": "function"
		},
		{
			"inputs": [],
			"name": "getOpenProjects",
			"outputs": [
				{
					"components": [
						{
							"internalType": "uint32",
							"name": "id",
							"type": "uint32"
						},
						{
							"internalType": "uint32",
							"name": "nrOfApplicants",
							"type": "uint32"
						},
						{
							"internalType": "uint64",
							"name": "reward",
							"type": "uint64"
						},
						{
							"internalType": "uint64",
							"name": "penalty",
							"type": "uint64"
						},
						{
							"internalType": "uint64",
							"name": "deadline",
							"type": "uint64"
						},
						{
							"internalType": "address payable",
							"name": "manager",
							"type": "address"
						},
						{
							"internalType": "string",
							"name": "shortDescription",
							"type": "string"
						},
						{
							"internalType": "enum WorkShare.State",
							"name": "state",
							"type": "uint8"
						},
						{
							"internalType": "string",
							"name": "requirementsDocumentCID",
							"type": "string"
						},
						{
							"internalType": "string",
							"name": "nftCID",
							"type": "string"
						},
						{
							"internalType": "address[]",
							"name": "applicants",
							"type": "address[]"
						},
						{
							"internalType": "address payable",
							"name": "acceptedDeveloper",
							"type": "address"
						}
					],
					"internalType": "struct WorkShare.Project[]",
					"name": "",
					"type": "tuple[]"
				}
			],
			"stateMutability": "view",
			"type": "function"
		},
		{
			"inputs": [
				{
					"internalType": "string",
					"name": "str",
					"type": "string"
				}
			],
			"name": "getStringLenght",
			"outputs": [
				{
					"internalType": "uint256",
					"name": "",
					"type": "uint256"
				}
			],
			"stateMutability": "pure",
			"type": "function"
		},
		{
			"inputs": [
				{
					"internalType": "address",
					"name": "_admin",
					"type": "address"
				}
			],
			"name": "grantAdminRole",
			"outputs": [],
			"stateMutability": "nonpayable",
			"type": "function"
		},
		{
			"inputs": [
				{
					"internalType": "address payable",
					"name": "_token",
					"type": "address"
				},
				{
					"internalType": "uint32",
					"name": "_commision",
					"type": "uint32"
				}
			],
			"name": "initialize",
			"outputs": [],
			"stateMutability": "nonpayable",
			"type": "function"
		},
		{
			"inputs": [],
			"name": "nrOfDevelopers",
			"outputs": [
				{
					"internalType": "uint32",
					"name": "",
					"type": "uint32"
				}
			],
			"stateMutability": "view",
			"type": "function"
		},
		{
			"inputs": [],
			"name": "owner",
			"outputs": [
				{
					"internalType": "address",
					"name": "",
					"type": "address"
				}
			],
			"stateMutability": "view",
			"type": "function"
		},
		{
			"inputs": [
				{
					"internalType": "uint32",
					"name": "_projectNumber",
					"type": "uint32"
				},
				{
					"internalType": "bool",
					"name": "_effort",
					"type": "bool"
				}
			],
			"name": "projectNotCompleted",
			"outputs": [],
			"stateMutability": "nonpayable",
			"type": "function"
		},
		{
			"inputs": [
				{
					"internalType": "uint32",
					"name": "",
					"type": "uint32"
				}
			],
			"name": "projects",
			"outputs": [
				{
					"internalType": "uint32",
					"name": "id",
					"type": "uint32"
				},
				{
					"internalType": "uint32",
					"name": "nrOfApplicants",
					"type": "uint32"
				},
				{
					"internalType": "uint64",
					"name": "reward",
					"type": "uint64"
				},
				{
					"internalType": "uint64",
					"name": "penalty",
					"type": "uint64"
				},
				{
					"internalType": "uint64",
					"name": "deadline",
					"type": "uint64"
				},
				{
					"internalType": "address payable",
					"name": "manager",
					"type": "address"
				},
				{
					"internalType": "string",
					"name": "shortDescription",
					"type": "string"
				},
				{
					"internalType": "enum WorkShare.State",
					"name": "state",
					"type": "uint8"
				},
				{
					"internalType": "string",
					"name": "requirementsDocumentCID",
					"type": "string"
				},
				{
					"internalType": "string",
					"name": "nftCID",
					"type": "string"
				},
				{
					"internalType": "address payable",
					"name": "acceptedDeveloper",
					"type": "address"
				}
			],
			"stateMutability": "view",
			"type": "function"
		},
		{
			"inputs": [
				{
					"internalType": "string",
					"name": "_email",
					"type": "string"
				}
			],
			"name": "register",
			"outputs": [],
			"stateMutability": "nonpayable",
			"type": "function"
		},
		{
			"inputs": [],
			"name": "renounceOwnership",
			"outputs": [],
			"stateMutability": "nonpayable",
			"type": "function"
		},
		{
			"inputs": [
				{
					"internalType": "address",
					"name": "_remove",
					"type": "address"
				}
			],
			"name": "revokeAdminRole",
			"outputs": [],
			"stateMutability": "nonpayable",
			"type": "function"
		},
		{
			"inputs": [],
			"name": "totalCommission",
			"outputs": [
				{
					"internalType": "uint256",
					"name": "",
					"type": "uint256"
				}
			],
			"stateMutability": "view",
			"type": "function"
		},
		{
			"inputs": [
				{
					"internalType": "address",
					"name": "newOwner",
					"type": "address"
				}
			],
			"name": "transferOwnership",
			"outputs": [],
			"stateMutability": "nonpayable",
			"type": "function"
		},
		{
			"inputs": [],
			"name": "withdrawCommision",
			"outputs": [],
			"stateMutability": "nonpayable",
			"type": "function"
		},
		{
			"inputs": [],
			"name": "workShareToken",
			"outputs": [
				{
					"internalType": "contract IERC20",
					"name": "",
					"type": "address"
				}
			],
			"stateMutability": "view",
			"type": "function"
		}
	],
	"bytecode": "0x60806040523480156200001157600080fd5b5062000032620000266200003860201b60201c565b6200004060201b60201c565b62000105565b600033905090565b60008060029054906101000a900473ffffffffffffffffffffffffffffffffffffffff16905081600060026101000a81548173ffffffffffffffffffffffffffffffffffffffff021916908373ffffffffffffffffffffffffffffffffffffffff1602179055508173ffffffffffffffffffffffffffffffffffffffff168173ffffffffffffffffffffffffffffffffffffffff167f8be0079c531659141344cd1fd0a4f28419497f9722a3daafe3b4186f6b6457e060405160405180910390a35050565b615b8d80620001156000396000f3fe608060405234801561001057600080fd5b506004361061018e5760003560e01c8063b5261a1b116100de578063d7f9094d11610097578063f078494a11610071578063f078494a14610411578063f2c298be14610441578063f2fde38b1461045d578063ffd10afe146104795761018e565b8063d7f9094d146103cd578063ecde0c4f146103d7578063ed83d6a8146103f55761018e565b8063b5261a1b14610321578063b8211c091461033d578063b95edbf914610359578063c0320dbc14610377578063c5e4c9f914610395578063c634b78e146103b15761018e565b80638298ec5c1161014b5780639537c4fd116101255780639537c4fd1461029b57806396dcf88c146102cb5780639a19c7b0146102e7578063adf0cffb146103035761018e565b80638298ec5c146102435780638da5cb5b146102615780638f7392601461027f5761018e565b806318736741146101935780631910f96a146101af5780631a6923ef146101cd5780634c738909146101fd578063715018a61461021b578063718fbe6c14610225575b600080fd5b6101ad60048036038101906101a891906142ad565b6104b3565b005b6101b76105ac565b6040516101c49190614abc565b60405180910390f35b6101e760048036038101906101e29190614284565b610bfd565b6040516101f49190614a9a565b60405180910390f35b610205610d40565b6040516102129190614dd6565b60405180910390f35b610223610df2565b005b61022d610e06565b60405161023a9190614ade565b60405180910390f35b61024b610e2c565b6040516102589190614df1565b60405180910390f35b610269610e42565b60405161027691906149cd565b60405180910390f35b61029960048036038101906102949190614284565b610e6b565b005b6102b560048036038101906102b09190614149565b611369565b6040516102c29190614dd6565b60405180910390f35b6102e560048036038101906102e09190614284565b611379565b005b61030160048036038101906102fc91906140bb565b6117cd565b005b61030b611830565b6040516103189190614abc565b60405180910390f35b61033b6004803603810190610336919061418a565b611fcc565b005b610357600480360381019061035291906142e9565b612446565b005b610361612a09565b60405161036e9190614df1565b60405180910390f35b61037f612a1f565b60405161038c9190614dd6565b60405180910390f35b6103af60048036038101906103aa91906140e4565b612a25565b005b6103cb60048036038101906103c691906140bb565b612c7a565b005b6103d5612cdd565b005b6103df612e24565b6040516103ec9190614abc565b60405180910390f35b61040f600480360381019061040a91906142ad565b613503565b005b61042b600480360381019061042691906140bb565b61371c565b6040516104389190614b14565b60405180910390f35b61045b60048036038101906104569190614149565b613880565b005b610477600480360381019061047291906140bb565b6139a1565b005b610493600480360381019061048e9190614284565b613a25565b6040516104aa9b9a99989796959493929190614e66565b60405180910390f35b6104bb613cc0565b600460008273ffffffffffffffffffffffffffffffffffffffff1673ffffffffffffffffffffffffffffffffffffffff16815260200190815260200160002060009054906101000a900460ff16610547576040517f08c379a000000000000000000000000000000000000000000000000000000000815260040161053e90614d96565b60405180910390fd5b80600560008463ffffffff1663ffffffff16815260200190815260200160002060010160006101000a81548173ffffffffffffffffffffffffffffffffffffffff021916908373ffffffffffffffffffffffffffffffffffffffff1602179055505050565b60606000600160189054906101000a900463ffffffff1663ffffffff1667ffffffffffffffff811115610608577f4e487b7100000000000000000000000000000000000000000000000000000000600052604160045260246000fd5b60405190808252806020026020018201604052801561064157816020015b61062e613e2e565b8152602001906001900390816106265790505b50905060005b600160189054906101000a900463ffffffff1663ffffffff168163ffffffff161015610bf557600060038111156106a7577f4e487b7100000000000000000000000000000000000000000000000000000000600052602160045260246000fd5b600560008363ffffffff1663ffffffff16815260200190815260200160002060030160009054906101000a900460ff16600381111561070f577f4e487b7100000000000000000000000000000000000000000000000000000000600052602160045260246000fd5b1415610be457600560008263ffffffff1663ffffffff168152602001908152602001600020604051806101800160405290816000820160009054906101000a900463ffffffff1663ffffffff1663ffffffff1681526020016000820160049054906101000a900463ffffffff1663ffffffff1663ffffffff1681526020016000820160089054906101000a900467ffffffffffffffff1667ffffffffffffffff1667ffffffffffffffff1681526020016000820160109054906101000a900467ffffffffffffffff1667ffffffffffffffff1667ffffffffffffffff1681526020016000820160189054906101000a900467ffffffffffffffff1667ffffffffffffffff1667ffffffffffffffff1681526020016001820160009054906101000a900473ffffffffffffffffffffffffffffffffffffffff1673ffffffffffffffffffffffffffffffffffffffff1673ffffffffffffffffffffffffffffffffffffffff16815260200160028201805461088890615301565b80601f01602080910402602001604051908101604052809291908181526020018280546108b490615301565b80156109015780601f106108d657610100808354040283529160200191610901565b820191906000526020600020905b8154815290600101906020018083116108e457829003601f168201915b505050505081526020016003820160009054906101000a900460ff166003811115610955577f4e487b7100000000000000000000000000000000000000000000000000000000600052602160045260246000fd5b600381111561098d577f4e487b7100000000000000000000000000000000000000000000000000000000600052602160045260246000fd5b81526020016004820180546109a190615301565b80601f01602080910402602001604051908101604052809291908181526020018280546109cd90615301565b8015610a1a5780601f106109ef57610100808354040283529160200191610a1a565b820191906000526020600020905b8154815290600101906020018083116109fd57829003601f168201915b50505050508152602001600582018054610a3390615301565b80601f0160208091040260200160405190810160405280929190818152602001828054610a5f90615301565b8015610aac5780601f10610a8157610100808354040283529160200191610aac565b820191906000526020600020905b815481529060010190602001808311610a8f57829003601f168201915b5050505050815260200160068201805480602002602001604051908101604052809291908181526020018280548015610b3a57602002820191906000526020600020905b8160009054906101000a900473ffffffffffffffffffffffffffffffffffffffff1673ffffffffffffffffffffffffffffffffffffffff1681526020019060010190808311610af0575b505050505081526020016007820160009054906101000a900473ffffffffffffffffffffffffffffffffffffffff1673ffffffffffffffffffffffffffffffffffffffff1673ffffffffffffffffffffffffffffffffffffffff1681525050828263ffffffff1681518110610bd8577f4e487b7100000000000000000000000000000000000000000000000000000000600052603260045260246000fd5b60200260200101819052505b80610bee906153ad565b9050610647565b508091505090565b606060011515600460003373ffffffffffffffffffffffffffffffffffffffff1673ffffffffffffffffffffffffffffffffffffffff16815260200190815260200160002060009054906101000a900460ff16151514610c92576040517f08c379a0000000000000000000000000000000000000000000000000000000008152600401610c8990614db6565b60405180910390fd5b600560008363ffffffff1663ffffffff168152602001908152602001600020600601805480602002602001604051908101604052809291908181526020018280548015610d3457602002820191906000526020600020905b8160009054906101000a900473ffffffffffffffffffffffffffffffffffffffff1673ffffffffffffffffffffffffffffffffffffffff1681526020019060010190808311610cea575b50505050509050919050565b6000600160009054906101000a900473ffffffffffffffffffffffffffffffffffffffff1673ffffffffffffffffffffffffffffffffffffffff166370a08231336040518263ffffffff1660e01b8152600401610d9d91906149cd565b60206040518083038186803b158015610db557600080fd5b505afa158015610dc9573d6000803e3d6000fd5b505050506040513d601f19601f82011682018060405250810190610ded919061425b565b905090565b610dfa613cc0565b610e046000613d3e565b565b600160009054906101000a900473ffffffffffffffffffffffffffffffffffffffff1681565b600160149054906101000a900463ffffffff1681565b60008060029054906101000a900473ffffffffffffffffffffffffffffffffffffffff16905090565b60011515600460003373ffffffffffffffffffffffffffffffffffffffff1673ffffffffffffffffffffffffffffffffffffffff16815260200190815260200160002060009054906101000a900460ff16151514610efe576040517f08c379a0000000000000000000000000000000000000000000000000000000008152600401610ef590614db6565b60405180910390fd5b6000600560008363ffffffff1663ffffffff168152602001908152602001600020905060016003811115610f5b577f4e487b7100000000000000000000000000000000000000000000000000000000600052602160045260246000fd5b8160030160009054906101000a900460ff166003811115610fa5577f4e487b7100000000000000000000000000000000000000000000000000000000600052602160045260246000fd5b14610fe5576040517f08c379a0000000000000000000000000000000000000000000000000000000008152600401610fdc90614c56565b60405180910390fd5b8060010160009054906101000a900473ffffffffffffffffffffffffffffffffffffffff1673ffffffffffffffffffffffffffffffffffffffff163373ffffffffffffffffffffffffffffffffffffffff1614611077576040517f08c379a000000000000000000000000000000000000000000000000000000000815260040161106e90614cf6565b60405180910390fd5b60008160000160089054906101000a900467ffffffffffffffff1667ffffffffffffffff169050428260000160189054906101000a900467ffffffffffffffff1667ffffffffffffffff1610156111ff578160000160109054906101000a900467ffffffffffffffff1667ffffffffffffffff16816110f691906150f5565b9050600160009054906101000a900473ffffffffffffffffffffffffffffffffffffffff1673ffffffffffffffffffffffffffffffffffffffff1663a9059cbb338460000160109054906101000a900467ffffffffffffffff166040518363ffffffff1660e01b815260040161116d929190614a71565b602060405180830381600087803b15801561118757600080fd5b505af115801561119b573d6000803e3d6000fd5b505050506040513d601f19601f820116820180604052508101906111bf9190614120565b6111fe576040517f08c379a00000000000000000000000000000000000000000000000000000000081526004016111f590614cd6565b60405180910390fd5b5b600160009054906101000a900473ffffffffffffffffffffffffffffffffffffffff1673ffffffffffffffffffffffffffffffffffffffff1663a9059cbb8360070160009054906101000a900473ffffffffffffffffffffffffffffffffffffffff16836040518363ffffffff1660e01b81526004016112809291906149e8565b602060405180830381600087803b15801561129a57600080fd5b505af11580156112ae573d6000803e3d6000fd5b505050506040513d601f19601f820116820180604052508101906112d29190614120565b611311576040517f08c379a000000000000000000000000000000000000000000000000000000000815260040161130890614d76565b60405180910390fd5b60028260030160006101000a81548160ff0219169083600381111561135f577f4e487b7100000000000000000000000000000000000000000000000000000000600052602160045260246000fd5b0217905550505050565b6000808290508051915050919050565b600060038111156113b3577f4e487b7100000000000000000000000000000000000000000000000000000000600052602160045260246000fd5b600560008363ffffffff1663ffffffff16815260200190815260200160002060030160009054906101000a900460ff16600381111561141b577f4e487b7100000000000000000000000000000000000000000000000000000000600052602160045260246000fd5b1461145b576040517f08c379a000000000000000000000000000000000000000000000000000000000815260040161145290614b56565b60405180910390fd5b6000600360003373ffffffffffffffffffffffffffffffffffffffff1673ffffffffffffffffffffffffffffffffffffffff16815260200190815260200160002080546114a790615301565b80601f01602080910402602001604051908101604052809291908181526020018280546114d390615301565b80156115205780601f106114f557610100808354040283529160200191611520565b820191906000526020600020905b81548152906001019060200180831161150357829003601f168201915b5050505050905060008151141561156c576040517f08c379a000000000000000000000000000000000000000000000000000000000815260040161156390614d56565b60405180910390fd5b6000600560008463ffffffff1663ffffffff16815260200190815260200160002060060180548060200260200160405190810160405280929190818152602001828054801561161057602002820191906000526020600020905b8160009054906101000a900473ffffffffffffffffffffffffffffffffffffffff1673ffffffffffffffffffffffffffffffffffffffff16815260200190600101908083116115c6575b5050505050905060005b81518110156116e3573373ffffffffffffffffffffffffffffffffffffffff16828281518110611673577f4e487b7100000000000000000000000000000000000000000000000000000000600052603260045260246000fd5b602002602001015173ffffffffffffffffffffffffffffffffffffffff1614156116d2576040517f08c379a00000000000000000000000000000000000000000000000000000000081526004016116c990614b36565b60405180910390fd5b806116dc90615364565b905061161a565b50600560008463ffffffff1663ffffffff168152602001908152602001600020600601339080600181540180825580915050600190039060005260206000200160009091909190916101000a81548173ffffffffffffffffffffffffffffffffffffffff021916908373ffffffffffffffffffffffffffffffffffffffff160217905550600560008463ffffffff1663ffffffff168152602001908152602001600020600001600481819054906101000a900463ffffffff16809291906117a9906153ad565b91906101000a81548163ffffffff021916908363ffffffff16021790555050505050565b6117d5613cc0565b6000600460008373ffffffffffffffffffffffffffffffffffffffff1673ffffffffffffffffffffffffffffffffffffffff16815260200190815260200160002060006101000a81548160ff02191690831515021790555050565b606060011515600460003373ffffffffffffffffffffffffffffffffffffffff1673ffffffffffffffffffffffffffffffffffffffff16815260200190815260200160002060009054906101000a900460ff161515146118c5576040517f08c379a00000000000000000000000000000000000000000000000000000000081526004016118bc90614db6565b60405180910390fd5b6000606060005b600160189054906101000a900463ffffffff1663ffffffff168163ffffffff16101561198a573373ffffffffffffffffffffffffffffffffffffffff16600560008363ffffffff1663ffffffff16815260200190815260200160002060010160009054906101000a900473ffffffffffffffffffffffffffffffffffffffff1673ffffffffffffffffffffffffffffffffffffffff161415611977578280611973906153ad565b9350505b8080611982906153ad565b9150506118cc565b5060008263ffffffff161115611fc4578163ffffffff1667ffffffffffffffff8111156119e0577f4e487b7100000000000000000000000000000000000000000000000000000000600052604160045260246000fd5b604051908082528060200260200182016040528015611a1957816020015b611a06613e2e565b8152602001906001900390816119fe5790505b5090506000805b600160189054906101000a900463ffffffff1663ffffffff168163ffffffff16108015611a5857508363ffffffff168263ffffffff16105b15611fc1573373ffffffffffffffffffffffffffffffffffffffff16600560008363ffffffff1663ffffffff16815260200190815260200160002060010160009054906101000a900473ffffffffffffffffffffffffffffffffffffffff1673ffffffffffffffffffffffffffffffffffffffff161415611fae57600560008263ffffffff1663ffffffff168152602001908152602001600020604051806101800160405290816000820160009054906101000a900463ffffffff1663ffffffff1663ffffffff1681526020016000820160049054906101000a900463ffffffff1663ffffffff1663ffffffff1681526020016000820160089054906101000a900467ffffffffffffffff1667ffffffffffffffff1667ffffffffffffffff1681526020016000820160109054906101000a900467ffffffffffffffff1667ffffffffffffffff1667ffffffffffffffff1681526020016000820160189054906101000a900467ffffffffffffffff1667ffffffffffffffff1667ffffffffffffffff1681526020016001820160009054906101000a900473ffffffffffffffffffffffffffffffffffffffff1673ffffffffffffffffffffffffffffffffffffffff1673ffffffffffffffffffffffffffffffffffffffff168152602001600282018054611c4690615301565b80601f0160208091040260200160405190810160405280929190818152602001828054611c7290615301565b8015611cbf5780601f10611c9457610100808354040283529160200191611cbf565b820191906000526020600020905b815481529060010190602001808311611ca257829003601f168201915b505050505081526020016003820160009054906101000a900460ff166003811115611d13577f4e487b7100000000000000000000000000000000000000000000000000000000600052602160045260246000fd5b6003811115611d4b577f4e487b7100000000000000000000000000000000000000000000000000000000600052602160045260246000fd5b8152602001600482018054611d5f90615301565b80601f0160208091040260200160405190810160405280929190818152602001828054611d8b90615301565b8015611dd85780601f10611dad57610100808354040283529160200191611dd8565b820191906000526020600020905b815481529060010190602001808311611dbb57829003601f168201915b50505050508152602001600582018054611df190615301565b80601f0160208091040260200160405190810160405280929190818152602001828054611e1d90615301565b8015611e6a5780601f10611e3f57610100808354040283529160200191611e6a565b820191906000526020600020905b815481529060010190602001808311611e4d57829003601f168201915b5050505050815260200160068201805480602002602001604051908101604052809291908181526020018280548015611ef857602002820191906000526020600020905b8160009054906101000a900473ffffffffffffffffffffffffffffffffffffffff1673ffffffffffffffffffffffffffffffffffffffff1681526020019060010190808311611eae575b505050505081526020016007820160009054906101000a900473ffffffffffffffffffffffffffffffffffffffff1673ffffffffffffffffffffffffffffffffffffffff1673ffffffffffffffffffffffffffffffffffffffff1681525050838380611f63906153ad565b945063ffffffff1681518110611fa2577f4e487b7100000000000000000000000000000000000000000000000000000000600052603260045260246000fd5b60200260200101819052505b8080611fb9906153ad565b915050611a20565b50505b809250505090565b60011515600460003373ffffffffffffffffffffffffffffffffffffffff1673ffffffffffffffffffffffffffffffffffffffff16815260200190815260200160002060009054906101000a900460ff1615151461205f576040517f08c379a000000000000000000000000000000000000000000000000000000000815260040161205690614db6565b60405180910390fd5b600160009054906101000a900473ffffffffffffffffffffffffffffffffffffffff1673ffffffffffffffffffffffffffffffffffffffff166323b872dd3330866040518463ffffffff1660e01b81526004016120be93929190614a11565b602060405180830381600087803b1580156120d857600080fd5b505af11580156120ec573d6000803e3d6000fd5b505050506040513d601f19601f820116820180604052508101906121109190614120565b61214f576040517f08c379a000000000000000000000000000000000000000000000000000000000815260040161214690614d36565b60405180910390fd5b600060056000600160189054906101000a900463ffffffff1663ffffffff1663ffffffff1681526020019081526020016000209050600160189054906101000a900463ffffffff168160000160006101000a81548163ffffffff021916908363ffffffff1602179055506001601881819054906101000a900463ffffffff166121d7906153ad565b91906101000a81548163ffffffff021916908363ffffffff1602179055508481600501908051906020019061220d929190613f1d565b50338160010160006101000a81548173ffffffffffffffffffffffffffffffffffffffff021916908373ffffffffffffffffffffffffffffffffffffffff16021790555086816002019080519060200190612269929190613f1d565b5060008160030160006101000a81548160ff021916908360038111156122b8577f4e487b7100000000000000000000000000000000000000000000000000000000600052602160045260246000fd5b0217905550858160040190805190602001906122d5929190613f1d565b5060006001601c9054906101000a900463ffffffff1663ffffffff166064866122fe9190615082565b61230891906150b3565b90508085612316919061515d565b94508067ffffffffffffffff1660026000828254612334919061502c565b92505081905550848260000160086101000a81548167ffffffffffffffff021916908367ffffffffffffffff160217905550838260000160106101000a81548167ffffffffffffffff021916908367ffffffffffffffff160217905550828260000160186101000a81548167ffffffffffffffff021916908367ffffffffffffffff16021790555060008260000160046101000a81548163ffffffff021916908363ffffffff1602179055507f057cbe8fb32dc8225325e6dfab00e083f52f3650c1601f362091046653f79f2e60018060189054906101000a900463ffffffff1661241f9190615129565b88878787604051612434959493929190614e0c565b60405180910390a15050505050505050565b60011515600460003373ffffffffffffffffffffffffffffffffffffffff1673ffffffffffffffffffffffffffffffffffffffff16815260200190815260200160002060009054906101000a900460ff161515146124d9576040517f08c379a00000000000000000000000000000000000000000000000000000000081526004016124d090614db6565b60405180910390fd5b6000600560008463ffffffff1663ffffffff168152602001908152602001600020905060006003811115612536577f4e487b7100000000000000000000000000000000000000000000000000000000600052602160045260246000fd5b8160030160009054906101000a900460ff166003811115612580577f4e487b7100000000000000000000000000000000000000000000000000000000600052602160045260246000fd5b148061260d5750600160038111156125c1577f4e487b7100000000000000000000000000000000000000000000000000000000600052602160045260246000fd5b8160030160009054906101000a900460ff16600381111561260b577f4e487b7100000000000000000000000000000000000000000000000000000000600052602160045260246000fd5b145b61264c576040517f08c379a000000000000000000000000000000000000000000000000000000000815260040161264390614bb6565b60405180910390fd5b8060010160009054906101000a900473ffffffffffffffffffffffffffffffffffffffff1673ffffffffffffffffffffffffffffffffffffffff163373ffffffffffffffffffffffffffffffffffffffff16146126de576040517f08c379a00000000000000000000000000000000000000000000000000000000081526004016126d590614cf6565b60405180910390fd5b428160000160189054906101000a900467ffffffffffffffff1667ffffffffffffffff1610612742576040517f08c379a000000000000000000000000000000000000000000000000000000000815260040161273990614cb6565b60405180910390fd5b60006001151583151514156128955760058260000160089054906101000a900467ffffffffffffffff166127769190615082565b67ffffffffffffffff169050600160009054906101000a900473ffffffffffffffffffffffffffffffffffffffff1673ffffffffffffffffffffffffffffffffffffffff1663a9059cbb8360070160009054906101000a900473ffffffffffffffffffffffffffffffffffffffff16836040518363ffffffff1660e01b81526004016128039291906149e8565b602060405180830381600087803b15801561281d57600080fd5b505af1158015612831573d6000803e3d6000fd5b505050506040513d601f19601f820116820180604052508101906128559190614120565b612894576040517f08c379a000000000000000000000000000000000000000000000000000000000815260040161288b90614d76565b60405180910390fd5b5b600160009054906101000a900473ffffffffffffffffffffffffffffffffffffffff1673ffffffffffffffffffffffffffffffffffffffff1663a9059cbb33838560000160089054906101000a900467ffffffffffffffff1667ffffffffffffffff1661290291906150f5565b6040518363ffffffff1660e01b815260040161291f929190614a48565b602060405180830381600087803b15801561293957600080fd5b505af115801561294d573d6000803e3d6000fd5b505050506040513d601f19601f820116820180604052508101906129719190614120565b6129b0576040517f08c379a00000000000000000000000000000000000000000000000000000000081526004016129a790614b96565b60405180910390fd5b60038260030160006101000a81548160ff021916908360038111156129fe577f4e487b7100000000000000000000000000000000000000000000000000000000600052602160045260246000fd5b021790555050505050565b6001601c9054906101000a900463ffffffff1681565b60025481565b60008060019054906101000a900460ff16159050808015612a565750600160008054906101000a900460ff1660ff16105b80612a835750612a6530613e03565b158015612a825750600160008054906101000a900460ff1660ff16145b5b612ac2576040517f08c379a0000000000000000000000000000000000000000000000000000000008152600401612ab990614c36565b60405180910390fd5b60016000806101000a81548160ff021916908360ff1602179055508015612aff576001600060016101000a81548160ff0219169083151502179055505b612b07613cc0565b82600160006101000a81548173ffffffffffffffffffffffffffffffffffffffff021916908373ffffffffffffffffffffffffffffffffffffffff1602179055506001600460003373ffffffffffffffffffffffffffffffffffffffff1673ffffffffffffffffffffffffffffffffffffffff16815260200190815260200160002060006101000a81548160ff02191690831515021790555060326001601c9054906101000a900463ffffffff1663ffffffff1610612bfb576040517f08c379a0000000000000000000000000000000000000000000000000000000008152600401612bf290614c16565b60405180910390fd5b816001601c6101000a81548163ffffffff021916908363ffffffff1602179055508015612c755760008060016101000a81548160ff0219169083151502179055507f7f26b83ff96e1f2b6a682f133852f6798a09c465da95921460cefb38474024986001604051612c6c9190614af9565b60405180910390a15b505050565b612c82613cc0565b6001600460008373ffffffffffffffffffffffffffffffffffffffff1673ffffffffffffffffffffffffffffffffffffffff16815260200190815260200160002060006101000a81548160ff02191690831515021790555050565b612ce5613cc0565b600060025411612d2a576040517f08c379a0000000000000000000000000000000000000000000000000000000008152600401612d2190614bf6565b60405180910390fd5b600160009054906101000a900473ffffffffffffffffffffffffffffffffffffffff1673ffffffffffffffffffffffffffffffffffffffff1663a9059cbb336002546040518363ffffffff1660e01b8152600401612d89929190614a48565b602060405180830381600087803b158015612da357600080fd5b505af1158015612db7573d6000803e3d6000fd5b505050506040513d601f19601f82011682018060405250810190612ddb9190614120565b612e1a576040517f08c379a0000000000000000000000000000000000000000000000000000000008152600401612e1190614c96565b60405180910390fd5b6000600281905550565b60606000805b600160189054906101000a900463ffffffff1663ffffffff168163ffffffff161015612ee6573373ffffffffffffffffffffffffffffffffffffffff16600560008363ffffffff1663ffffffff16815260200190815260200160002060070160009054906101000a900473ffffffffffffffffffffffffffffffffffffffff1673ffffffffffffffffffffffffffffffffffffffff161415612ed5578180612ed1906153ad565b9250505b80612edf906153ad565b9050612e2a565b5060008163ffffffff1667ffffffffffffffff811115612f2f577f4e487b7100000000000000000000000000000000000000000000000000000000600052604160045260246000fd5b604051908082528060200260200182016040528015612f6857816020015b612f55613e2e565b815260200190600190039081612f4d5790505b5090506000805b600160189054906101000a900463ffffffff1663ffffffff168163ffffffff1610156134f9573373ffffffffffffffffffffffffffffffffffffffff16600560008363ffffffff1663ffffffff16815260200190815260200160002060070160009054906101000a900473ffffffffffffffffffffffffffffffffffffffff1673ffffffffffffffffffffffffffffffffffffffff1614156134e857600560008263ffffffff1663ffffffff168152602001908152602001600020604051806101800160405290816000820160009054906101000a900463ffffffff1663ffffffff1663ffffffff1681526020016000820160049054906101000a900463ffffffff1663ffffffff1663ffffffff1681526020016000820160089054906101000a900467ffffffffffffffff1667ffffffffffffffff1667ffffffffffffffff1681526020016000820160109054906101000a900467ffffffffffffffff1667ffffffffffffffff1667ffffffffffffffff1681526020016000820160189054906101000a900467ffffffffffffffff1667ffffffffffffffff1667ffffffffffffffff1681526020016001820160009054906101000a900473ffffffffffffffffffffffffffffffffffffffff1673ffffffffffffffffffffffffffffffffffffffff1673ffffffffffffffffffffffffffffffffffffffff16815260200160028201805461317e90615301565b80601f01602080910402602001604051908101604052809291908181526020018280546131aa90615301565b80156131f75780601f106131cc576101008083540402835291602001916131f7565b820191906000526020600020905b8154815290600101906020018083116131da57829003601f168201915b505050505081526020016003820160009054906101000a900460ff16600381111561324b577f4e487b7100000000000000000000000000000000000000000000000000000000600052602160045260246000fd5b6003811115613283577f4e487b7100000000000000000000000000000000000000000000000000000000600052602160045260246000fd5b815260200160048201805461329790615301565b80601f01602080910402602001604051908101604052809291908181526020018280546132c390615301565b80156133105780601f106132e557610100808354040283529160200191613310565b820191906000526020600020905b8154815290600101906020018083116132f357829003601f168201915b5050505050815260200160058201805461332990615301565b80601f016020809104026020016040519081016040528092919081815260200182805461335590615301565b80156133a25780601f10613377576101008083540402835291602001916133a2565b820191906000526020600020905b81548152906001019060200180831161338557829003601f168201915b505050505081526020016006820180548060200260200160405190810160405280929190818152602001828054801561343057602002820191906000526020600020905b8160009054906101000a900473ffffffffffffffffffffffffffffffffffffffff1673ffffffffffffffffffffffffffffffffffffffff16815260200190600101908083116133e6575b505050505081526020016007820160009054906101000a900473ffffffffffffffffffffffffffffffffffffffff1673ffffffffffffffffffffffffffffffffffffffff1673ffffffffffffffffffffffffffffffffffffffff1681525050838363ffffffff16815181106134ce577f4e487b7100000000000000000000000000000000000000000000000000000000600052603260045260246000fd5b602002602001018190525081806134e4906153ad565b9250505b806134f2906153ad565b9050612f6f565b5081935050505090565b60011515600460003373ffffffffffffffffffffffffffffffffffffffff1673ffffffffffffffffffffffffffffffffffffffff16815260200190815260200160002060009054906101000a900460ff16151514613596576040517f08c379a000000000000000000000000000000000000000000000000000000000815260040161358d90614db6565b60405180910390fd5b600560008363ffffffff1663ffffffff16815260200190815260200160002060010160009054906101000a900473ffffffffffffffffffffffffffffffffffffffff1673ffffffffffffffffffffffffffffffffffffffff163373ffffffffffffffffffffffffffffffffffffffff1614613646576040517f08c379a000000000000000000000000000000000000000000000000000000000815260040161363d90614bd6565b60405180910390fd5b80600560008463ffffffff1663ffffffff16815260200190815260200160002060070160006101000a81548173ffffffffffffffffffffffffffffffffffffffff021916908373ffffffffffffffffffffffffffffffffffffffff1602179055506001600560008463ffffffff1663ffffffff16815260200190815260200160002060030160006101000a81548160ff02191690836003811115613713577f4e487b7100000000000000000000000000000000000000000000000000000000600052602160045260246000fd5b02179055505050565b606060011515600460003373ffffffffffffffffffffffffffffffffffffffff1673ffffffffffffffffffffffffffffffffffffffff16815260200190815260200160002060009054906101000a900460ff161515146137b1576040517f08c379a00000000000000000000000000000000000000000000000000000000081526004016137a890614db6565b60405180910390fd5b600360008373ffffffffffffffffffffffffffffffffffffffff1673ffffffffffffffffffffffffffffffffffffffff16815260200190815260200160002080546137fb90615301565b80601f016020809104026020016040519081016040528092919081815260200182805461382790615301565b80156138745780601f1061384957610100808354040283529160200191613874565b820191906000526020600020905b81548152906001019060200180831161385757829003601f168201915b50505050509050919050565b6000600360003373ffffffffffffffffffffffffffffffffffffffff1673ffffffffffffffffffffffffffffffffffffffff16815260200190815260200160002080546138cc90615301565b90501461390e576040517f08c379a000000000000000000000000000000000000000000000000000000000815260040161390590614d16565b60405180910390fd5b80600360003373ffffffffffffffffffffffffffffffffffffffff1673ffffffffffffffffffffffffffffffffffffffff1681526020019081526020016000209080519060200190613961929190613f1d565b506001601481819054906101000a900463ffffffff16613980906153ad565b91906101000a81548163ffffffff021916908363ffffffff16021790555050565b6139a9613cc0565b600073ffffffffffffffffffffffffffffffffffffffff168173ffffffffffffffffffffffffffffffffffffffff161415613a19576040517f08c379a0000000000000000000000000000000000000000000000000000000008152600401613a1090614b76565b60405180910390fd5b613a2281613d3e565b50565b60056020528060005260406000206000915090508060000160009054906101000a900463ffffffff16908060000160049054906101000a900463ffffffff16908060000160089054906101000a900467ffffffffffffffff16908060000160109054906101000a900467ffffffffffffffff16908060000160189054906101000a900467ffffffffffffffff16908060010160009054906101000a900473ffffffffffffffffffffffffffffffffffffffff1690806002018054613ae890615301565b80601f0160208091040260200160405190810160405280929190818152602001828054613b1490615301565b8015613b615780601f10613b3657610100808354040283529160200191613b61565b820191906000526020600020905b815481529060010190602001808311613b4457829003601f168201915b5050505050908060030160009054906101000a900460ff1690806004018054613b8990615301565b80601f0160208091040260200160405190810160405280929190818152602001828054613bb590615301565b8015613c025780601f10613bd757610100808354040283529160200191613c02565b820191906000526020600020905b815481529060010190602001808311613be557829003601f168201915b505050505090806005018054613c1790615301565b80601f0160208091040260200160405190810160405280929190818152602001828054613c4390615301565b8015613c905780601f10613c6557610100808354040283529160200191613c90565b820191906000526020600020905b815481529060010190602001808311613c7357829003601f168201915b5050505050908060070160009054906101000a900473ffffffffffffffffffffffffffffffffffffffff1690508b565b613cc8613e26565b73ffffffffffffffffffffffffffffffffffffffff16613ce6610e42565b73ffffffffffffffffffffffffffffffffffffffff1614613d3c576040517f08c379a0000000000000000000000000000000000000000000000000000000008152600401613d3390614c76565b60405180910390fd5b565b60008060029054906101000a900473ffffffffffffffffffffffffffffffffffffffff16905081600060026101000a81548173ffffffffffffffffffffffffffffffffffffffff021916908373ffffffffffffffffffffffffffffffffffffffff1602179055508173ffffffffffffffffffffffffffffffffffffffff168173ffffffffffffffffffffffffffffffffffffffff167f8be0079c531659141344cd1fd0a4f28419497f9722a3daafe3b4186f6b6457e060405160405180910390a35050565b6000808273ffffffffffffffffffffffffffffffffffffffff163b119050919050565b600033905090565b604051806101800160405280600063ffffffff168152602001600063ffffffff168152602001600067ffffffffffffffff168152602001600067ffffffffffffffff168152602001600067ffffffffffffffff168152602001600073ffffffffffffffffffffffffffffffffffffffff1681526020016060815260200160006003811115613ee5577f4e487b7100000000000000000000000000000000000000000000000000000000600052602160045260246000fd5b8152602001606081526020016060815260200160608152602001600073ffffffffffffffffffffffffffffffffffffffff1681525090565b828054613f2990615301565b90600052602060002090601f016020900481019282613f4b5760008555613f92565b82601f10613f6457805160ff1916838001178555613f92565b82800160010185558215613f92579182015b82811115613f91578251825591602001919060010190613f76565b5b509050613f9f9190613fa3565b5090565b5b80821115613fbc576000816000905550600101613fa4565b5090565b6000613fd3613fce84614f4b565b614f26565b905082815260208101848484011115613feb57600080fd5b613ff68482856152bf565b509392505050565b60008135905061400d81615acd565b92915050565b60008135905061402281615ae4565b92915050565b60008135905061403781615afb565b92915050565b60008151905061404c81615afb565b92915050565b600082601f83011261406357600080fd5b8135614073848260208601613fc0565b91505092915050565b60008151905061408b81615b12565b92915050565b6000813590506140a081615b29565b92915050565b6000813590506140b581615b40565b92915050565b6000602082840312156140cd57600080fd5b60006140db84828501613ffe565b91505092915050565b600080604083850312156140f757600080fd5b600061410585828601614013565b925050602061411685828601614091565b9150509250929050565b60006020828403121561413257600080fd5b60006141408482850161403d565b91505092915050565b60006020828403121561415b57600080fd5b600082013567ffffffffffffffff81111561417557600080fd5b61418184828501614052565b91505092915050565b60008060008060008060c087890312156141a357600080fd5b600087013567ffffffffffffffff8111156141bd57600080fd5b6141c989828a01614052565b965050602087013567ffffffffffffffff8111156141e657600080fd5b6141f289828a01614052565b955050604087013567ffffffffffffffff81111561420f57600080fd5b61421b89828a01614052565b945050606061422c89828a016140a6565b935050608061423d89828a016140a6565b92505060a061424e89828a016140a6565b9150509295509295509295565b60006020828403121561426d57600080fd5b600061427b8482850161407c565b91505092915050565b60006020828403121561429657600080fd5b60006142a484828501614091565b91505092915050565b600080604083850312156142c057600080fd5b60006142ce85828601614091565b92505060206142df85828601613ffe565b9150509250929050565b600080604083850312156142fc57600080fd5b600061430a85828601614091565b925050602061431b85828601614028565b9150509250929050565b6000614331838361437e565b60208301905092915050565b6000614349838361485a565b905092915050565b61435a8161522f565b82525050565b614369816151a3565b82525050565b614378816151a3565b82525050565b61438781615191565b82525050565b61439681615191565b82525050565b60006143a782614f9c565b6143b18185614fd7565b93506143bc83614f7c565b8060005b838110156143ed5781516143d48882614325565b97506143df83614fbd565b9250506001810190506143c0565b5085935050505092915050565b600061440582614f9c565b61440f8185614fe8565b935061441a83614f7c565b8060005b8381101561444b5781516144328882614325565b975061443d83614fbd565b92505060018101905061441e565b5085935050505092915050565b600061446382614fa7565b61446d8185614ff9565b93508360208202850161447f85614f8c565b8060005b858110156144bb578484038952815161449c858261433d565b94506144a783614fca565b925060208a01995050600181019050614483565b50829750879550505050505092915050565b6144d681615241565b82525050565b6144e581615265565b82525050565b6144f481615265565b82525050565b61450381615277565b82525050565b600061451482614fb2565b61451e818561500a565b935061452e8185602086016152ce565b614537816154c5565b840191505092915050565b600061454d82614fb2565b614557818561501b565b93506145678185602086016152ce565b614570816154c5565b840191505092915050565b600061458860258361501b565b9150614593826154d6565b604082019050919050565b60006145ab60248361501b565b91506145b682615525565b604082019050919050565b60006145ce60268361501b565b91506145d982615574565b604082019050919050565b60006145f160408361501b565b91506145fc826155c3565b604082019050919050565b600061461460278361501b565b915061461f82615612565b604082019050919050565b600061463760348361501b565b915061464282615661565b604082019050919050565b600061465a60278361501b565b9150614665826156b0565b604082019050919050565b600061467d60268361501b565b9150614688826156ff565b604082019050919050565b60006146a0602e8361501b565b91506146ab8261574e565b604082019050919050565b60006146c360308361501b565b91506146ce8261579d565b604082019050919050565b60006146e660208361501b565b91506146f1826157ec565b602082019050919050565b600061470960298361501b565b915061471482615815565b604082019050919050565b600061472c602f8361501b565b915061473782615864565b604082019050919050565b600061474f60268361501b565b915061475a826158b3565b604082019050919050565b600061477260288361501b565b915061477d82615902565b604082019050919050565b6000614795601a8361501b565b91506147a082615951565b602082019050919050565b60006147b860318361501b565b91506147c38261597a565b604082019050919050565b60006147db601f8361501b565b91506147e6826159c9565b602082019050919050565b60006147fe60218361501b565b9150614809826159f2565b604082019050919050565b6000614821602a8361501b565b915061482c82615a41565b604082019050919050565b600061484460188361501b565b915061484f82615a90565b602082019050919050565b6000610180830160008301516148736000860182614982565b5060208301516148866020860182614982565b50604083015161489960408601826149af565b5060608301516148ac60608601826149af565b5060808301516148bf60808601826149af565b5060a08301516148d260a0860182614360565b5060c083015184820360c08601526148ea8282614509565b91505060e08301516148ff60e08601826144dc565b506101008301518482036101008601526149198282614509565b9150506101208301518482036101208601526149358282614509565b915050610140830151848203610140860152614951828261439c565b915050610160830151614968610160860182614360565b508091505092915050565b61497c816151f4565b82525050565b61498b816151fe565b82525050565b61499a816151fe565b82525050565b6149a9816152ad565b82525050565b6149b88161520e565b82525050565b6149c78161520e565b82525050565b60006020820190506149e2600083018461438d565b92915050565b60006040820190506149fd6000830185614351565b614a0a6020830184614973565b9392505050565b6000606082019050614a26600083018661438d565b614a33602083018561438d565b614a4060408301846149a0565b949350505050565b6000604082019050614a5d600083018561438d565b614a6a6020830184614973565b9392505050565b6000604082019050614a86600083018561438d565b614a9360208301846149a0565b9392505050565b60006020820190508181036000830152614ab481846143fa565b905092915050565b60006020820190508181036000830152614ad68184614458565b905092915050565b6000602082019050614af360008301846144cd565b92915050565b6000602082019050614b0e60008301846144fa565b92915050565b60006020820190508181036000830152614b2e8184614542565b905092915050565b60006020820190508181036000830152614b4f8161457b565b9050919050565b60006020820190508181036000830152614b6f8161459e565b9050919050565b60006020820190508181036000830152614b8f816145c1565b9050919050565b60006020820190508181036000830152614baf816145e4565b9050919050565b60006020820190508181036000830152614bcf81614607565b9050919050565b60006020820190508181036000830152614bef8161462a565b9050919050565b60006020820190508181036000830152614c0f8161464d565b9050919050565b60006020820190508181036000830152614c2f81614670565b9050919050565b60006020820190508181036000830152614c4f81614693565b9050919050565b60006020820190508181036000830152614c6f816146b6565b9050919050565b60006020820190508181036000830152614c8f816146d9565b9050919050565b60006020820190508181036000830152614caf816146fc565b9050919050565b60006020820190508181036000830152614ccf8161471f565b9050919050565b60006020820190508181036000830152614cef81614742565b9050919050565b60006020820190508181036000830152614d0f81614765565b9050919050565b60006020820190508181036000830152614d2f81614788565b9050919050565b60006020820190508181036000830152614d4f816147ab565b9050919050565b60006020820190508181036000830152614d6f816147ce565b9050919050565b60006020820190508181036000830152614d8f816147f1565b9050919050565b60006020820190508181036000830152614daf81614814565b9050919050565b60006020820190508181036000830152614dcf81614837565b9050919050565b6000602082019050614deb6000830184614973565b92915050565b6000602082019050614e066000830184614991565b92915050565b600060a082019050614e216000830188614991565b8181036020830152614e338187614542565b9050614e4260408301866149be565b614e4f60608301856149be565b614e5c60808301846149be565b9695505050505050565b600061016082019050614e7c600083018e614991565b614e89602083018d614991565b614e96604083018c6149be565b614ea3606083018b6149be565b614eb0608083018a6149be565b614ebd60a083018961436f565b81810360c0830152614ecf8188614542565b9050614ede60e08301876144eb565b818103610100830152614ef18186614542565b9050818103610120830152614f068185614542565b9050614f1661014083018461436f565b9c9b505050505050505050505050565b6000614f30614f41565b9050614f3c8282615333565b919050565b6000604051905090565b600067ffffffffffffffff821115614f6657614f65615496565b5b614f6f826154c5565b9050602081019050919050565b6000819050602082019050919050565b6000819050602082019050919050565b600081519050919050565b600081519050919050565b600081519050919050565b6000602082019050919050565b6000602082019050919050565b600082825260208201905092915050565b600082825260208201905092915050565b600082825260208201905092915050565b600082825260208201905092915050565b600082825260208201905092915050565b6000615037826151f4565b9150615042836151f4565b9250827fffffffffffffffffffffffffffffffffffffffffffffffffffffffffffffffff03821115615077576150766153da565b5b828201905092915050565b600061508d8261520e565b91506150988361520e565b9250826150a8576150a7615409565b5b828204905092915050565b60006150be8261520e565b91506150c98361520e565b92508167ffffffffffffffff04831182151516156150ea576150e96153da565b5b828202905092915050565b6000615100826151f4565b915061510b836151f4565b92508282101561511e5761511d6153da565b5b828203905092915050565b6000615134826151fe565b915061513f836151fe565b925082821015615152576151516153da565b5b828203905092915050565b60006151688261520e565b91506151738361520e565b925082821015615186576151856153da565b5b828203905092915050565b600061519c826151d4565b9050919050565b60006151ae826151d4565b9050919050565b60008115159050919050565b60008190506151cf82615ab9565b919050565b600073ffffffffffffffffffffffffffffffffffffffff82169050919050565b6000819050919050565b600063ffffffff82169050919050565b600067ffffffffffffffff82169050919050565b600060ff82169050919050565b600061523a82615289565b9050919050565b600061524c82615253565b9050919050565b600061525e826151d4565b9050919050565b6000615270826151c1565b9050919050565b600061528282615222565b9050919050565b60006152948261529b565b9050919050565b60006152a6826151d4565b9050919050565b60006152b88261520e565b9050919050565b82818337600083830152505050565b60005b838110156152ec5780820151818401526020810190506152d1565b838111156152fb576000848401525b50505050565b6000600282049050600182168061531957607f821691505b6020821081141561532d5761532c615467565b5b50919050565b61533c826154c5565b810181811067ffffffffffffffff8211171561535b5761535a615496565b5b80604052505050565b600061536f826151f4565b91507fffffffffffffffffffffffffffffffffffffffffffffffffffffffffffffffff8214156153a2576153a16153da565b5b600182019050919050565b60006153b8826151fe565b915063ffffffff8214156153cf576153ce6153da565b5b600182019050919050565b7f4e487b7100000000000000000000000000000000000000000000000000000000600052601160045260246000fd5b7f4e487b7100000000000000000000000000000000000000000000000000000000600052601260045260246000fd5b7f4e487b7100000000000000000000000000000000000000000000000000000000600052602160045260246000fd5b7f4e487b7100000000000000000000000000000000000000000000000000000000600052602260045260246000fd5b7f4e487b7100000000000000000000000000000000000000000000000000000000600052604160045260246000fd5b6000601f19601f8301169050919050565b7f596f7520616c7265616479206170706c69656420666f7220746869732070726f60008201527f6a6563742e000000000000000000000000000000000000000000000000000000602082015250565b7f596f752063616e206f6e6c79206170706c7920746f206f70656e2070726f6a6560008201527f6374732e00000000000000000000000000000000000000000000000000000000602082015250565b7f4f776e61626c653a206e6577206f776e657220697320746865207a65726f206160008201527f6464726573730000000000000000000000000000000000000000000000000000602082015250565b7f5472616e73666572696e67206261636b2074686520746f6b656e73206f66207460008201527f6865206e6f7420636f6d706c657465642070726f6a656374206661696c65642e602082015250565b7f546869732070726f6a656374206973206e6f7420696e2070726f67726573206e60008201527f6f72206f70656e00000000000000000000000000000000000000000000000000602082015250565b7f596f752063616e206f6e6c7920616363657074206170706c6963616e7473206660008201527f6f7220796f7572206f776e2070726f6a6563742e000000000000000000000000602082015250565b7f4e6f20636f6d6d697373696f6e20617661696c61626c6520666f72207769746860008201527f64726177616c2e00000000000000000000000000000000000000000000000000602082015250565b7f54686520636f6d6d6973696f6e2068617320746f206265206c6573732074686160008201527f6e203530252e0000000000000000000000000000000000000000000000000000602082015250565b7f496e697469616c697a61626c653a20636f6e747261637420697320616c72656160008201527f647920696e697469616c697a6564000000000000000000000000000000000000602082015250565b7f5468652070726f6a656374206d75737420626520696e2070726f67726573732060008201527f746f2062652066696e616c697a65642e00000000000000000000000000000000602082015250565b7f4f776e61626c653a2063616c6c6572206973206e6f7420746865206f776e6572600082015250565b7f546865207472616e73666572206f6620636f6d6d697373696f6e20746f6b656e60008201527f73206661696c65642e0000000000000000000000000000000000000000000000602082015250565b7f54686520646561646c696e6520686173206e6f74207061737365642e2047697660008201527f6520697420736f6d652074696d652e0000000000000000000000000000000000602082015250565b7f546865207472616e73666572206f662070656e616c747920746f6b656e73206660008201527f61696c65642e0000000000000000000000000000000000000000000000000000602082015250565b7f596f752063616e206f6e6c792066696e616c697a6520796f7572206f776e207060008201527f726f6a656374732e000000000000000000000000000000000000000000000000602082015250565b7f596f752061726520616c72656164792072656769737465726564000000000000600082015250565b7f546865207472616e73666572206f662072657761726420746f2074686520636f60008201527f6e747261637420686173206661696c6564000000000000000000000000000000602082015250565b7f596f75206861766520746f206265207265676973746572656420666972737400600082015250565b7f546865207472616e73666572206f662074686520726577617264206661696c6560008201527f6400000000000000000000000000000000000000000000000000000000000000602082015250565b7f5468652061646472657373206d757374206861766520616e2061646d696e207260008201527f6f6c652066697273742e00000000000000000000000000000000000000000000602082015250565b7f4f6e6c792061646d696e732061726520616c6c6f776564210000000000000000600082015250565b60048110615aca57615ac9615438565b5b50565b615ad681615191565b8114615ae157600080fd5b50565b615aed816151a3565b8114615af857600080fd5b50565b615b04816151b5565b8114615b0f57600080fd5b50565b615b1b816151f4565b8114615b2657600080fd5b50565b615b32816151fe565b8114615b3d57600080fd5b50565b615b498161520e565b8114615b5457600080fd5b5056fea2646970667358221220eee5f85a99e2576ba61f509654c220f0ea57d27da839fabfecc870f6afe7238964736f6c63430008020033",
	"linkReferences": {},
	"deployedLinkReferences": {}
}